{"contracts/identiFi.sol":{"IdentiFi":{"abi":[{"inputs":[{"internalType":"address","name":"_vrfCoordinator","type":"address"},{"internalType":"address","name":"_linkToken","type":"address"},{"internalType":"bytes32","name":"_keyHash","type":"bytes32"},{"internalType":"uint256","name":"_fee","type":"uint256"},{"internalType":"address","name":"_batch","type":"address"}],"stateMutability":"nonpayable","type":"constructor"},{"inputs":[{"internalType":"string","name":"username","type":"string"},{"internalType":"uint256","name":"jobId","type":"uint256"}],"name":"addJob","outputs":[],"stateMutability":"nonpayable","type":"function"},{"inputs":[{"internalType":"address","name":"","type":"address"}],"name":"addressToDID","outputs":[{"internalType":"uint256","name":"","type":"uint256"}],"stateMutability":"view","type":"function"},{"inputs":[],"name":"batch","outputs":[{"internalType":"contract IBatch","name":"","type":"address"}],"stateMutability":"view","type":"function"},{"inputs":[{"internalType":"string[]","name":"usernames","type":"string[]"},{"components":[{"internalType":"string","name":"firstName","type":"string"},{"internalType":"string","name":"lastName","type":"string"},{"internalType":"string","name":"email","type":"string"},{"internalType":"string","name":"homeAddress","type":"string"},{"internalType":"string","name":"dateOfBirth","type":"string"},{"internalType":"string","name":"phoneNumber","type":"string"}],"internalType":"struct IdentiFi.BasicInfo[]","name":"basicInfos","type":"tuple[]"},{"components":[{"internalType":"string","name":"education","type":"string"},{"internalType":"string","name":"workHistory","type":"string"},{"internalType":"string","name":"jobTitle","type":"string"},{"internalType":"string","name":"info","type":"string"},{"internalType":"string[]","name":"skills","type":"string[]"},{"internalType":"string","name":"imageURL","type":"string"}],"internalType":"struct IdentiFi.ProfessionalInfo[]","name":"professionalInfos","type":"tuple[]"},{"components":[{"internalType":"string","name":"x","type":"string"},{"internalType":"string","name":"instagram","type":"string"},{"internalType":"string","name":"tiktok","type":"string"},{"internalType":"string","name":"youtube","type":"string"},{"internalType":"string","name":"linkedin","type":"string"}],"internalType":"struct IdentiFi.SocialLinks[]","name":"socialLinksArray","type":"tuple[]"},{"components":[{"internalType":"bool","name":"education","type":"bool"},{"internalType":"bool","name":"workHistory","type":"bool"},{"internalType":"bool","name":"phoneNumber","type":"bool"},{"internalType":"bool","name":"homeAddress","type":"bool"},{"internalType":"bool","name":"dateOfBirth","type":"bool"}],"internalType":"struct IdentiFi.Visibility[]","name":"visibilities","type":"tuple[]"}],"name":"batchCreateUsers","outputs":[],"stateMutability":"nonpayable","type":"function"},{"inputs":[{"internalType":"string","name":"username","type":"string"},{"components":[{"internalType":"string","name":"firstName","type":"string"},{"internalType":"string","name":"lastName","type":"string"},{"internalType":"string","name":"email","type":"string"},{"internalType":"string","name":"homeAddress","type":"string"},{"internalType":"string","name":"dateOfBirth","type":"string"},{"internalType":"string","name":"phoneNumber","type":"string"}],"internalType":"struct IdentiFi.BasicInfo","name":"basicInfo","type":"tuple"},{"components":[{"internalType":"string","name":"education","type":"string"},{"internalType":"string","name":"workHistory","type":"string"},{"internalType":"string","name":"jobTitle","type":"string"},{"internalType":"string","name":"info","type":"string"},{"internalType":"string[]","name":"skills","type":"string[]"},{"internalType":"string","name":"imageURL","type":"string"}],"internalType":"struct IdentiFi.ProfessionalInfo","name":"professionalInfo","type":"tuple"},{"components":[{"internalType":"string","name":"x","type":"string"},{"internalType":"string","name":"instagram","type":"string"},{"internalType":"string","name":"tiktok","type":"string"},{"internalType":"string","name":"youtube","type":"string"},{"internalType":"string","name":"linkedin","type":"string"}],"internalType":"struct IdentiFi.SocialLinks","name":"socialLinks","type":"tuple"},{"components":[{"internalType":"bool","name":"education","type":"bool"},{"internalType":"bool","name":"workHistory","type":"bool"},{"internalType":"bool","name":"phoneNumber","type":"bool"},{"internalType":"bool","name":"homeAddress","type":"bool"},{"internalType":"bool","name":"dateOfBirth","type":"bool"}],"internalType":"struct IdentiFi.Visibility","name":"visibility","type":"tuple"}],"name":"createUser","outputs":[],"stateMutability":"nonpayable","type":"function"},{"inputs":[{"internalType":"string","name":"username","type":"string"},{"components":[{"internalType":"string","name":"firstName","type":"string"},{"internalType":"string","name":"lastName","type":"string"},{"internalType":"string","name":"email","type":"string"},{"internalType":"string","name":"homeAddress","type":"string"},{"internalType":"string","name":"dateOfBirth","type":"string"},{"internalType":"string","name":"phoneNumber","type":"string"}],"internalType":"struct IdentiFi.BasicInfo","name":"basicInfo","type":"tuple"},{"components":[{"internalType":"string","name":"education","type":"string"},{"internalType":"string","name":"workHistory","type":"string"},{"internalType":"string","name":"jobTitle","type":"string"},{"internalType":"string","name":"info","type":"string"},{"internalType":"string[]","name":"skills","type":"string[]"},{"internalType":"string","name":"imageURL","type":"string"}],"internalType":"struct IdentiFi.ProfessionalInfo","name":"professionalInfo","type":"tuple"},{"components":[{"internalType":"string","name":"x","type":"string"},{"internalType":"string","name":"instagram","type":"string"},{"internalType":"string","name":"tiktok","type":"string"},{"internalType":"string","name":"youtube","type":"string"},{"internalType":"string","name":"linkedin","type":"string"}],"internalType":"struct IdentiFi.SocialLinks","name":"socialLinks","type":"tuple"},{"components":[{"internalType":"bool","name":"education","type":"bool"},{"internalType":"bool","name":"workHistory","type":"bool"},{"internalType":"bool","name":"phoneNumber","type":"bool"},{"internalType":"bool","name":"homeAddress","type":"bool"},{"internalType":"bool","name":"dateOfBirth","type":"bool"}],"internalType":"struct IdentiFi.Visibility","name":"visibility","type":"tuple"}],"name":"editUser","outputs":[],"stateMutability":"nonpayable","type":"function"},{"inputs":[{"internalType":"string","name":"username","type":"string"}],"name":"getJobs","outputs":[{"internalType":"uint256[]","name":"","type":"uint256[]"}],"stateMutability":"view","type":"function"},{"inputs":[{"internalType":"address","name":"userAddress","type":"address"}],"name":"getUserByAddress","outputs":[{"components":[{"internalType":"string","name":"firstName","type":"string"},{"internalType":"string","name":"lastName","type":"string"},{"internalType":"string","name":"email","type":"string"},{"internalType":"string","name":"homeAddress","type":"string"},{"internalType":"string","name":"dateOfBirth","type":"string"},{"internalType":"string","name":"phoneNumber","type":"string"}],"internalType":"struct IdentiFi.BasicInfo","name":"basicInfo","type":"tuple"},{"components":[{"internalType":"string","name":"education","type":"string"},{"internalType":"string","name":"workHistory","type":"string"},{"internalType":"string","name":"jobTitle","type":"string"},{"internalType":"string","name":"info","type":"string"},{"internalType":"string[]","name":"skills","type":"string[]"},{"internalType":"string","name":"imageURL","type":"string"}],"internalType":"struct IdentiFi.ProfessionalInfo","name":"professionalInfo","type":"tuple"},{"components":[{"internalType":"string","name":"x","type":"string"},{"internalType":"string","name":"instagram","type":"string"},{"internalType":"string","name":"tiktok","type":"string"},{"internalType":"string","name":"youtube","type":"string"},{"internalType":"string","name":"linkedin","type":"string"}],"internalType":"struct IdentiFi.SocialLinks","name":"socialLinks","type":"tuple"},{"components":[{"internalType":"bool","name":"education","type":"bool"},{"internalType":"bool","name":"workHistory","type":"bool"},{"internalType":"bool","name":"phoneNumber","type":"bool"},{"internalType":"bool","name":"homeAddress","type":"bool"},{"internalType":"bool","name":"dateOfBirth","type":"bool"}],"internalType":"struct IdentiFi.Visibility","name":"visibility","type":"tuple"}],"stateMutability":"view","type":"function"},{"inputs":[{"internalType":"string","name":"username","type":"string"}],"name":"getUserByUsername","outputs":[{"components":[{"internalType":"string","name":"firstName","type":"string"},{"internalType":"string","name":"lastName","type":"string"},{"internalType":"string","name":"email","type":"string"},{"internalType":"string","name":"homeAddress","type":"string"},{"internalType":"string","name":"dateOfBirth","type":"string"},{"internalType":"string","name":"phoneNumber","type":"string"}],"internalType":"struct IdentiFi.BasicInfo","name":"basicInfo","type":"tuple"},{"components":[{"internalType":"string","name":"education","type":"string"},{"internalType":"string","name":"workHistory","type":"string"},{"internalType":"string","name":"jobTitle","type":"string"},{"internalType":"string","name":"info","type":"string"},{"internalType":"string[]","name":"skills","type":"string[]"},{"internalType":"string","name":"imageURL","type":"string"}],"internalType":"struct IdentiFi.ProfessionalInfo","name":"professionalInfo","type":"tuple"},{"components":[{"internalType":"string","name":"x","type":"string"},{"internalType":"string","name":"instagram","type":"string"},{"internalType":"string","name":"tiktok","type":"string"},{"internalType":"string","name":"youtube","type":"string"},{"internalType":"string","name":"linkedin","type":"string"}],"internalType":"struct IdentiFi.SocialLinks","name":"socialLinks","type":"tuple"},{"components":[{"internalType":"bool","name":"education","type":"bool"},{"internalType":"bool","name":"workHistory","type":"bool"},{"internalType":"bool","name":"phoneNumber","type":"bool"},{"internalType":"bool","name":"homeAddress","type":"bool"},{"internalType":"bool","name":"dateOfBirth","type":"bool"}],"internalType":"struct IdentiFi.Visibility","name":"visibility","type":"tuple"}],"stateMutability":"view","type":"function"},{"inputs":[{"internalType":"address","name":"userAddress","type":"address"}],"name":"getUsernameByAddress","outputs":[{"internalType":"string","name":"","type":"string"}],"stateMutability":"view","type":"function"},{"inputs":[{"internalType":"string","name":"username","type":"string"}],"name":"getVisibility","outputs":[{"components":[{"internalType":"bool","name":"education","type":"bool"},{"internalType":"bool","name":"workHistory","type":"bool"},{"internalType":"bool","name":"phoneNumber","type":"bool"},{"internalType":"bool","name":"homeAddress","type":"bool"},{"internalType":"bool","name":"dateOfBirth","type":"bool"}],"internalType":"struct IdentiFi.Visibility","name":"","type":"tuple"}],"stateMutability":"view","type":"function"},{"inputs":[{"internalType":"bytes32","name":"requestId","type":"bytes32"},{"internalType":"uint256","name":"randomness","type":"uint256"}],"name":"rawFulfillRandomness","outputs":[],"stateMutability":"nonpayable","type":"function"},{"inputs":[{"internalType":"bytes32","name":"","type":"bytes32"}],"name":"requestIdToSender","outputs":[{"internalType":"address","name":"","type":"address"}],"stateMutability":"view","type":"function"},{"inputs":[],"name":"requestNewDID","outputs":[{"internalType":"bytes32","name":"requestId","type":"bytes32"}],"stateMutability":"nonpayable","type":"function"},{"inputs":[{"internalType":"string","name":"username","type":"string"},{"internalType":"bool","name":"education","type":"bool"},{"internalType":"bool","name":"workHistory","type":"bool"},{"internalType":"bool","name":"phoneNumber","type":"bool"},{"internalType":"bool","name":"homeAddress","type":"bool"},{"internalType":"bool","name":"dateOfBirth","type":"bool"}],"name":"setVisibility","outputs":[],"stateMutability":"nonpayable","type":"function"}],"evm":{"bytecode":{"linkReferences":{},"object":"60c06040523480156200001157600080fd5b50604051620049c1380380620049c18339818101604052810190620000379190620001dd565b84848173ffffffffffffffffffffffffffffffffffffffff1660a08173ffffffffffffffffffffffffffffffffffffffff16815250508073ffffffffffffffffffffffffffffffffffffffff1660808173ffffffffffffffffffffffffffffffffffffffff16815250505050826001819055508160028190555080600560006101000a81548173ffffffffffffffffffffffffffffffffffffffff021916908373ffffffffffffffffffffffffffffffffffffffff160217905550505050505062000265565b600080fd5b600073ffffffffffffffffffffffffffffffffffffffff82169050919050565b60006200012f8262000102565b9050919050565b620001418162000122565b81146200014d57600080fd5b50565b600081519050620001618162000136565b92915050565b6000819050919050565b6200017c8162000167565b81146200018857600080fd5b50565b6000815190506200019c8162000171565b92915050565b6000819050919050565b620001b781620001a2565b8114620001c357600080fd5b50565b600081519050620001d781620001ac565b92915050565b600080600080600060a08688031215620001fc57620001fb620000fd565b5b60006200020c8882890162000150565b95505060206200021f8882890162000150565b945050604062000232888289016200018b565b93505060606200024588828901620001c6565b9250506080620002588882890162000150565b9150509295509295909350565b60805160a0516147286200029960003960008181610c5801526122e1015260008181611d3601526122a501526147286000f3fe608060405234801561001057600080fd5b50600436106100f55760003560e01c80639f42af6311610097578063d981fbbe11610066578063d981fbbe1461029a578063ed1a998d146102b8578063f789c0a1146102e8578063f86a29c714610318576100f5565b80639f42af6314610211578063af71356614610244578063bb6228b014610262578063d1577cac1461027e576100f5565b806349110a6b116100d357806349110a6b146101765780634cb51da71461019257806369c212f6146101c257806394985ddd146101f5576100f5565b8063219c0eee146100fa5780632259bca71461012a578063320ba8f714610146575b600080fd5b610114600480360381019061010f9190612658565b610334565b60405161012191906126c6565b60405180910390f35b610144600480360381019061013f91906130e9565b610367565b005b610160600480360381019061015b91906131f0565b610880565b60405161016d91906132b0565b60405180910390f35b610190600480360381019061018b9190613301565b6109b0565b005b6101ac60048036038101906101a791906131f0565b610a6a565b6040516101b9919061341b565b60405180910390f35b6101dc60048036038101906101d79190613469565b610b51565b6040516101ec94939291906137c1565b60405180910390f35b61020f600480360381019061020a919061381c565b610c56565b005b61022b600480360381019061022691906131f0565b610cf2565b60405161023b94939291906137c1565b60405180910390f35b61024c61185c565b60405161025991906138bb565b60405180910390f35b61027c600480360381019061027791906138d6565b611882565b005b610298600480360381019061029391906139c2565b611bfb565b005b6102a2611d2f565b6040516102af9190613a7a565b60405180910390f35b6102d260048036038101906102cd9190613469565b611e74565b6040516102df9190613adf565b60405180910390f35b61030260048036038101906102fd9190613469565b611f45565b60405161030f9190613b10565b60405180910390f35b610332600480360381019061032d91906138d6565b611f5d565b005b60036020528060005260406000206000915054906101000a900473ffffffffffffffffffffffffffffffffffffffff1681565b83518551146103ab576040517f08c379a00000000000000000000000000000000000000000000000000000000081526004016103a290613b9d565b60405180910390fd5b82518451146103ef576040517f08c379a00000000000000000000000000000000000000000000000000000000081526004016103e690613b9d565b60405180910390fd5b8151835114610433576040517f08c379a000000000000000000000000000000000000000000000000000000000815260040161042a90613b9d565b60405180910390fd5b8051825114610477576040517f08c379a000000000000000000000000000000000000000000000000000000000815260040161046e90613b9d565b60405180910390fd5b6000855167ffffffffffffffff811115610494576104936126f7565b5b6040519080825280602002602001820160405280156104c25781602001602082028036833780820191505090505b5090506000865167ffffffffffffffff8111156104e2576104e16126f7565b5b6040519080825280602002602001820160405280156105105781602001602082028036833780820191505090505b5090506000875167ffffffffffffffff8111156105305761052f6126f7565b5b60405190808252806020026020018201604052801561056357816020015b606081526020019060019003908161054e5790505b5090506000885167ffffffffffffffff811115610583576105826126f7565b5b6040519080825280602002602001820160405280156105b15781602001602082028036833780820191505090505b50905060005b895181101561079157308582815181106105d4576105d3613bbd565b5b602002602001019073ffffffffffffffffffffffffffffffffffffffff16908173ffffffffffffffffffffffffffffffffffffffff1681525050600084828151811061062357610622613bbd565b5b60200260200101818152505063bb6228b060e01b8a828151811061064a57610649613bbd565b5b60200260200101518a838151811061066557610664613bbd565b5b60200260200101518a84815181106106805761067f613bbd565b5b60200260200101518a858151811061069b5761069a613bbd565b5b60200260200101518a86815181106106b6576106b5613bbd565b5b60200260200101516040516024016106d2959493929190613bec565b604051602081830303815290604052907bffffffffffffffffffffffffffffffffffffffffffffffffffffffff19166020820180517bffffffffffffffffffffffffffffffffffffffffffffffffffffffff838183161783525050505083828151811061074257610741613bbd565b5b6020026020010181905250600082828151811061076257610761613bbd565b5b602002602001019067ffffffffffffffff16908167ffffffffffffffff168152505080806001019150506105b7565b50600560009054906101000a900473ffffffffffffffffffffffffffffffffffffffff1673ffffffffffffffffffffffffffffffffffffffff166396e292b8858585856040518563ffffffff1660e01b81526004016107f39493929190613f03565b6020604051808303816000875af1158015610812573d6000803e3d6000fd5b505050506040513d601f19601f820116820180604052508101906108369190613f79565b610875576040517f08c379a000000000000000000000000000000000000000000000000000000000815260040161086c90613ff2565b60405180910390fd5b505050505050505050565b610888612460565b600682604051610898919061404e565b908152602001604051809103902060120160009054906101000a900460ff166108f6576040517f08c379a00000000000000000000000000000000000000000000000000000000081526004016108ed906140b1565b60405180910390fd5b600682604051610906919061404e565b90815260200160405180910390206014016040518060a00160405290816000820160009054906101000a900460ff161515151581526020016000820160019054906101000a900460ff161515151581526020016000820160029054906101000a900460ff161515151581526020016000820160039054906101000a900460ff161515151581526020016000820160049054906101000a900460ff1615151515815250509050919050565b6006826040516109c0919061404e565b908152602001604051809103902060120160009054906101000a900460ff16610a1e576040517f08c379a0000000000000000000000000000000000000000000000000000000008152600401610a15906140b1565b60405180910390fd5b600682604051610a2e919061404e565b90815260200160405180910390206013018190806001815401808255809150506001900390600052602060002001600090919091909150555050565b6060600682604051610a7c919061404e565b908152602001604051809103902060120160009054906101000a900460ff16610ada576040517f08c379a0000000000000000000000000000000000000000000000000000000008152600401610ad1906140b1565b60405180910390fd5b600682604051610aea919061404e565b9081526020016040518091039020601301805480602002602001604051908101604052809291908181526020018280548015610b4557602002820191906000526020600020905b815481526020019060010190808311610b31575b50505050509050919050565b610b59612499565b610b616124cf565b610b69612505565b610b71612460565b6000600760008773ffffffffffffffffffffffffffffffffffffffff1673ffffffffffffffffffffffffffffffffffffffff1681526020019081526020016000208054610bbd90614100565b80601f0160208091040260200160405190810160405280929190818152602001828054610be990614100565b8015610c365780601f10610c0b57610100808354040283529160200191610c36565b820191906000526020600020905b815481529060010190602001808311610c1957829003601f168201915b50505050509050610c4681610cf2565b9450945094509450509193509193565b7f000000000000000000000000000000000000000000000000000000000000000073ffffffffffffffffffffffffffffffffffffffff163373ffffffffffffffffffffffffffffffffffffffff1614610ce4576040517f08c379a0000000000000000000000000000000000000000000000000000000008152600401610cdb9061417d565b60405180910390fd5b610cee828261221a565b5050565b610cfa612499565b610d026124cf565b610d0a612505565b610d12612460565b600685604051610d22919061404e565b908152602001604051809103902060120160009054906101000a900460ff16610d80576040517f08c379a0000000000000000000000000000000000000000000000000000000008152600401610d77906140b1565b60405180910390fd5b6000600686604051610d92919061404e565b908152602001604051809103902090506040518060c00160405280826000018054610dbc90614100565b80601f0160208091040260200160405190810160405280929190818152602001828054610de890614100565b8015610e355780601f10610e0a57610100808354040283529160200191610e35565b820191906000526020600020905b815481529060010190602001808311610e1857829003601f168201915b50505050508152602001826001018054610e4e90614100565b80601f0160208091040260200160405190810160405280929190818152602001828054610e7a90614100565b8015610ec75780601f10610e9c57610100808354040283529160200191610ec7565b820191906000526020600020905b815481529060010190602001808311610eaa57829003601f168201915b50505050508152602001826003018054610ee090614100565b80601f0160208091040260200160405190810160405280929190818152602001828054610f0c90614100565b8015610f595780601f10610f2e57610100808354040283529160200191610f59565b820191906000526020600020905b815481529060010190602001808311610f3c57829003601f168201915b50505050508152602001826004018054610f7290614100565b80601f0160208091040260200160405190810160405280929190818152602001828054610f9e90614100565b8015610feb5780601f10610fc057610100808354040283529160200191610feb565b820191906000526020600020905b815481529060010190602001808311610fce57829003601f168201915b5050505050815260200182600501805461100490614100565b80601f016020809104026020016040519081016040528092919081815260200182805461103090614100565b801561107d5780601f106110525761010080835404028352916020019161107d565b820191906000526020600020905b81548152906001019060200180831161106057829003601f168201915b5050505050815260200182600801805461109690614100565b80601f01602080910402602001604051908101604052809291908181526020018280546110c290614100565b801561110f5780601f106110e45761010080835404028352916020019161110f565b820191906000526020600020905b8154815290600101906020018083116110f257829003601f168201915b505050505081525094506040518060c0016040528082600601805461113390614100565b80601f016020809104026020016040519081016040528092919081815260200182805461115f90614100565b80156111ac5780601f10611181576101008083540402835291602001916111ac565b820191906000526020600020905b81548152906001019060200180831161118f57829003601f168201915b505050505081526020018260070180546111c590614100565b80601f01602080910402602001604051908101604052809291908181526020018280546111f190614100565b801561123e5780601f106112135761010080835404028352916020019161123e565b820191906000526020600020905b81548152906001019060200180831161122157829003601f168201915b5050505050815260200182600901805461125790614100565b80601f016020809104026020016040519081016040528092919081815260200182805461128390614100565b80156112d05780601f106112a5576101008083540402835291602001916112d0565b820191906000526020600020905b8154815290600101906020018083116112b357829003601f168201915b5050505050815260200182600f0180546112e990614100565b80601f016020809104026020016040519081016040528092919081815260200182805461131590614100565b80156113625780601f1061133757610100808354040283529160200191611362565b820191906000526020600020905b81548152906001019060200180831161134557829003601f168201915b5050505050815260200182601001805480602002602001604051908101604052809291908181526020016000905b8282101561143c5783829060005260206000200180546113af90614100565b80601f01602080910402602001604051908101604052809291908181526020018280546113db90614100565b80156114285780601f106113fd57610100808354040283529160200191611428565b820191906000526020600020905b81548152906001019060200180831161140b57829003601f168201915b505050505081526020019060010190611390565b50505050815260200182601101805461145490614100565b80601f016020809104026020016040519081016040528092919081815260200182805461148090614100565b80156114cd5780601f106114a2576101008083540402835291602001916114cd565b820191906000526020600020905b8154815290600101906020018083116114b057829003601f168201915b505050505081525093506040518060a0016040528082600a0180546114f190614100565b80601f016020809104026020016040519081016040528092919081815260200182805461151d90614100565b801561156a5780601f1061153f5761010080835404028352916020019161156a565b820191906000526020600020905b81548152906001019060200180831161154d57829003601f168201915b5050505050815260200182600b01805461158390614100565b80601f01602080910402602001604051908101604052809291908181526020018280546115af90614100565b80156115fc5780601f106115d1576101008083540402835291602001916115fc565b820191906000526020600020905b8154815290600101906020018083116115df57829003601f168201915b5050505050815260200182600c01805461161590614100565b80601f016020809104026020016040519081016040528092919081815260200182805461164190614100565b801561168e5780601f106116635761010080835404028352916020019161168e565b820191906000526020600020905b81548152906001019060200180831161167157829003601f168201915b5050505050815260200182600d0180546116a790614100565b80601f01602080910402602001604051908101604052809291908181526020018280546116d390614100565b80156117205780601f106116f557610100808354040283529160200191611720565b820191906000526020600020905b81548152906001019060200180831161170357829003601f168201915b5050505050815260200182600e01805461173990614100565b80601f016020809104026020016040519081016040528092919081815260200182805461176590614100565b80156117b25780601f10611787576101008083540402835291602001916117b2565b820191906000526020600020905b81548152906001019060200180831161179557829003601f168201915b50505050508152509250806014016040518060a00160405290816000820160009054906101000a900460ff161515151581526020016000820160019054906101000a900460ff161515151581526020016000820160029054906101000a900460ff161515151581526020016000820160039054906101000a900460ff161515151581526020016000820160049054906101000a900460ff1615151515815250509150509193509193565b600560009054906101000a900473ffffffffffffffffffffffffffffffffffffffff1681565b84600881604051611893919061404e565b908152602001604051809103902060009054906101000a900460ff16156118ef576040517f08c379a00000000000000000000000000000000000000000000000000000000081526004016118e6906141e9565b60405180910390fd5b6000600687604051611901919061404e565b90815260200160405180910390209050856000015181600001908161192691906143ab565b50856020015181600101908161193c91906143ab565b508681600201908161194e91906143ab565b50856040015181600301908161196491906143ab565b50856060015181600401908161197a91906143ab565b50856080015181600501908161199091906143ab565b508560a001518160080190816119a691906143ab565b5084600001518160060190816119bc91906143ab565b5084602001518160070190816119d291906143ab565b5084604001518160090190816119e891906143ab565b50836000015181600a0190816119fe91906143ab565b50836020015181600b019081611a1491906143ab565b50836040015181600c019081611a2a91906143ab565b50836060015181600d019081611a4091906143ab565b50836080015181600e019081611a5691906143ab565b50846060015181600f019081611a6c91906143ab565b508460800151816010019080519060200190611a89929190612534565b508460a00151816011019081611a9f91906143ab565b5060018160120160006101000a81548160ff021916908315150217905550828160140160008201518160000160006101000a81548160ff02191690831515021790555060208201518160000160016101000a81548160ff02191690831515021790555060408201518160000160026101000a81548160ff02191690831515021790555060608201518160000160036101000a81548160ff02191690831515021790555060808201518160000160046101000a81548160ff0219169083151502179055509050506001600888604051611b77919061404e565b908152602001604051809103902060006101000a81548160ff02191690831515021790555086600760003373ffffffffffffffffffffffffffffffffffffffff1673ffffffffffffffffffffffffffffffffffffffff1681526020019081526020016000209081611be891906143ab565b50611bf1611d2f565b5050505050505050565b600686604051611c0b919061404e565b908152602001604051809103902060120160009054906101000a900460ff16611c69576040517f08c379a0000000000000000000000000000000000000000000000000000000008152600401611c60906140b1565b60405180910390fd5b6000600687604051611c7b919061404e565b90815260200160405180910390209050858160140160000160006101000a81548160ff021916908315150217905550848160140160000160016101000a81548160ff021916908315150217905550838160140160000160026101000a81548160ff021916908315150217905550828160140160000160036101000a81548160ff021916908315150217905550818160140160000160046101000a81548160ff02191690831515021790555050505050505050565b60006002547f000000000000000000000000000000000000000000000000000000000000000073ffffffffffffffffffffffffffffffffffffffff166370a08231306040518263ffffffff1660e01b8152600401611d8d91906126c6565b602060405180830381865afa158015611daa573d6000803e3d6000fd5b505050506040513d601f19601f82011682018060405250810190611dce9190614492565b1015611e0f576040517f08c379a0000000000000000000000000000000000000000000000000000000008152600401611e069061450b565b60405180910390fd5b611e1d6001546002546122a1565b9050336003600083815260200190815260200160002060006101000a81548173ffffffffffffffffffffffffffffffffffffffff021916908373ffffffffffffffffffffffffffffffffffffffff16021790555090565b6060600760008373ffffffffffffffffffffffffffffffffffffffff1673ffffffffffffffffffffffffffffffffffffffff1681526020019081526020016000208054611ec090614100565b80601f0160208091040260200160405190810160405280929190818152602001828054611eec90614100565b8015611f395780601f10611f0e57610100808354040283529160200191611f39565b820191906000526020600020905b815481529060010190602001808311611f1c57829003601f168201915b50505050509050919050565b60046020528060005260406000206000915090505481565b600685604051611f6d919061404e565b908152602001604051809103902060120160009054906101000a900460ff16611fcb576040517f08c379a0000000000000000000000000000000000000000000000000000000008152600401611fc2906140b1565b60405180910390fd5b6000600686604051611fdd919061404e565b90815260200160405180910390209050846000015181600001908161200291906143ab565b50846020015181600101908161201891906143ab565b50846040015181600301908161202e91906143ab565b50846060015181600401908161204491906143ab565b50846080015181600501908161205a91906143ab565b508460a0015181600801908161207091906143ab565b50836000015181600601908161208691906143ab565b50836020015181600701908161209c91906143ab565b5083604001518160090190816120b291906143ab565b50826000015181600a0190816120c891906143ab565b50826020015181600b0190816120de91906143ab565b50826040015181600c0190816120f491906143ab565b50826060015181600d01908161210a91906143ab565b50826080015181600e01908161212091906143ab565b50836060015181600f01908161213691906143ab565b508360800151816010019080519060200190612153929190612534565b508360a0015181601101908161216991906143ab565b50818160140160008201518160000160006101000a81548160ff02191690831515021790555060208201518160000160016101000a81548160ff02191690831515021790555060408201518160000160026101000a81548160ff02191690831515021790555060608201518160000160036101000a81548160ff02191690831515021790555060808201518160000160046101000a81548160ff021916908315150217905550905050505050505050565b600081905060006003600085815260200190815260200160002060009054906101000a900473ffffffffffffffffffffffffffffffffffffffff16905081600460008373ffffffffffffffffffffffffffffffffffffffff1673ffffffffffffffffffffffffffffffffffffffff1681526020019081526020016000208190555050505050565b60007f000000000000000000000000000000000000000000000000000000000000000073ffffffffffffffffffffffffffffffffffffffff16634000aea07f00000000000000000000000000000000000000000000000000000000000000008486600060405160200161231592919061452b565b6040516020818303038152906040526040518463ffffffff1660e01b81526004016123429392919061459e565b6020604051808303816000875af1158015612361573d6000803e3d6000fd5b505050506040513d601f19601f820116820180604052508101906123859190613f79565b5060006123a784600030600080898152602001908152602001600020546123f1565b90506001600080868152602001908152602001600020546123c8919061460b565b600080868152602001908152602001600020819055506123e8848261242d565b91505092915050565b60008484848460405160200161240a949392919061463f565b6040516020818303038152906040528051906020012060001c9050949350505050565b600082826040516020016124429291906146c6565b60405160208183030381529060405280519060200120905092915050565b6040518060a001604052806000151581526020016000151581526020016000151581526020016000151581526020016000151581525090565b6040518060c001604052806060815260200160608152602001606081526020016060815260200160608152602001606081525090565b6040518060c001604052806060815260200160608152602001606081526020016060815260200160608152602001606081525090565b6040518060a0016040528060608152602001606081526020016060815260200160608152602001606081525090565b82805482825590600052602060002090810192821561257c579160200282015b8281111561257b57825182908161256b91906143ab565b5091602001919060010190612554565b5b509050612589919061258d565b5090565b5b808211156125ad57600081816125a491906125b1565b5060010161258e565b5090565b5080546125bd90614100565b6000825580601f106125cf57506125ee565b601f0160209004906000526020600020908101906125ed91906125f1565b5b50565b5b8082111561260a5760008160009055506001016125f2565b5090565b6000604051905090565b600080fd5b600080fd5b6000819050919050565b61263581612622565b811461264057600080fd5b50565b6000813590506126528161262c565b92915050565b60006020828403121561266e5761266d612618565b5b600061267c84828501612643565b91505092915050565b600073ffffffffffffffffffffffffffffffffffffffff82169050919050565b60006126b082612685565b9050919050565b6126c0816126a5565b82525050565b60006020820190506126db60008301846126b7565b92915050565b600080fd5b6000601f19601f8301169050919050565b7f4e487b7100000000000000000000000000000000000000000000000000000000600052604160045260246000fd5b61272f826126e6565b810181811067ffffffffffffffff8211171561274e5761274d6126f7565b5b80604052505050565b600061276161260e565b905061276d8282612726565b919050565b600067ffffffffffffffff82111561278d5761278c6126f7565b5b602082029050602081019050919050565b600080fd5b600080fd5b600067ffffffffffffffff8211156127c3576127c26126f7565b5b6127cc826126e6565b9050602081019050919050565b82818337600083830152505050565b60006127fb6127f6846127a8565b612757565b905082815260208101848484011115612817576128166127a3565b5b6128228482856127d9565b509392505050565b600082601f83011261283f5761283e6126e1565b5b813561284f8482602086016127e8565b91505092915050565b600061286b61286684612772565b612757565b9050808382526020820190506020840283018581111561288e5761288d61279e565b5b835b818110156128d557803567ffffffffffffffff8111156128b3576128b26126e1565b5b8086016128c0898261282a565b85526020850194505050602081019050612890565b5050509392505050565b600082601f8301126128f4576128f36126e1565b5b8135612904848260208601612858565b91505092915050565b600067ffffffffffffffff821115612928576129276126f7565b5b602082029050602081019050919050565b600080fd5b600080fd5b600060c0828403121561295957612958612939565b5b61296360c0612757565b9050600082013567ffffffffffffffff8111156129835761298261293e565b5b61298f8482850161282a565b600083015250602082013567ffffffffffffffff8111156129b3576129b261293e565b5b6129bf8482850161282a565b602083015250604082013567ffffffffffffffff8111156129e3576129e261293e565b5b6129ef8482850161282a565b604083015250606082013567ffffffffffffffff811115612a1357612a1261293e565b5b612a1f8482850161282a565b606083015250608082013567ffffffffffffffff811115612a4357612a4261293e565b5b612a4f8482850161282a565b60808301525060a082013567ffffffffffffffff811115612a7357612a7261293e565b5b612a7f8482850161282a565b60a08301525092915050565b6000612a9e612a998461290d565b612757565b90508083825260208201905060208402830185811115612ac157612ac061279e565b5b835b81811015612b0857803567ffffffffffffffff811115612ae657612ae56126e1565b5b808601612af38982612943565b85526020850194505050602081019050612ac3565b5050509392505050565b600082601f830112612b2757612b266126e1565b5b8135612b37848260208601612a8b565b91505092915050565b600067ffffffffffffffff821115612b5b57612b5a6126f7565b5b602082029050602081019050919050565b600060c08284031215612b8257612b81612939565b5b612b8c60c0612757565b9050600082013567ffffffffffffffff811115612bac57612bab61293e565b5b612bb88482850161282a565b600083015250602082013567ffffffffffffffff811115612bdc57612bdb61293e565b5b612be88482850161282a565b602083015250604082013567ffffffffffffffff811115612c0c57612c0b61293e565b5b612c188482850161282a565b604083015250606082013567ffffffffffffffff811115612c3c57612c3b61293e565b5b612c488482850161282a565b606083015250608082013567ffffffffffffffff811115612c6c57612c6b61293e565b5b612c78848285016128df565b60808301525060a082013567ffffffffffffffff811115612c9c57612c9b61293e565b5b612ca88482850161282a565b60a08301525092915050565b6000612cc7612cc284612b40565b612757565b90508083825260208201905060208402830185811115612cea57612ce961279e565b5b835b81811015612d3157803567ffffffffffffffff811115612d0f57612d0e6126e1565b5b808601612d1c8982612b6c565b85526020850194505050602081019050612cec565b5050509392505050565b600082601f830112612d5057612d4f6126e1565b5b8135612d60848260208601612cb4565b91505092915050565b600067ffffffffffffffff821115612d8457612d836126f7565b5b602082029050602081019050919050565b600060a08284031215612dab57612daa612939565b5b612db560a0612757565b9050600082013567ffffffffffffffff811115612dd557612dd461293e565b5b612de18482850161282a565b600083015250602082013567ffffffffffffffff811115612e0557612e0461293e565b5b612e118482850161282a565b602083015250604082013567ffffffffffffffff811115612e3557612e3461293e565b5b612e418482850161282a565b604083015250606082013567ffffffffffffffff811115612e6557612e6461293e565b5b612e718482850161282a565b606083015250608082013567ffffffffffffffff811115612e9557612e9461293e565b5b612ea18482850161282a565b60808301525092915050565b6000612ec0612ebb84612d69565b612757565b90508083825260208201905060208402830185811115612ee357612ee261279e565b5b835b81811015612f2a57803567ffffffffffffffff811115612f0857612f076126e1565b5b808601612f158982612d95565b85526020850194505050602081019050612ee5565b5050509392505050565b600082601f830112612f4957612f486126e1565b5b8135612f59848260208601612ead565b91505092915050565b600067ffffffffffffffff821115612f7d57612f7c6126f7565b5b602082029050602081019050919050565b60008115159050919050565b612fa381612f8e565b8114612fae57600080fd5b50565b600081359050612fc081612f9a565b92915050565b600060a08284031215612fdc57612fdb612939565b5b612fe660a0612757565b90506000612ff684828501612fb1565b600083015250602061300a84828501612fb1565b602083015250604061301e84828501612fb1565b604083015250606061303284828501612fb1565b606083015250608061304684828501612fb1565b60808301525092915050565b600061306561306084612f62565b612757565b90508083825260208201905060a084028301858111156130885761308761279e565b5b835b818110156130b1578061309d8882612fc6565b84526020840193505060a08101905061308a565b5050509392505050565b600082601f8301126130d0576130cf6126e1565b5b81356130e0848260208601613052565b91505092915050565b600080600080600060a0868803121561310557613104612618565b5b600086013567ffffffffffffffff8111156131235761312261261d565b5b61312f888289016128df565b955050602086013567ffffffffffffffff8111156131505761314f61261d565b5b61315c88828901612b12565b945050604086013567ffffffffffffffff81111561317d5761317c61261d565b5b61318988828901612d3b565b935050606086013567ffffffffffffffff8111156131aa576131a961261d565b5b6131b688828901612f34565b925050608086013567ffffffffffffffff8111156131d7576131d661261d565b5b6131e3888289016130bb565b9150509295509295909350565b60006020828403121561320657613205612618565b5b600082013567ffffffffffffffff8111156132245761322361261d565b5b6132308482850161282a565b91505092915050565b61324281612f8e565b82525050565b60a08201600082015161325e6000850182613239565b5060208201516132716020850182613239565b5060408201516132846040850182613239565b5060608201516132976060850182613239565b5060808201516132aa6080850182613239565b50505050565b600060a0820190506132c56000830184613248565b92915050565b6000819050919050565b6132de816132cb565b81146132e957600080fd5b50565b6000813590506132fb816132d5565b92915050565b6000806040838503121561331857613317612618565b5b600083013567ffffffffffffffff8111156133365761333561261d565b5b6133428582860161282a565b9250506020613353858286016132ec565b9150509250929050565b600081519050919050565b600082825260208201905092915050565b6000819050602082019050919050565b613392816132cb565b82525050565b60006133a48383613389565b60208301905092915050565b6000602082019050919050565b60006133c88261335d565b6133d28185613368565b93506133dd83613379565b8060005b8381101561340e5781516133f58882613398565b9750613400836133b0565b9250506001810190506133e1565b5085935050505092915050565b6000602082019050818103600083015261343581846133bd565b905092915050565b613446816126a5565b811461345157600080fd5b50565b6000813590506134638161343d565b92915050565b60006020828403121561347f5761347e612618565b5b600061348d84828501613454565b91505092915050565b600081519050919050565b600082825260208201905092915050565b60005b838110156134d05780820151818401526020810190506134b5565b60008484015250505050565b60006134e782613496565b6134f181856134a1565b93506135018185602086016134b2565b61350a816126e6565b840191505092915050565b600060c083016000830151848203600086015261353282826134dc565b9150506020830151848203602086015261354c82826134dc565b9150506040830151848203604086015261356682826134dc565b9150506060830151848203606086015261358082826134dc565b9150506080830151848203608086015261359a82826134dc565b91505060a083015184820360a08601526135b482826134dc565b9150508091505092915050565b600081519050919050565b600082825260208201905092915050565b6000819050602082019050919050565b60006135f983836134dc565b905092915050565b6000602082019050919050565b6000613619826135c1565b61362381856135cc565b935083602082028501613635856135dd565b8060005b85811015613671578484038952815161365285826135ed565b945061365d83613601565b925060208a01995050600181019050613639565b50829750879550505050505092915050565b600060c08301600083015184820360008601526136a082826134dc565b915050602083015184820360208601526136ba82826134dc565b915050604083015184820360408601526136d482826134dc565b915050606083015184820360608601526136ee82826134dc565b91505060808301518482036080860152613708828261360e565b91505060a083015184820360a086015261372282826134dc565b9150508091505092915050565b600060a083016000830151848203600086015261374c82826134dc565b9150506020830151848203602086015261376682826134dc565b9150506040830151848203604086015261378082826134dc565b9150506060830151848203606086015261379a82826134dc565b915050608083015184820360808601526137b482826134dc565b9150508091505092915050565b60006101008201905081810360008301526137dc8187613515565b905081810360208301526137f08186613683565b90508181036040830152613804818561372f565b90506138136060830184613248565b95945050505050565b6000806040838503121561383357613832612618565b5b600061384185828601612643565b9250506020613852858286016132ec565b9150509250929050565b6000819050919050565b600061388161387c61387784612685565b61385c565b612685565b9050919050565b600061389382613866565b9050919050565b60006138a582613888565b9050919050565b6138b58161389a565b82525050565b60006020820190506138d060008301846138ac565b92915050565b600080600080600061012086880312156138f3576138f2612618565b5b600086013567ffffffffffffffff8111156139115761391061261d565b5b61391d8882890161282a565b955050602086013567ffffffffffffffff81111561393e5761393d61261d565b5b61394a88828901612943565b945050604086013567ffffffffffffffff81111561396b5761396a61261d565b5b61397788828901612b6c565b935050606086013567ffffffffffffffff8111156139985761399761261d565b5b6139a488828901612d95565b92505060806139b588828901612fc6565b9150509295509295909350565b60008060008060008060c087890312156139df576139de612618565b5b600087013567ffffffffffffffff8111156139fd576139fc61261d565b5b613a0989828a0161282a565b9650506020613a1a89828a01612fb1565b9550506040613a2b89828a01612fb1565b9450506060613a3c89828a01612fb1565b9350506080613a4d89828a01612fb1565b92505060a0613a5e89828a01612fb1565b9150509295509295509295565b613a7481612622565b82525050565b6000602082019050613a8f6000830184613a6b565b92915050565b600082825260208201905092915050565b6000613ab182613496565b613abb8185613a95565b9350613acb8185602086016134b2565b613ad4816126e6565b840191505092915050565b60006020820190508181036000830152613af98184613aa6565b905092915050565b613b0a816132cb565b82525050565b6000602082019050613b256000830184613b01565b92915050565b7f496e70757420617272617973206d7573742068617665207468652073616d652060008201527f6c656e6774680000000000000000000000000000000000000000000000000000602082015250565b6000613b87602683613a95565b9150613b9282613b2b565b604082019050919050565b60006020820190508181036000830152613bb681613b7a565b9050919050565b7f4e487b7100000000000000000000000000000000000000000000000000000000600052603260045260246000fd5b6000610120820190508181036000830152613c078188613aa6565b90508181036020830152613c1b8187613515565b90508181036040830152613c2f8186613683565b90508181036060830152613c43818561372f565b9050613c526080830184613248565b9695505050505050565b600081519050919050565b600082825260208201905092915050565b6000819050602082019050919050565b613c91816126a5565b82525050565b6000613ca38383613c88565b60208301905092915050565b6000602082019050919050565b6000613cc782613c5c565b613cd18185613c67565b9350613cdc83613c78565b8060005b83811015613d0d578151613cf48882613c97565b9750613cff83613caf565b925050600181019050613ce0565b5085935050505092915050565b600081519050919050565b600082825260208201905092915050565b6000819050602082019050919050565b600081519050919050565b600082825260208201905092915050565b6000613d6d82613d46565b613d778185613d51565b9350613d878185602086016134b2565b613d90816126e6565b840191505092915050565b6000613da78383613d62565b905092915050565b6000602082019050919050565b6000613dc782613d1a565b613dd18185613d25565b935083602082028501613de385613d36565b8060005b85811015613e1f5784840389528151613e008582613d9b565b9450613e0b83613daf565b925060208a01995050600181019050613de7565b50829750879550505050505092915050565b600081519050919050565b600082825260208201905092915050565b6000819050602082019050919050565b600067ffffffffffffffff82169050919050565b613e7a81613e5d565b82525050565b6000613e8c8383613e71565b60208301905092915050565b6000602082019050919050565b6000613eb082613e31565b613eba8185613e3c565b9350613ec583613e4d565b8060005b83811015613ef6578151613edd8882613e80565b9750613ee883613e98565b925050600181019050613ec9565b5085935050505092915050565b60006080820190508181036000830152613f1d8187613cbc565b90508181036020830152613f3181866133bd565b90508181036040830152613f458185613dbc565b90508181036060830152613f598184613ea5565b905095945050505050565b600081519050613f7381612f9a565b92915050565b600060208284031215613f8f57613f8e612618565b5b6000613f9d84828501613f64565b91505092915050565b7f4261746368207472616e73616374696f6e206661696c65640000000000000000600082015250565b6000613fdc601883613a95565b9150613fe782613fa6565b602082019050919050565b6000602082019050818103600083015261400b81613fcf565b9050919050565b600081905092915050565b600061402882613496565b6140328185614012565b93506140428185602086016134b2565b80840191505092915050565b600061405a828461401d565b915081905092915050565b7f5573657220646f6573206e6f742065786973742e000000000000000000000000600082015250565b600061409b601483613a95565b91506140a682614065565b602082019050919050565b600060208201905081810360008301526140ca8161408e565b9050919050565b7f4e487b7100000000000000000000000000000000000000000000000000000000600052602260045260246000fd5b6000600282049050600182168061411857607f821691505b60208210810361412b5761412a6140d1565b5b50919050565b7f4f6e6c7920565246436f6f7264696e61746f722063616e2066756c66696c6c00600082015250565b6000614167601f83613a95565b915061417282614131565b602082019050919050565b600060208201905081810360008301526141968161415a565b9050919050565b7f557365726e616d6520616c7265616479206578697374732e0000000000000000600082015250565b60006141d3601883613a95565b91506141de8261419d565b602082019050919050565b60006020820190508181036000830152614202816141c6565b9050919050565b60008190508160005260206000209050919050565b60006020601f8301049050919050565b600082821b905092915050565b60006008830261426b7fffffffffffffffffffffffffffffffffffffffffffffffffffffffffffffffff8261422e565b614275868361422e565b95508019841693508086168417925050509392505050565b60006142a86142a361429e846132cb565b61385c565b6132cb565b9050919050565b6000819050919050565b6142c28361428d565b6142d66142ce826142af565b84845461423b565b825550505050565b600090565b6142eb6142de565b6142f68184846142b9565b505050565b5b8181101561431a5761430f6000826142e3565b6001810190506142fc565b5050565b601f82111561435f5761433081614209565b6143398461421e565b81016020851015614348578190505b61435c6143548561421e565b8301826142fb565b50505b505050565b600082821c905092915050565b600061438260001984600802614364565b1980831691505092915050565b600061439b8383614371565b9150826002028217905092915050565b6143b482613496565b67ffffffffffffffff8111156143cd576143cc6126f7565b5b6143d78254614100565b6143e282828561431e565b600060209050601f8311600181146144155760008415614403578287015190505b61440d858261438f565b865550614475565b601f19841661442386614209565b60005b8281101561444b57848901518255600182019150602085019450602081019050614426565b868310156144685784890151614464601f891682614371565b8355505b6001600288020188555050505b505050505050565b60008151905061448c816132d5565b92915050565b6000602082840312156144a8576144a7612618565b5b60006144b68482850161447d565b91505092915050565b7f4e6f7420656e6f756768204c494e4b0000000000000000000000000000000000600082015250565b60006144f5600f83613a95565b9150614500826144bf565b602082019050919050565b60006020820190508181036000830152614524816144e8565b9050919050565b60006040820190506145406000830185613a6b565b61454d6020830184613b01565b9392505050565b600082825260208201905092915050565b600061457082613d46565b61457a8185614554565b935061458a8185602086016134b2565b614593816126e6565b840191505092915050565b60006060820190506145b360008301866126b7565b6145c06020830185613b01565b81810360408301526145d28184614565565b9050949350505050565b7f4e487b7100000000000000000000000000000000000000000000000000000000600052601160045260246000fd5b6000614616826132cb565b9150614621836132cb565b9250828201905080821115614639576146386145dc565b5b92915050565b60006080820190506146546000830187613a6b565b6146616020830186613b01565b61466e60408301856126b7565b61467b6060830184613b01565b95945050505050565b6000819050919050565b61469f61469a82612622565b614684565b82525050565b6000819050919050565b6146c06146bb826132cb565b6146a5565b82525050565b60006146d2828561468e565b6020820191506146e282846146af565b602082019150819050939250505056fea26469706673582212204b784b551390f4a4bf4914ee4bbdede9b6fbc845e221a68119116879c8b4786d64736f6c63430008180033","opcodes":"PUSH1 0xC0 PUSH1 0x40 MSTORE CALLVALUE DUP1 ISZERO PUSH3 0x11 JUMPI PUSH1 0x0 DUP1 REVERT JUMPDEST POP PUSH1 0x40 MLOAD PUSH3 0x49C1 CODESIZE SUB DUP1 PUSH3 0x49C1 DUP4 CODECOPY DUP2 DUP2 ADD PUSH1 0x40 MSTORE DUP2 ADD SWAP1 PUSH3 0x37 SWAP2 SWAP1 PUSH3 0x1DD JUMP JUMPDEST DUP5 DUP5 DUP2 PUSH20 0xFFFFFFFFFFFFFFFFFFFFFFFFFFFFFFFFFFFFFFFF AND PUSH1 0xA0 DUP2 PUSH20 0xFFFFFFFFFFFFFFFFFFFFFFFFFFFFFFFFFFFFFFFF AND DUP2 MSTORE POP POP DUP1 PUSH20 0xFFFFFFFFFFFFFFFFFFFFFFFFFFFFFFFFFFFFFFFF AND PUSH1 0x80 DUP2 PUSH20 0xFFFFFFFFFFFFFFFFFFFFFFFFFFFFFFFFFFFFFFFF AND DUP2 MSTORE POP POP POP POP DUP3 PUSH1 0x1 DUP2 SWAP1 SSTORE POP DUP2 PUSH1 0x2 DUP2 SWAP1 SSTORE POP DUP1 PUSH1 0x5 PUSH1 0x0 PUSH2 0x100 EXP DUP2 SLOAD DUP2 PUSH20 0xFFFFFFFFFFFFFFFFFFFFFFFFFFFFFFFFFFFFFFFF MUL NOT AND SWAP1 DUP4 PUSH20 0xFFFFFFFFFFFFFFFFFFFFFFFFFFFFFFFFFFFFFFFF AND MUL OR SWAP1 SSTORE POP POP POP POP POP POP PUSH3 0x265 JUMP JUMPDEST PUSH1 0x0 DUP1 REVERT JUMPDEST PUSH1 0x0 PUSH20 0xFFFFFFFFFFFFFFFFFFFFFFFFFFFFFFFFFFFFFFFF DUP3 AND SWAP1 POP SWAP2 SWAP1 POP JUMP JUMPDEST PUSH1 0x0 PUSH3 0x12F DUP3 PUSH3 0x102 JUMP JUMPDEST SWAP1 POP SWAP2 SWAP1 POP JUMP JUMPDEST PUSH3 0x141 DUP2 PUSH3 0x122 JUMP JUMPDEST DUP2 EQ PUSH3 0x14D JUMPI PUSH1 0x0 DUP1 REVERT JUMPDEST POP JUMP JUMPDEST PUSH1 0x0 DUP2 MLOAD SWAP1 POP PUSH3 0x161 DUP2 PUSH3 0x136 JUMP JUMPDEST SWAP3 SWAP2 POP POP JUMP JUMPDEST PUSH1 0x0 DUP2 SWAP1 POP SWAP2 SWAP1 POP JUMP JUMPDEST PUSH3 0x17C DUP2 PUSH3 0x167 JUMP JUMPDEST DUP2 EQ PUSH3 0x188 JUMPI PUSH1 0x0 DUP1 REVERT JUMPDEST POP JUMP JUMPDEST PUSH1 0x0 DUP2 MLOAD SWAP1 POP PUSH3 0x19C DUP2 PUSH3 0x171 JUMP JUMPDEST SWAP3 SWAP2 POP POP JUMP JUMPDEST PUSH1 0x0 DUP2 SWAP1 POP SWAP2 SWAP1 POP JUMP JUMPDEST PUSH3 0x1B7 DUP2 PUSH3 0x1A2 JUMP JUMPDEST DUP2 EQ PUSH3 0x1C3 JUMPI PUSH1 0x0 DUP1 REVERT JUMPDEST POP JUMP JUMPDEST PUSH1 0x0 DUP2 MLOAD SWAP1 POP PUSH3 0x1D7 DUP2 PUSH3 0x1AC JUMP JUMPDEST SWAP3 SWAP2 POP POP JUMP JUMPDEST PUSH1 0x0 DUP1 PUSH1 0x0 DUP1 PUSH1 0x0 PUSH1 0xA0 DUP7 DUP9 SUB SLT ISZERO PUSH3 0x1FC JUMPI PUSH3 0x1FB PUSH3 0xFD JUMP JUMPDEST JUMPDEST PUSH1 0x0 PUSH3 0x20C DUP9 DUP3 DUP10 ADD PUSH3 0x150 JUMP JUMPDEST SWAP6 POP POP PUSH1 0x20 PUSH3 0x21F DUP9 DUP3 DUP10 ADD PUSH3 0x150 JUMP JUMPDEST SWAP5 POP POP PUSH1 0x40 PUSH3 0x232 DUP9 DUP3 DUP10 ADD PUSH3 0x18B JUMP JUMPDEST SWAP4 POP POP PUSH1 0x60 PUSH3 0x245 DUP9 DUP3 DUP10 ADD PUSH3 0x1C6 JUMP JUMPDEST SWAP3 POP POP PUSH1 0x80 PUSH3 0x258 DUP9 DUP3 DUP10 ADD PUSH3 0x150 JUMP JUMPDEST SWAP2 POP POP SWAP3 SWAP6 POP SWAP3 SWAP6 SWAP1 SWAP4 POP JUMP JUMPDEST PUSH1 0x80 MLOAD PUSH1 0xA0 MLOAD PUSH2 0x4728 PUSH3 0x299 PUSH1 0x0 CODECOPY PUSH1 0x0 DUP2 DUP2 PUSH2 0xC58 ADD MSTORE PUSH2 0x22E1 ADD MSTORE PUSH1 0x0 DUP2 DUP2 PUSH2 0x1D36 ADD MSTORE PUSH2 0x22A5 ADD MSTORE PUSH2 0x4728 PUSH1 0x0 RETURN INVALID PUSH1 0x80 PUSH1 0x40 MSTORE CALLVALUE DUP1 ISZERO PUSH2 0x10 JUMPI PUSH1 0x0 DUP1 REVERT JUMPDEST POP PUSH1 0x4 CALLDATASIZE LT PUSH2 0xF5 JUMPI PUSH1 0x0 CALLDATALOAD PUSH1 0xE0 SHR DUP1 PUSH4 0x9F42AF63 GT PUSH2 0x97 JUMPI DUP1 PUSH4 0xD981FBBE GT PUSH2 0x66 JUMPI DUP1 PUSH4 0xD981FBBE EQ PUSH2 0x29A JUMPI DUP1 PUSH4 0xED1A998D EQ PUSH2 0x2B8 JUMPI DUP1 PUSH4 0xF789C0A1 EQ PUSH2 0x2E8 JUMPI DUP1 PUSH4 0xF86A29C7 EQ PUSH2 0x318 JUMPI PUSH2 0xF5 JUMP JUMPDEST DUP1 PUSH4 0x9F42AF63 EQ PUSH2 0x211 JUMPI DUP1 PUSH4 0xAF713566 EQ PUSH2 0x244 JUMPI DUP1 PUSH4 0xBB6228B0 EQ PUSH2 0x262 JUMPI DUP1 PUSH4 0xD1577CAC EQ PUSH2 0x27E JUMPI PUSH2 0xF5 JUMP JUMPDEST DUP1 PUSH4 0x49110A6B GT PUSH2 0xD3 JUMPI DUP1 PUSH4 0x49110A6B EQ PUSH2 0x176 JUMPI DUP1 PUSH4 0x4CB51DA7 EQ PUSH2 0x192 JUMPI DUP1 PUSH4 0x69C212F6 EQ PUSH2 0x1C2 JUMPI DUP1 PUSH4 0x94985DDD EQ PUSH2 0x1F5 JUMPI PUSH2 0xF5 JUMP JUMPDEST DUP1 PUSH4 0x219C0EEE EQ PUSH2 0xFA JUMPI DUP1 PUSH4 0x2259BCA7 EQ PUSH2 0x12A JUMPI DUP1 PUSH4 0x320BA8F7 EQ PUSH2 0x146 JUMPI JUMPDEST PUSH1 0x0 DUP1 REVERT JUMPDEST PUSH2 0x114 PUSH1 0x4 DUP1 CALLDATASIZE SUB DUP2 ADD SWAP1 PUSH2 0x10F SWAP2 SWAP1 PUSH2 0x2658 JUMP JUMPDEST PUSH2 0x334 JUMP JUMPDEST PUSH1 0x40 MLOAD PUSH2 0x121 SWAP2 SWAP1 PUSH2 0x26C6 JUMP JUMPDEST PUSH1 0x40 MLOAD DUP1 SWAP2 SUB SWAP1 RETURN JUMPDEST PUSH2 0x144 PUSH1 0x4 DUP1 CALLDATASIZE SUB DUP2 ADD SWAP1 PUSH2 0x13F SWAP2 SWAP1 PUSH2 0x30E9 JUMP JUMPDEST PUSH2 0x367 JUMP JUMPDEST STOP JUMPDEST PUSH2 0x160 PUSH1 0x4 DUP1 CALLDATASIZE SUB DUP2 ADD SWAP1 PUSH2 0x15B SWAP2 SWAP1 PUSH2 0x31F0 JUMP JUMPDEST PUSH2 0x880 JUMP JUMPDEST PUSH1 0x40 MLOAD PUSH2 0x16D SWAP2 SWAP1 PUSH2 0x32B0 JUMP JUMPDEST PUSH1 0x40 MLOAD DUP1 SWAP2 SUB SWAP1 RETURN JUMPDEST PUSH2 0x190 PUSH1 0x4 DUP1 CALLDATASIZE SUB DUP2 ADD SWAP1 PUSH2 0x18B SWAP2 SWAP1 PUSH2 0x3301 JUMP JUMPDEST PUSH2 0x9B0 JUMP JUMPDEST STOP JUMPDEST PUSH2 0x1AC PUSH1 0x4 DUP1 CALLDATASIZE SUB DUP2 ADD SWAP1 PUSH2 0x1A7 SWAP2 SWAP1 PUSH2 0x31F0 JUMP JUMPDEST PUSH2 0xA6A JUMP JUMPDEST PUSH1 0x40 MLOAD PUSH2 0x1B9 SWAP2 SWAP1 PUSH2 0x341B JUMP JUMPDEST PUSH1 0x40 MLOAD DUP1 SWAP2 SUB SWAP1 RETURN JUMPDEST PUSH2 0x1DC PUSH1 0x4 DUP1 CALLDATASIZE SUB DUP2 ADD SWAP1 PUSH2 0x1D7 SWAP2 SWAP1 PUSH2 0x3469 JUMP JUMPDEST PUSH2 0xB51 JUMP JUMPDEST PUSH1 0x40 MLOAD PUSH2 0x1EC SWAP5 SWAP4 SWAP3 SWAP2 SWAP1 PUSH2 0x37C1 JUMP JUMPDEST PUSH1 0x40 MLOAD DUP1 SWAP2 SUB SWAP1 RETURN JUMPDEST PUSH2 0x20F PUSH1 0x4 DUP1 CALLDATASIZE SUB DUP2 ADD SWAP1 PUSH2 0x20A SWAP2 SWAP1 PUSH2 0x381C JUMP JUMPDEST PUSH2 0xC56 JUMP JUMPDEST STOP JUMPDEST PUSH2 0x22B PUSH1 0x4 DUP1 CALLDATASIZE SUB DUP2 ADD SWAP1 PUSH2 0x226 SWAP2 SWAP1 PUSH2 0x31F0 JUMP JUMPDEST PUSH2 0xCF2 JUMP JUMPDEST PUSH1 0x40 MLOAD PUSH2 0x23B SWAP5 SWAP4 SWAP3 SWAP2 SWAP1 PUSH2 0x37C1 JUMP JUMPDEST PUSH1 0x40 MLOAD DUP1 SWAP2 SUB SWAP1 RETURN JUMPDEST PUSH2 0x24C PUSH2 0x185C JUMP JUMPDEST PUSH1 0x40 MLOAD PUSH2 0x259 SWAP2 SWAP1 PUSH2 0x38BB JUMP JUMPDEST PUSH1 0x40 MLOAD DUP1 SWAP2 SUB SWAP1 RETURN JUMPDEST PUSH2 0x27C PUSH1 0x4 DUP1 CALLDATASIZE SUB DUP2 ADD SWAP1 PUSH2 0x277 SWAP2 SWAP1 PUSH2 0x38D6 JUMP JUMPDEST PUSH2 0x1882 JUMP JUMPDEST STOP JUMPDEST PUSH2 0x298 PUSH1 0x4 DUP1 CALLDATASIZE SUB DUP2 ADD SWAP1 PUSH2 0x293 SWAP2 SWAP1 PUSH2 0x39C2 JUMP JUMPDEST PUSH2 0x1BFB JUMP JUMPDEST STOP JUMPDEST PUSH2 0x2A2 PUSH2 0x1D2F JUMP JUMPDEST PUSH1 0x40 MLOAD PUSH2 0x2AF SWAP2 SWAP1 PUSH2 0x3A7A JUMP JUMPDEST PUSH1 0x40 MLOAD DUP1 SWAP2 SUB SWAP1 RETURN JUMPDEST PUSH2 0x2D2 PUSH1 0x4 DUP1 CALLDATASIZE SUB DUP2 ADD SWAP1 PUSH2 0x2CD SWAP2 SWAP1 PUSH2 0x3469 JUMP JUMPDEST PUSH2 0x1E74 JUMP JUMPDEST PUSH1 0x40 MLOAD PUSH2 0x2DF SWAP2 SWAP1 PUSH2 0x3ADF JUMP JUMPDEST PUSH1 0x40 MLOAD DUP1 SWAP2 SUB SWAP1 RETURN JUMPDEST PUSH2 0x302 PUSH1 0x4 DUP1 CALLDATASIZE SUB DUP2 ADD SWAP1 PUSH2 0x2FD SWAP2 SWAP1 PUSH2 0x3469 JUMP JUMPDEST PUSH2 0x1F45 JUMP JUMPDEST PUSH1 0x40 MLOAD PUSH2 0x30F SWAP2 SWAP1 PUSH2 0x3B10 JUMP JUMPDEST PUSH1 0x40 MLOAD DUP1 SWAP2 SUB SWAP1 RETURN JUMPDEST PUSH2 0x332 PUSH1 0x4 DUP1 CALLDATASIZE SUB DUP2 ADD SWAP1 PUSH2 0x32D SWAP2 SWAP1 PUSH2 0x38D6 JUMP JUMPDEST PUSH2 0x1F5D JUMP JUMPDEST STOP JUMPDEST PUSH1 0x3 PUSH1 0x20 MSTORE DUP1 PUSH1 0x0 MSTORE PUSH1 0x40 PUSH1 0x0 KECCAK256 PUSH1 0x0 SWAP2 POP SLOAD SWAP1 PUSH2 0x100 EXP SWAP1 DIV PUSH20 0xFFFFFFFFFFFFFFFFFFFFFFFFFFFFFFFFFFFFFFFF AND DUP2 JUMP JUMPDEST DUP4 MLOAD DUP6 MLOAD EQ PUSH2 0x3AB JUMPI PUSH1 0x40 MLOAD PUSH32 0x8C379A000000000000000000000000000000000000000000000000000000000 DUP2 MSTORE PUSH1 0x4 ADD PUSH2 0x3A2 SWAP1 PUSH2 0x3B9D JUMP JUMPDEST PUSH1 0x40 MLOAD DUP1 SWAP2 SUB SWAP1 REVERT JUMPDEST DUP3 MLOAD DUP5 MLOAD EQ PUSH2 0x3EF JUMPI PUSH1 0x40 MLOAD PUSH32 0x8C379A000000000000000000000000000000000000000000000000000000000 DUP2 MSTORE PUSH1 0x4 ADD PUSH2 0x3E6 SWAP1 PUSH2 0x3B9D JUMP JUMPDEST PUSH1 0x40 MLOAD DUP1 SWAP2 SUB SWAP1 REVERT JUMPDEST DUP2 MLOAD DUP4 MLOAD EQ PUSH2 0x433 JUMPI PUSH1 0x40 MLOAD PUSH32 0x8C379A000000000000000000000000000000000000000000000000000000000 DUP2 MSTORE PUSH1 0x4 ADD PUSH2 0x42A SWAP1 PUSH2 0x3B9D JUMP JUMPDEST PUSH1 0x40 MLOAD DUP1 SWAP2 SUB SWAP1 REVERT JUMPDEST DUP1 MLOAD DUP3 MLOAD EQ PUSH2 0x477 JUMPI PUSH1 0x40 MLOAD PUSH32 0x8C379A000000000000000000000000000000000000000000000000000000000 DUP2 MSTORE PUSH1 0x4 ADD PUSH2 0x46E SWAP1 PUSH2 0x3B9D JUMP JUMPDEST PUSH1 0x40 MLOAD DUP1 SWAP2 SUB SWAP1 REVERT JUMPDEST PUSH1 0x0 DUP6 MLOAD PUSH8 0xFFFFFFFFFFFFFFFF DUP2 GT ISZERO PUSH2 0x494 JUMPI PUSH2 0x493 PUSH2 0x26F7 JUMP JUMPDEST JUMPDEST PUSH1 0x40 MLOAD SWAP1 DUP1 DUP3 MSTORE DUP1 PUSH1 0x20 MUL PUSH1 0x20 ADD DUP3 ADD PUSH1 0x40 MSTORE DUP1 ISZERO PUSH2 0x4C2 JUMPI DUP2 PUSH1 0x20 ADD PUSH1 0x20 DUP3 MUL DUP1 CALLDATASIZE DUP4 CALLDATACOPY DUP1 DUP3 ADD SWAP2 POP POP SWAP1 POP JUMPDEST POP SWAP1 POP PUSH1 0x0 DUP7 MLOAD PUSH8 0xFFFFFFFFFFFFFFFF DUP2 GT ISZERO PUSH2 0x4E2 JUMPI PUSH2 0x4E1 PUSH2 0x26F7 JUMP JUMPDEST JUMPDEST PUSH1 0x40 MLOAD SWAP1 DUP1 DUP3 MSTORE DUP1 PUSH1 0x20 MUL PUSH1 0x20 ADD DUP3 ADD PUSH1 0x40 MSTORE DUP1 ISZERO PUSH2 0x510 JUMPI DUP2 PUSH1 0x20 ADD PUSH1 0x20 DUP3 MUL DUP1 CALLDATASIZE DUP4 CALLDATACOPY DUP1 DUP3 ADD SWAP2 POP POP SWAP1 POP JUMPDEST POP SWAP1 POP PUSH1 0x0 DUP8 MLOAD PUSH8 0xFFFFFFFFFFFFFFFF DUP2 GT ISZERO PUSH2 0x530 JUMPI PUSH2 0x52F PUSH2 0x26F7 JUMP JUMPDEST JUMPDEST PUSH1 0x40 MLOAD SWAP1 DUP1 DUP3 MSTORE DUP1 PUSH1 0x20 MUL PUSH1 0x20 ADD DUP3 ADD PUSH1 0x40 MSTORE DUP1 ISZERO PUSH2 0x563 JUMPI DUP2 PUSH1 0x20 ADD JUMPDEST PUSH1 0x60 DUP2 MSTORE PUSH1 0x20 ADD SWAP1 PUSH1 0x1 SWAP1 SUB SWAP1 DUP2 PUSH2 0x54E JUMPI SWAP1 POP JUMPDEST POP SWAP1 POP PUSH1 0x0 DUP9 MLOAD PUSH8 0xFFFFFFFFFFFFFFFF DUP2 GT ISZERO PUSH2 0x583 JUMPI PUSH2 0x582 PUSH2 0x26F7 JUMP JUMPDEST JUMPDEST PUSH1 0x40 MLOAD SWAP1 DUP1 DUP3 MSTORE DUP1 PUSH1 0x20 MUL PUSH1 0x20 ADD DUP3 ADD PUSH1 0x40 MSTORE DUP1 ISZERO PUSH2 0x5B1 JUMPI DUP2 PUSH1 0x20 ADD PUSH1 0x20 DUP3 MUL DUP1 CALLDATASIZE DUP4 CALLDATACOPY DUP1 DUP3 ADD SWAP2 POP POP SWAP1 POP JUMPDEST POP SWAP1 POP PUSH1 0x0 JUMPDEST DUP10 MLOAD DUP2 LT ISZERO PUSH2 0x791 JUMPI ADDRESS DUP6 DUP3 DUP2 MLOAD DUP2 LT PUSH2 0x5D4 JUMPI PUSH2 0x5D3 PUSH2 0x3BBD JUMP JUMPDEST JUMPDEST PUSH1 0x20 MUL PUSH1 0x20 ADD ADD SWAP1 PUSH20 0xFFFFFFFFFFFFFFFFFFFFFFFFFFFFFFFFFFFFFFFF AND SWAP1 DUP2 PUSH20 0xFFFFFFFFFFFFFFFFFFFFFFFFFFFFFFFFFFFFFFFF AND DUP2 MSTORE POP POP PUSH1 0x0 DUP5 DUP3 DUP2 MLOAD DUP2 LT PUSH2 0x623 JUMPI PUSH2 0x622 PUSH2 0x3BBD JUMP JUMPDEST JUMPDEST PUSH1 0x20 MUL PUSH1 0x20 ADD ADD DUP2 DUP2 MSTORE POP POP PUSH4 0xBB6228B0 PUSH1 0xE0 SHL DUP11 DUP3 DUP2 MLOAD DUP2 LT PUSH2 0x64A JUMPI PUSH2 0x649 PUSH2 0x3BBD JUMP JUMPDEST JUMPDEST PUSH1 0x20 MUL PUSH1 0x20 ADD ADD MLOAD DUP11 DUP4 DUP2 MLOAD DUP2 LT PUSH2 0x665 JUMPI PUSH2 0x664 PUSH2 0x3BBD JUMP JUMPDEST JUMPDEST PUSH1 0x20 MUL PUSH1 0x20 ADD ADD MLOAD DUP11 DUP5 DUP2 MLOAD DUP2 LT PUSH2 0x680 JUMPI PUSH2 0x67F PUSH2 0x3BBD JUMP JUMPDEST JUMPDEST PUSH1 0x20 MUL PUSH1 0x20 ADD ADD MLOAD DUP11 DUP6 DUP2 MLOAD DUP2 LT PUSH2 0x69B JUMPI PUSH2 0x69A PUSH2 0x3BBD JUMP JUMPDEST JUMPDEST PUSH1 0x20 MUL PUSH1 0x20 ADD ADD MLOAD DUP11 DUP7 DUP2 MLOAD DUP2 LT PUSH2 0x6B6 JUMPI PUSH2 0x6B5 PUSH2 0x3BBD JUMP JUMPDEST JUMPDEST PUSH1 0x20 MUL PUSH1 0x20 ADD ADD MLOAD PUSH1 0x40 MLOAD PUSH1 0x24 ADD PUSH2 0x6D2 SWAP6 SWAP5 SWAP4 SWAP3 SWAP2 SWAP1 PUSH2 0x3BEC JUMP JUMPDEST PUSH1 0x40 MLOAD PUSH1 0x20 DUP2 DUP4 SUB SUB DUP2 MSTORE SWAP1 PUSH1 0x40 MSTORE SWAP1 PUSH28 0xFFFFFFFFFFFFFFFFFFFFFFFFFFFFFFFFFFFFFFFFFFFFFFFFFFFFFFFF NOT AND PUSH1 0x20 DUP3 ADD DUP1 MLOAD PUSH28 0xFFFFFFFFFFFFFFFFFFFFFFFFFFFFFFFFFFFFFFFFFFFFFFFFFFFFFFFF DUP4 DUP2 DUP4 AND OR DUP4 MSTORE POP POP POP POP DUP4 DUP3 DUP2 MLOAD DUP2 LT PUSH2 0x742 JUMPI PUSH2 0x741 PUSH2 0x3BBD JUMP JUMPDEST JUMPDEST PUSH1 0x20 MUL PUSH1 0x20 ADD ADD DUP2 SWAP1 MSTORE POP PUSH1 0x0 DUP3 DUP3 DUP2 MLOAD DUP2 LT PUSH2 0x762 JUMPI PUSH2 0x761 PUSH2 0x3BBD JUMP JUMPDEST JUMPDEST PUSH1 0x20 MUL PUSH1 0x20 ADD ADD SWAP1 PUSH8 0xFFFFFFFFFFFFFFFF AND SWAP1 DUP2 PUSH8 0xFFFFFFFFFFFFFFFF AND DUP2 MSTORE POP POP DUP1 DUP1 PUSH1 0x1 ADD SWAP2 POP POP PUSH2 0x5B7 JUMP JUMPDEST POP PUSH1 0x5 PUSH1 0x0 SWAP1 SLOAD SWAP1 PUSH2 0x100 EXP SWAP1 DIV PUSH20 0xFFFFFFFFFFFFFFFFFFFFFFFFFFFFFFFFFFFFFFFF AND PUSH20 0xFFFFFFFFFFFFFFFFFFFFFFFFFFFFFFFFFFFFFFFF AND PUSH4 0x96E292B8 DUP6 DUP6 DUP6 DUP6 PUSH1 0x40 MLOAD DUP6 PUSH4 0xFFFFFFFF AND PUSH1 0xE0 SHL DUP2 MSTORE PUSH1 0x4 ADD PUSH2 0x7F3 SWAP5 SWAP4 SWAP3 SWAP2 SWAP1 PUSH2 0x3F03 JUMP JUMPDEST PUSH1 0x20 PUSH1 0x40 MLOAD DUP1 DUP4 SUB DUP2 PUSH1 0x0 DUP8 GAS CALL ISZERO DUP1 ISZERO PUSH2 0x812 JUMPI RETURNDATASIZE PUSH1 0x0 DUP1 RETURNDATACOPY RETURNDATASIZE PUSH1 0x0 REVERT JUMPDEST POP POP POP POP PUSH1 0x40 MLOAD RETURNDATASIZE PUSH1 0x1F NOT PUSH1 0x1F DUP3 ADD AND DUP3 ADD DUP1 PUSH1 0x40 MSTORE POP DUP2 ADD SWAP1 PUSH2 0x836 SWAP2 SWAP1 PUSH2 0x3F79 JUMP JUMPDEST PUSH2 0x875 JUMPI PUSH1 0x40 MLOAD PUSH32 0x8C379A000000000000000000000000000000000000000000000000000000000 DUP2 MSTORE PUSH1 0x4 ADD PUSH2 0x86C SWAP1 PUSH2 0x3FF2 JUMP JUMPDEST PUSH1 0x40 MLOAD DUP1 SWAP2 SUB SWAP1 REVERT JUMPDEST POP POP POP POP POP POP POP POP POP JUMP JUMPDEST PUSH2 0x888 PUSH2 0x2460 JUMP JUMPDEST PUSH1 0x6 DUP3 PUSH1 0x40 MLOAD PUSH2 0x898 SWAP2 SWAP1 PUSH2 0x404E JUMP JUMPDEST SWAP1 DUP2 MSTORE PUSH1 0x20 ADD PUSH1 0x40 MLOAD DUP1 SWAP2 SUB SWAP1 KECCAK256 PUSH1 0x12 ADD PUSH1 0x0 SWAP1 SLOAD SWAP1 PUSH2 0x100 EXP SWAP1 DIV PUSH1 0xFF AND PUSH2 0x8F6 JUMPI PUSH1 0x40 MLOAD PUSH32 0x8C379A000000000000000000000000000000000000000000000000000000000 DUP2 MSTORE PUSH1 0x4 ADD PUSH2 0x8ED SWAP1 PUSH2 0x40B1 JUMP JUMPDEST PUSH1 0x40 MLOAD DUP1 SWAP2 SUB SWAP1 REVERT JUMPDEST PUSH1 0x6 DUP3 PUSH1 0x40 MLOAD PUSH2 0x906 SWAP2 SWAP1 PUSH2 0x404E JUMP JUMPDEST SWAP1 DUP2 MSTORE PUSH1 0x20 ADD PUSH1 0x40 MLOAD DUP1 SWAP2 SUB SWAP1 KECCAK256 PUSH1 0x14 ADD PUSH1 0x40 MLOAD DUP1 PUSH1 0xA0 ADD PUSH1 0x40 MSTORE SWAP1 DUP2 PUSH1 0x0 DUP3 ADD PUSH1 0x0 SWAP1 SLOAD SWAP1 PUSH2 0x100 EXP SWAP1 DIV PUSH1 0xFF AND ISZERO ISZERO ISZERO ISZERO DUP2 MSTORE PUSH1 0x20 ADD PUSH1 0x0 DUP3 ADD PUSH1 0x1 SWAP1 SLOAD SWAP1 PUSH2 0x100 EXP SWAP1 DIV PUSH1 0xFF AND ISZERO ISZERO ISZERO ISZERO DUP2 MSTORE PUSH1 0x20 ADD PUSH1 0x0 DUP3 ADD PUSH1 0x2 SWAP1 SLOAD SWAP1 PUSH2 0x100 EXP SWAP1 DIV PUSH1 0xFF AND ISZERO ISZERO ISZERO ISZERO DUP2 MSTORE PUSH1 0x20 ADD PUSH1 0x0 DUP3 ADD PUSH1 0x3 SWAP1 SLOAD SWAP1 PUSH2 0x100 EXP SWAP1 DIV PUSH1 0xFF AND ISZERO ISZERO ISZERO ISZERO DUP2 MSTORE PUSH1 0x20 ADD PUSH1 0x0 DUP3 ADD PUSH1 0x4 SWAP1 SLOAD SWAP1 PUSH2 0x100 EXP SWAP1 DIV PUSH1 0xFF AND ISZERO ISZERO ISZERO ISZERO DUP2 MSTORE POP POP SWAP1 POP SWAP2 SWAP1 POP JUMP JUMPDEST PUSH1 0x6 DUP3 PUSH1 0x40 MLOAD PUSH2 0x9C0 SWAP2 SWAP1 PUSH2 0x404E JUMP JUMPDEST SWAP1 DUP2 MSTORE PUSH1 0x20 ADD PUSH1 0x40 MLOAD DUP1 SWAP2 SUB SWAP1 KECCAK256 PUSH1 0x12 ADD PUSH1 0x0 SWAP1 SLOAD SWAP1 PUSH2 0x100 EXP SWAP1 DIV PUSH1 0xFF AND PUSH2 0xA1E JUMPI PUSH1 0x40 MLOAD PUSH32 0x8C379A000000000000000000000000000000000000000000000000000000000 DUP2 MSTORE PUSH1 0x4 ADD PUSH2 0xA15 SWAP1 PUSH2 0x40B1 JUMP JUMPDEST PUSH1 0x40 MLOAD DUP1 SWAP2 SUB SWAP1 REVERT JUMPDEST PUSH1 0x6 DUP3 PUSH1 0x40 MLOAD PUSH2 0xA2E SWAP2 SWAP1 PUSH2 0x404E JUMP JUMPDEST SWAP1 DUP2 MSTORE PUSH1 0x20 ADD PUSH1 0x40 MLOAD DUP1 SWAP2 SUB SWAP1 KECCAK256 PUSH1 0x13 ADD DUP2 SWAP1 DUP1 PUSH1 0x1 DUP2 SLOAD ADD DUP1 DUP3 SSTORE DUP1 SWAP2 POP POP PUSH1 0x1 SWAP1 SUB SWAP1 PUSH1 0x0 MSTORE PUSH1 0x20 PUSH1 0x0 KECCAK256 ADD PUSH1 0x0 SWAP1 SWAP2 SWAP1 SWAP2 SWAP1 SWAP2 POP SSTORE POP POP JUMP JUMPDEST PUSH1 0x60 PUSH1 0x6 DUP3 PUSH1 0x40 MLOAD PUSH2 0xA7C SWAP2 SWAP1 PUSH2 0x404E JUMP JUMPDEST SWAP1 DUP2 MSTORE PUSH1 0x20 ADD PUSH1 0x40 MLOAD DUP1 SWAP2 SUB SWAP1 KECCAK256 PUSH1 0x12 ADD PUSH1 0x0 SWAP1 SLOAD SWAP1 PUSH2 0x100 EXP SWAP1 DIV PUSH1 0xFF AND PUSH2 0xADA JUMPI PUSH1 0x40 MLOAD PUSH32 0x8C379A000000000000000000000000000000000000000000000000000000000 DUP2 MSTORE PUSH1 0x4 ADD PUSH2 0xAD1 SWAP1 PUSH2 0x40B1 JUMP JUMPDEST PUSH1 0x40 MLOAD DUP1 SWAP2 SUB SWAP1 REVERT JUMPDEST PUSH1 0x6 DUP3 PUSH1 0x40 MLOAD PUSH2 0xAEA SWAP2 SWAP1 PUSH2 0x404E JUMP JUMPDEST SWAP1 DUP2 MSTORE PUSH1 0x20 ADD PUSH1 0x40 MLOAD DUP1 SWAP2 SUB SWAP1 KECCAK256 PUSH1 0x13 ADD DUP1 SLOAD DUP1 PUSH1 0x20 MUL PUSH1 0x20 ADD PUSH1 0x40 MLOAD SWAP1 DUP2 ADD PUSH1 0x40 MSTORE DUP1 SWAP3 SWAP2 SWAP1 DUP2 DUP2 MSTORE PUSH1 0x20 ADD DUP3 DUP1 SLOAD DUP1 ISZERO PUSH2 0xB45 JUMPI PUSH1 0x20 MUL DUP3 ADD SWAP2 SWAP1 PUSH1 0x0 MSTORE PUSH1 0x20 PUSH1 0x0 KECCAK256 SWAP1 JUMPDEST DUP2 SLOAD DUP2 MSTORE PUSH1 0x20 ADD SWAP1 PUSH1 0x1 ADD SWAP1 DUP1 DUP4 GT PUSH2 0xB31 JUMPI JUMPDEST POP POP POP POP POP SWAP1 POP SWAP2 SWAP1 POP JUMP JUMPDEST PUSH2 0xB59 PUSH2 0x2499 JUMP JUMPDEST PUSH2 0xB61 PUSH2 0x24CF JUMP JUMPDEST PUSH2 0xB69 PUSH2 0x2505 JUMP JUMPDEST PUSH2 0xB71 PUSH2 0x2460 JUMP JUMPDEST PUSH1 0x0 PUSH1 0x7 PUSH1 0x0 DUP8 PUSH20 0xFFFFFFFFFFFFFFFFFFFFFFFFFFFFFFFFFFFFFFFF AND PUSH20 0xFFFFFFFFFFFFFFFFFFFFFFFFFFFFFFFFFFFFFFFF AND DUP2 MSTORE PUSH1 0x20 ADD SWAP1 DUP2 MSTORE PUSH1 0x20 ADD PUSH1 0x0 KECCAK256 DUP1 SLOAD PUSH2 0xBBD SWAP1 PUSH2 0x4100 JUMP JUMPDEST DUP1 PUSH1 0x1F ADD PUSH1 0x20 DUP1 SWAP2 DIV MUL PUSH1 0x20 ADD PUSH1 0x40 MLOAD SWAP1 DUP2 ADD PUSH1 0x40 MSTORE DUP1 SWAP3 SWAP2 SWAP1 DUP2 DUP2 MSTORE PUSH1 0x20 ADD DUP3 DUP1 SLOAD PUSH2 0xBE9 SWAP1 PUSH2 0x4100 JUMP JUMPDEST DUP1 ISZERO PUSH2 0xC36 JUMPI DUP1 PUSH1 0x1F LT PUSH2 0xC0B JUMPI PUSH2 0x100 DUP1 DUP4 SLOAD DIV MUL DUP4 MSTORE SWAP2 PUSH1 0x20 ADD SWAP2 PUSH2 0xC36 JUMP JUMPDEST DUP3 ADD SWAP2 SWAP1 PUSH1 0x0 MSTORE PUSH1 0x20 PUSH1 0x0 KECCAK256 SWAP1 JUMPDEST DUP2 SLOAD DUP2 MSTORE SWAP1 PUSH1 0x1 ADD SWAP1 PUSH1 0x20 ADD DUP1 DUP4 GT PUSH2 0xC19 JUMPI DUP3 SWAP1 SUB PUSH1 0x1F AND DUP3 ADD SWAP2 JUMPDEST POP POP POP POP POP SWAP1 POP PUSH2 0xC46 DUP2 PUSH2 0xCF2 JUMP JUMPDEST SWAP5 POP SWAP5 POP SWAP5 POP SWAP5 POP POP SWAP2 SWAP4 POP SWAP2 SWAP4 JUMP JUMPDEST PUSH32 0x0 PUSH20 0xFFFFFFFFFFFFFFFFFFFFFFFFFFFFFFFFFFFFFFFF AND CALLER PUSH20 0xFFFFFFFFFFFFFFFFFFFFFFFFFFFFFFFFFFFFFFFF AND EQ PUSH2 0xCE4 JUMPI PUSH1 0x40 MLOAD PUSH32 0x8C379A000000000000000000000000000000000000000000000000000000000 DUP2 MSTORE PUSH1 0x4 ADD PUSH2 0xCDB SWAP1 PUSH2 0x417D JUMP JUMPDEST PUSH1 0x40 MLOAD DUP1 SWAP2 SUB SWAP1 REVERT JUMPDEST PUSH2 0xCEE DUP3 DUP3 PUSH2 0x221A JUMP JUMPDEST POP POP JUMP JUMPDEST PUSH2 0xCFA PUSH2 0x2499 JUMP JUMPDEST PUSH2 0xD02 PUSH2 0x24CF JUMP JUMPDEST PUSH2 0xD0A PUSH2 0x2505 JUMP JUMPDEST PUSH2 0xD12 PUSH2 0x2460 JUMP JUMPDEST PUSH1 0x6 DUP6 PUSH1 0x40 MLOAD PUSH2 0xD22 SWAP2 SWAP1 PUSH2 0x404E JUMP JUMPDEST SWAP1 DUP2 MSTORE PUSH1 0x20 ADD PUSH1 0x40 MLOAD DUP1 SWAP2 SUB SWAP1 KECCAK256 PUSH1 0x12 ADD PUSH1 0x0 SWAP1 SLOAD SWAP1 PUSH2 0x100 EXP SWAP1 DIV PUSH1 0xFF AND PUSH2 0xD80 JUMPI PUSH1 0x40 MLOAD PUSH32 0x8C379A000000000000000000000000000000000000000000000000000000000 DUP2 MSTORE PUSH1 0x4 ADD PUSH2 0xD77 SWAP1 PUSH2 0x40B1 JUMP JUMPDEST PUSH1 0x40 MLOAD DUP1 SWAP2 SUB SWAP1 REVERT JUMPDEST PUSH1 0x0 PUSH1 0x6 DUP7 PUSH1 0x40 MLOAD PUSH2 0xD92 SWAP2 SWAP1 PUSH2 0x404E JUMP JUMPDEST SWAP1 DUP2 MSTORE PUSH1 0x20 ADD PUSH1 0x40 MLOAD DUP1 SWAP2 SUB SWAP1 KECCAK256 SWAP1 POP PUSH1 0x40 MLOAD DUP1 PUSH1 0xC0 ADD PUSH1 0x40 MSTORE DUP1 DUP3 PUSH1 0x0 ADD DUP1 SLOAD PUSH2 0xDBC SWAP1 PUSH2 0x4100 JUMP JUMPDEST DUP1 PUSH1 0x1F ADD PUSH1 0x20 DUP1 SWAP2 DIV MUL PUSH1 0x20 ADD PUSH1 0x40 MLOAD SWAP1 DUP2 ADD PUSH1 0x40 MSTORE DUP1 SWAP3 SWAP2 SWAP1 DUP2 DUP2 MSTORE PUSH1 0x20 ADD DUP3 DUP1 SLOAD PUSH2 0xDE8 SWAP1 PUSH2 0x4100 JUMP JUMPDEST DUP1 ISZERO PUSH2 0xE35 JUMPI DUP1 PUSH1 0x1F LT PUSH2 0xE0A JUMPI PUSH2 0x100 DUP1 DUP4 SLOAD DIV MUL DUP4 MSTORE SWAP2 PUSH1 0x20 ADD SWAP2 PUSH2 0xE35 JUMP JUMPDEST DUP3 ADD SWAP2 SWAP1 PUSH1 0x0 MSTORE PUSH1 0x20 PUSH1 0x0 KECCAK256 SWAP1 JUMPDEST DUP2 SLOAD DUP2 MSTORE SWAP1 PUSH1 0x1 ADD SWAP1 PUSH1 0x20 ADD DUP1 DUP4 GT PUSH2 0xE18 JUMPI DUP3 SWAP1 SUB PUSH1 0x1F AND DUP3 ADD SWAP2 JUMPDEST POP POP POP POP POP DUP2 MSTORE PUSH1 0x20 ADD DUP3 PUSH1 0x1 ADD DUP1 SLOAD PUSH2 0xE4E SWAP1 PUSH2 0x4100 JUMP JUMPDEST DUP1 PUSH1 0x1F ADD PUSH1 0x20 DUP1 SWAP2 DIV MUL PUSH1 0x20 ADD PUSH1 0x40 MLOAD SWAP1 DUP2 ADD PUSH1 0x40 MSTORE DUP1 SWAP3 SWAP2 SWAP1 DUP2 DUP2 MSTORE PUSH1 0x20 ADD DUP3 DUP1 SLOAD PUSH2 0xE7A SWAP1 PUSH2 0x4100 JUMP JUMPDEST DUP1 ISZERO PUSH2 0xEC7 JUMPI DUP1 PUSH1 0x1F LT PUSH2 0xE9C JUMPI PUSH2 0x100 DUP1 DUP4 SLOAD DIV MUL DUP4 MSTORE SWAP2 PUSH1 0x20 ADD SWAP2 PUSH2 0xEC7 JUMP JUMPDEST DUP3 ADD SWAP2 SWAP1 PUSH1 0x0 MSTORE PUSH1 0x20 PUSH1 0x0 KECCAK256 SWAP1 JUMPDEST DUP2 SLOAD DUP2 MSTORE SWAP1 PUSH1 0x1 ADD SWAP1 PUSH1 0x20 ADD DUP1 DUP4 GT PUSH2 0xEAA JUMPI DUP3 SWAP1 SUB PUSH1 0x1F AND DUP3 ADD SWAP2 JUMPDEST POP POP POP POP POP DUP2 MSTORE PUSH1 0x20 ADD DUP3 PUSH1 0x3 ADD DUP1 SLOAD PUSH2 0xEE0 SWAP1 PUSH2 0x4100 JUMP JUMPDEST DUP1 PUSH1 0x1F ADD PUSH1 0x20 DUP1 SWAP2 DIV MUL PUSH1 0x20 ADD PUSH1 0x40 MLOAD SWAP1 DUP2 ADD PUSH1 0x40 MSTORE DUP1 SWAP3 SWAP2 SWAP1 DUP2 DUP2 MSTORE PUSH1 0x20 ADD DUP3 DUP1 SLOAD PUSH2 0xF0C SWAP1 PUSH2 0x4100 JUMP JUMPDEST DUP1 ISZERO PUSH2 0xF59 JUMPI DUP1 PUSH1 0x1F LT PUSH2 0xF2E JUMPI PUSH2 0x100 DUP1 DUP4 SLOAD DIV MUL DUP4 MSTORE SWAP2 PUSH1 0x20 ADD SWAP2 PUSH2 0xF59 JUMP JUMPDEST DUP3 ADD SWAP2 SWAP1 PUSH1 0x0 MSTORE PUSH1 0x20 PUSH1 0x0 KECCAK256 SWAP1 JUMPDEST DUP2 SLOAD DUP2 MSTORE SWAP1 PUSH1 0x1 ADD SWAP1 PUSH1 0x20 ADD DUP1 DUP4 GT PUSH2 0xF3C JUMPI DUP3 SWAP1 SUB PUSH1 0x1F AND DUP3 ADD SWAP2 JUMPDEST POP POP POP POP POP DUP2 MSTORE PUSH1 0x20 ADD DUP3 PUSH1 0x4 ADD DUP1 SLOAD PUSH2 0xF72 SWAP1 PUSH2 0x4100 JUMP JUMPDEST DUP1 PUSH1 0x1F ADD PUSH1 0x20 DUP1 SWAP2 DIV MUL PUSH1 0x20 ADD PUSH1 0x40 MLOAD SWAP1 DUP2 ADD PUSH1 0x40 MSTORE DUP1 SWAP3 SWAP2 SWAP1 DUP2 DUP2 MSTORE PUSH1 0x20 ADD DUP3 DUP1 SLOAD PUSH2 0xF9E SWAP1 PUSH2 0x4100 JUMP JUMPDEST DUP1 ISZERO PUSH2 0xFEB JUMPI DUP1 PUSH1 0x1F LT PUSH2 0xFC0 JUMPI PUSH2 0x100 DUP1 DUP4 SLOAD DIV MUL DUP4 MSTORE SWAP2 PUSH1 0x20 ADD SWAP2 PUSH2 0xFEB JUMP JUMPDEST DUP3 ADD SWAP2 SWAP1 PUSH1 0x0 MSTORE PUSH1 0x20 PUSH1 0x0 KECCAK256 SWAP1 JUMPDEST DUP2 SLOAD DUP2 MSTORE SWAP1 PUSH1 0x1 ADD SWAP1 PUSH1 0x20 ADD DUP1 DUP4 GT PUSH2 0xFCE JUMPI DUP3 SWAP1 SUB PUSH1 0x1F AND DUP3 ADD SWAP2 JUMPDEST POP POP POP POP POP DUP2 MSTORE PUSH1 0x20 ADD DUP3 PUSH1 0x5 ADD DUP1 SLOAD PUSH2 0x1004 SWAP1 PUSH2 0x4100 JUMP JUMPDEST DUP1 PUSH1 0x1F ADD PUSH1 0x20 DUP1 SWAP2 DIV MUL PUSH1 0x20 ADD PUSH1 0x40 MLOAD SWAP1 DUP2 ADD PUSH1 0x40 MSTORE DUP1 SWAP3 SWAP2 SWAP1 DUP2 DUP2 MSTORE PUSH1 0x20 ADD DUP3 DUP1 SLOAD PUSH2 0x1030 SWAP1 PUSH2 0x4100 JUMP JUMPDEST DUP1 ISZERO PUSH2 0x107D JUMPI DUP1 PUSH1 0x1F LT PUSH2 0x1052 JUMPI PUSH2 0x100 DUP1 DUP4 SLOAD DIV MUL DUP4 MSTORE SWAP2 PUSH1 0x20 ADD SWAP2 PUSH2 0x107D JUMP JUMPDEST DUP3 ADD SWAP2 SWAP1 PUSH1 0x0 MSTORE PUSH1 0x20 PUSH1 0x0 KECCAK256 SWAP1 JUMPDEST DUP2 SLOAD DUP2 MSTORE SWAP1 PUSH1 0x1 ADD SWAP1 PUSH1 0x20 ADD DUP1 DUP4 GT PUSH2 0x1060 JUMPI DUP3 SWAP1 SUB PUSH1 0x1F AND DUP3 ADD SWAP2 JUMPDEST POP POP POP POP POP DUP2 MSTORE PUSH1 0x20 ADD DUP3 PUSH1 0x8 ADD DUP1 SLOAD PUSH2 0x1096 SWAP1 PUSH2 0x4100 JUMP JUMPDEST DUP1 PUSH1 0x1F ADD PUSH1 0x20 DUP1 SWAP2 DIV MUL PUSH1 0x20 ADD PUSH1 0x40 MLOAD SWAP1 DUP2 ADD PUSH1 0x40 MSTORE DUP1 SWAP3 SWAP2 SWAP1 DUP2 DUP2 MSTORE PUSH1 0x20 ADD DUP3 DUP1 SLOAD PUSH2 0x10C2 SWAP1 PUSH2 0x4100 JUMP JUMPDEST DUP1 ISZERO PUSH2 0x110F JUMPI DUP1 PUSH1 0x1F LT PUSH2 0x10E4 JUMPI PUSH2 0x100 DUP1 DUP4 SLOAD DIV MUL DUP4 MSTORE SWAP2 PUSH1 0x20 ADD SWAP2 PUSH2 0x110F JUMP JUMPDEST DUP3 ADD SWAP2 SWAP1 PUSH1 0x0 MSTORE PUSH1 0x20 PUSH1 0x0 KECCAK256 SWAP1 JUMPDEST DUP2 SLOAD DUP2 MSTORE SWAP1 PUSH1 0x1 ADD SWAP1 PUSH1 0x20 ADD DUP1 DUP4 GT PUSH2 0x10F2 JUMPI DUP3 SWAP1 SUB PUSH1 0x1F AND DUP3 ADD SWAP2 JUMPDEST POP POP POP POP POP DUP2 MSTORE POP SWAP5 POP PUSH1 0x40 MLOAD DUP1 PUSH1 0xC0 ADD PUSH1 0x40 MSTORE DUP1 DUP3 PUSH1 0x6 ADD DUP1 SLOAD PUSH2 0x1133 SWAP1 PUSH2 0x4100 JUMP JUMPDEST DUP1 PUSH1 0x1F ADD PUSH1 0x20 DUP1 SWAP2 DIV MUL PUSH1 0x20 ADD PUSH1 0x40 MLOAD SWAP1 DUP2 ADD PUSH1 0x40 MSTORE DUP1 SWAP3 SWAP2 SWAP1 DUP2 DUP2 MSTORE PUSH1 0x20 ADD DUP3 DUP1 SLOAD PUSH2 0x115F SWAP1 PUSH2 0x4100 JUMP JUMPDEST DUP1 ISZERO PUSH2 0x11AC JUMPI DUP1 PUSH1 0x1F LT PUSH2 0x1181 JUMPI PUSH2 0x100 DUP1 DUP4 SLOAD DIV MUL DUP4 MSTORE SWAP2 PUSH1 0x20 ADD SWAP2 PUSH2 0x11AC JUMP JUMPDEST DUP3 ADD SWAP2 SWAP1 PUSH1 0x0 MSTORE PUSH1 0x20 PUSH1 0x0 KECCAK256 SWAP1 JUMPDEST DUP2 SLOAD DUP2 MSTORE SWAP1 PUSH1 0x1 ADD SWAP1 PUSH1 0x20 ADD DUP1 DUP4 GT PUSH2 0x118F JUMPI DUP3 SWAP1 SUB PUSH1 0x1F AND DUP3 ADD SWAP2 JUMPDEST POP POP POP POP POP DUP2 MSTORE PUSH1 0x20 ADD DUP3 PUSH1 0x7 ADD DUP1 SLOAD PUSH2 0x11C5 SWAP1 PUSH2 0x4100 JUMP JUMPDEST DUP1 PUSH1 0x1F ADD PUSH1 0x20 DUP1 SWAP2 DIV MUL PUSH1 0x20 ADD PUSH1 0x40 MLOAD SWAP1 DUP2 ADD PUSH1 0x40 MSTORE DUP1 SWAP3 SWAP2 SWAP1 DUP2 DUP2 MSTORE PUSH1 0x20 ADD DUP3 DUP1 SLOAD PUSH2 0x11F1 SWAP1 PUSH2 0x4100 JUMP JUMPDEST DUP1 ISZERO PUSH2 0x123E JUMPI DUP1 PUSH1 0x1F LT PUSH2 0x1213 JUMPI PUSH2 0x100 DUP1 DUP4 SLOAD DIV MUL DUP4 MSTORE SWAP2 PUSH1 0x20 ADD SWAP2 PUSH2 0x123E JUMP JUMPDEST DUP3 ADD SWAP2 SWAP1 PUSH1 0x0 MSTORE PUSH1 0x20 PUSH1 0x0 KECCAK256 SWAP1 JUMPDEST DUP2 SLOAD DUP2 MSTORE SWAP1 PUSH1 0x1 ADD SWAP1 PUSH1 0x20 ADD DUP1 DUP4 GT PUSH2 0x1221 JUMPI DUP3 SWAP1 SUB PUSH1 0x1F AND DUP3 ADD SWAP2 JUMPDEST POP POP POP POP POP DUP2 MSTORE PUSH1 0x20 ADD DUP3 PUSH1 0x9 ADD DUP1 SLOAD PUSH2 0x1257 SWAP1 PUSH2 0x4100 JUMP JUMPDEST DUP1 PUSH1 0x1F ADD PUSH1 0x20 DUP1 SWAP2 DIV MUL PUSH1 0x20 ADD PUSH1 0x40 MLOAD SWAP1 DUP2 ADD PUSH1 0x40 MSTORE DUP1 SWAP3 SWAP2 SWAP1 DUP2 DUP2 MSTORE PUSH1 0x20 ADD DUP3 DUP1 SLOAD PUSH2 0x1283 SWAP1 PUSH2 0x4100 JUMP JUMPDEST DUP1 ISZERO PUSH2 0x12D0 JUMPI DUP1 PUSH1 0x1F LT PUSH2 0x12A5 JUMPI PUSH2 0x100 DUP1 DUP4 SLOAD DIV MUL DUP4 MSTORE SWAP2 PUSH1 0x20 ADD SWAP2 PUSH2 0x12D0 JUMP JUMPDEST DUP3 ADD SWAP2 SWAP1 PUSH1 0x0 MSTORE PUSH1 0x20 PUSH1 0x0 KECCAK256 SWAP1 JUMPDEST DUP2 SLOAD DUP2 MSTORE SWAP1 PUSH1 0x1 ADD SWAP1 PUSH1 0x20 ADD DUP1 DUP4 GT PUSH2 0x12B3 JUMPI DUP3 SWAP1 SUB PUSH1 0x1F AND DUP3 ADD SWAP2 JUMPDEST POP POP POP POP POP DUP2 MSTORE PUSH1 0x20 ADD DUP3 PUSH1 0xF ADD DUP1 SLOAD PUSH2 0x12E9 SWAP1 PUSH2 0x4100 JUMP JUMPDEST DUP1 PUSH1 0x1F ADD PUSH1 0x20 DUP1 SWAP2 DIV MUL PUSH1 0x20 ADD PUSH1 0x40 MLOAD SWAP1 DUP2 ADD PUSH1 0x40 MSTORE DUP1 SWAP3 SWAP2 SWAP1 DUP2 DUP2 MSTORE PUSH1 0x20 ADD DUP3 DUP1 SLOAD PUSH2 0x1315 SWAP1 PUSH2 0x4100 JUMP JUMPDEST DUP1 ISZERO PUSH2 0x1362 JUMPI DUP1 PUSH1 0x1F LT PUSH2 0x1337 JUMPI PUSH2 0x100 DUP1 DUP4 SLOAD DIV MUL DUP4 MSTORE SWAP2 PUSH1 0x20 ADD SWAP2 PUSH2 0x1362 JUMP JUMPDEST DUP3 ADD SWAP2 SWAP1 PUSH1 0x0 MSTORE PUSH1 0x20 PUSH1 0x0 KECCAK256 SWAP1 JUMPDEST DUP2 SLOAD DUP2 MSTORE SWAP1 PUSH1 0x1 ADD SWAP1 PUSH1 0x20 ADD DUP1 DUP4 GT PUSH2 0x1345 JUMPI DUP3 SWAP1 SUB PUSH1 0x1F AND DUP3 ADD SWAP2 JUMPDEST POP POP POP POP POP DUP2 MSTORE PUSH1 0x20 ADD DUP3 PUSH1 0x10 ADD DUP1 SLOAD DUP1 PUSH1 0x20 MUL PUSH1 0x20 ADD PUSH1 0x40 MLOAD SWAP1 DUP2 ADD PUSH1 0x40 MSTORE DUP1 SWAP3 SWAP2 SWAP1 DUP2 DUP2 MSTORE PUSH1 0x20 ADD PUSH1 0x0 SWAP1 JUMPDEST DUP3 DUP3 LT ISZERO PUSH2 0x143C JUMPI DUP4 DUP3 SWAP1 PUSH1 0x0 MSTORE PUSH1 0x20 PUSH1 0x0 KECCAK256 ADD DUP1 SLOAD PUSH2 0x13AF SWAP1 PUSH2 0x4100 JUMP JUMPDEST DUP1 PUSH1 0x1F ADD PUSH1 0x20 DUP1 SWAP2 DIV MUL PUSH1 0x20 ADD PUSH1 0x40 MLOAD SWAP1 DUP2 ADD PUSH1 0x40 MSTORE DUP1 SWAP3 SWAP2 SWAP1 DUP2 DUP2 MSTORE PUSH1 0x20 ADD DUP3 DUP1 SLOAD PUSH2 0x13DB SWAP1 PUSH2 0x4100 JUMP JUMPDEST DUP1 ISZERO PUSH2 0x1428 JUMPI DUP1 PUSH1 0x1F LT PUSH2 0x13FD JUMPI PUSH2 0x100 DUP1 DUP4 SLOAD DIV MUL DUP4 MSTORE SWAP2 PUSH1 0x20 ADD SWAP2 PUSH2 0x1428 JUMP JUMPDEST DUP3 ADD SWAP2 SWAP1 PUSH1 0x0 MSTORE PUSH1 0x20 PUSH1 0x0 KECCAK256 SWAP1 JUMPDEST DUP2 SLOAD DUP2 MSTORE SWAP1 PUSH1 0x1 ADD SWAP1 PUSH1 0x20 ADD DUP1 DUP4 GT PUSH2 0x140B JUMPI DUP3 SWAP1 SUB PUSH1 0x1F AND DUP3 ADD SWAP2 JUMPDEST POP POP POP POP POP DUP2 MSTORE PUSH1 0x20 ADD SWAP1 PUSH1 0x1 ADD SWAP1 PUSH2 0x1390 JUMP JUMPDEST POP POP POP POP DUP2 MSTORE PUSH1 0x20 ADD DUP3 PUSH1 0x11 ADD DUP1 SLOAD PUSH2 0x1454 SWAP1 PUSH2 0x4100 JUMP JUMPDEST DUP1 PUSH1 0x1F ADD PUSH1 0x20 DUP1 SWAP2 DIV MUL PUSH1 0x20 ADD PUSH1 0x40 MLOAD SWAP1 DUP2 ADD PUSH1 0x40 MSTORE DUP1 SWAP3 SWAP2 SWAP1 DUP2 DUP2 MSTORE PUSH1 0x20 ADD DUP3 DUP1 SLOAD PUSH2 0x1480 SWAP1 PUSH2 0x4100 JUMP JUMPDEST DUP1 ISZERO PUSH2 0x14CD JUMPI DUP1 PUSH1 0x1F LT PUSH2 0x14A2 JUMPI PUSH2 0x100 DUP1 DUP4 SLOAD DIV MUL DUP4 MSTORE SWAP2 PUSH1 0x20 ADD SWAP2 PUSH2 0x14CD JUMP JUMPDEST DUP3 ADD SWAP2 SWAP1 PUSH1 0x0 MSTORE PUSH1 0x20 PUSH1 0x0 KECCAK256 SWAP1 JUMPDEST DUP2 SLOAD DUP2 MSTORE SWAP1 PUSH1 0x1 ADD SWAP1 PUSH1 0x20 ADD DUP1 DUP4 GT PUSH2 0x14B0 JUMPI DUP3 SWAP1 SUB PUSH1 0x1F AND DUP3 ADD SWAP2 JUMPDEST POP POP POP POP POP DUP2 MSTORE POP SWAP4 POP PUSH1 0x40 MLOAD DUP1 PUSH1 0xA0 ADD PUSH1 0x40 MSTORE DUP1 DUP3 PUSH1 0xA ADD DUP1 SLOAD PUSH2 0x14F1 SWAP1 PUSH2 0x4100 JUMP JUMPDEST DUP1 PUSH1 0x1F ADD PUSH1 0x20 DUP1 SWAP2 DIV MUL PUSH1 0x20 ADD PUSH1 0x40 MLOAD SWAP1 DUP2 ADD PUSH1 0x40 MSTORE DUP1 SWAP3 SWAP2 SWAP1 DUP2 DUP2 MSTORE PUSH1 0x20 ADD DUP3 DUP1 SLOAD PUSH2 0x151D SWAP1 PUSH2 0x4100 JUMP JUMPDEST DUP1 ISZERO PUSH2 0x156A JUMPI DUP1 PUSH1 0x1F LT PUSH2 0x153F JUMPI PUSH2 0x100 DUP1 DUP4 SLOAD DIV MUL DUP4 MSTORE SWAP2 PUSH1 0x20 ADD SWAP2 PUSH2 0x156A JUMP JUMPDEST DUP3 ADD SWAP2 SWAP1 PUSH1 0x0 MSTORE PUSH1 0x20 PUSH1 0x0 KECCAK256 SWAP1 JUMPDEST DUP2 SLOAD DUP2 MSTORE SWAP1 PUSH1 0x1 ADD SWAP1 PUSH1 0x20 ADD DUP1 DUP4 GT PUSH2 0x154D JUMPI DUP3 SWAP1 SUB PUSH1 0x1F AND DUP3 ADD SWAP2 JUMPDEST POP POP POP POP POP DUP2 MSTORE PUSH1 0x20 ADD DUP3 PUSH1 0xB ADD DUP1 SLOAD PUSH2 0x1583 SWAP1 PUSH2 0x4100 JUMP JUMPDEST DUP1 PUSH1 0x1F ADD PUSH1 0x20 DUP1 SWAP2 DIV MUL PUSH1 0x20 ADD PUSH1 0x40 MLOAD SWAP1 DUP2 ADD PUSH1 0x40 MSTORE DUP1 SWAP3 SWAP2 SWAP1 DUP2 DUP2 MSTORE PUSH1 0x20 ADD DUP3 DUP1 SLOAD PUSH2 0x15AF SWAP1 PUSH2 0x4100 JUMP JUMPDEST DUP1 ISZERO PUSH2 0x15FC JUMPI DUP1 PUSH1 0x1F LT PUSH2 0x15D1 JUMPI PUSH2 0x100 DUP1 DUP4 SLOAD DIV MUL DUP4 MSTORE SWAP2 PUSH1 0x20 ADD SWAP2 PUSH2 0x15FC JUMP JUMPDEST DUP3 ADD SWAP2 SWAP1 PUSH1 0x0 MSTORE PUSH1 0x20 PUSH1 0x0 KECCAK256 SWAP1 JUMPDEST DUP2 SLOAD DUP2 MSTORE SWAP1 PUSH1 0x1 ADD SWAP1 PUSH1 0x20 ADD DUP1 DUP4 GT PUSH2 0x15DF JUMPI DUP3 SWAP1 SUB PUSH1 0x1F AND DUP3 ADD SWAP2 JUMPDEST POP POP POP POP POP DUP2 MSTORE PUSH1 0x20 ADD DUP3 PUSH1 0xC ADD DUP1 SLOAD PUSH2 0x1615 SWAP1 PUSH2 0x4100 JUMP JUMPDEST DUP1 PUSH1 0x1F ADD PUSH1 0x20 DUP1 SWAP2 DIV MUL PUSH1 0x20 ADD PUSH1 0x40 MLOAD SWAP1 DUP2 ADD PUSH1 0x40 MSTORE DUP1 SWAP3 SWAP2 SWAP1 DUP2 DUP2 MSTORE PUSH1 0x20 ADD DUP3 DUP1 SLOAD PUSH2 0x1641 SWAP1 PUSH2 0x4100 JUMP JUMPDEST DUP1 ISZERO PUSH2 0x168E JUMPI DUP1 PUSH1 0x1F LT PUSH2 0x1663 JUMPI PUSH2 0x100 DUP1 DUP4 SLOAD DIV MUL DUP4 MSTORE SWAP2 PUSH1 0x20 ADD SWAP2 PUSH2 0x168E JUMP JUMPDEST DUP3 ADD SWAP2 SWAP1 PUSH1 0x0 MSTORE PUSH1 0x20 PUSH1 0x0 KECCAK256 SWAP1 JUMPDEST DUP2 SLOAD DUP2 MSTORE SWAP1 PUSH1 0x1 ADD SWAP1 PUSH1 0x20 ADD DUP1 DUP4 GT PUSH2 0x1671 JUMPI DUP3 SWAP1 SUB PUSH1 0x1F AND DUP3 ADD SWAP2 JUMPDEST POP POP POP POP POP DUP2 MSTORE PUSH1 0x20 ADD DUP3 PUSH1 0xD ADD DUP1 SLOAD PUSH2 0x16A7 SWAP1 PUSH2 0x4100 JUMP JUMPDEST DUP1 PUSH1 0x1F ADD PUSH1 0x20 DUP1 SWAP2 DIV MUL PUSH1 0x20 ADD PUSH1 0x40 MLOAD SWAP1 DUP2 ADD PUSH1 0x40 MSTORE DUP1 SWAP3 SWAP2 SWAP1 DUP2 DUP2 MSTORE PUSH1 0x20 ADD DUP3 DUP1 SLOAD PUSH2 0x16D3 SWAP1 PUSH2 0x4100 JUMP JUMPDEST DUP1 ISZERO PUSH2 0x1720 JUMPI DUP1 PUSH1 0x1F LT PUSH2 0x16F5 JUMPI PUSH2 0x100 DUP1 DUP4 SLOAD DIV MUL DUP4 MSTORE SWAP2 PUSH1 0x20 ADD SWAP2 PUSH2 0x1720 JUMP JUMPDEST DUP3 ADD SWAP2 SWAP1 PUSH1 0x0 MSTORE PUSH1 0x20 PUSH1 0x0 KECCAK256 SWAP1 JUMPDEST DUP2 SLOAD DUP2 MSTORE SWAP1 PUSH1 0x1 ADD SWAP1 PUSH1 0x20 ADD DUP1 DUP4 GT PUSH2 0x1703 JUMPI DUP3 SWAP1 SUB PUSH1 0x1F AND DUP3 ADD SWAP2 JUMPDEST POP POP POP POP POP DUP2 MSTORE PUSH1 0x20 ADD DUP3 PUSH1 0xE ADD DUP1 SLOAD PUSH2 0x1739 SWAP1 PUSH2 0x4100 JUMP JUMPDEST DUP1 PUSH1 0x1F ADD PUSH1 0x20 DUP1 SWAP2 DIV MUL PUSH1 0x20 ADD PUSH1 0x40 MLOAD SWAP1 DUP2 ADD PUSH1 0x40 MSTORE DUP1 SWAP3 SWAP2 SWAP1 DUP2 DUP2 MSTORE PUSH1 0x20 ADD DUP3 DUP1 SLOAD PUSH2 0x1765 SWAP1 PUSH2 0x4100 JUMP JUMPDEST DUP1 ISZERO PUSH2 0x17B2 JUMPI DUP1 PUSH1 0x1F LT PUSH2 0x1787 JUMPI PUSH2 0x100 DUP1 DUP4 SLOAD DIV MUL DUP4 MSTORE SWAP2 PUSH1 0x20 ADD SWAP2 PUSH2 0x17B2 JUMP JUMPDEST DUP3 ADD SWAP2 SWAP1 PUSH1 0x0 MSTORE PUSH1 0x20 PUSH1 0x0 KECCAK256 SWAP1 JUMPDEST DUP2 SLOAD DUP2 MSTORE SWAP1 PUSH1 0x1 ADD SWAP1 PUSH1 0x20 ADD DUP1 DUP4 GT PUSH2 0x1795 JUMPI DUP3 SWAP1 SUB PUSH1 0x1F AND DUP3 ADD SWAP2 JUMPDEST POP POP POP POP POP DUP2 MSTORE POP SWAP3 POP DUP1 PUSH1 0x14 ADD PUSH1 0x40 MLOAD DUP1 PUSH1 0xA0 ADD PUSH1 0x40 MSTORE SWAP1 DUP2 PUSH1 0x0 DUP3 ADD PUSH1 0x0 SWAP1 SLOAD SWAP1 PUSH2 0x100 EXP SWAP1 DIV PUSH1 0xFF AND ISZERO ISZERO ISZERO ISZERO DUP2 MSTORE PUSH1 0x20 ADD PUSH1 0x0 DUP3 ADD PUSH1 0x1 SWAP1 SLOAD SWAP1 PUSH2 0x100 EXP SWAP1 DIV PUSH1 0xFF AND ISZERO ISZERO ISZERO ISZERO DUP2 MSTORE PUSH1 0x20 ADD PUSH1 0x0 DUP3 ADD PUSH1 0x2 SWAP1 SLOAD SWAP1 PUSH2 0x100 EXP SWAP1 DIV PUSH1 0xFF AND ISZERO ISZERO ISZERO ISZERO DUP2 MSTORE PUSH1 0x20 ADD PUSH1 0x0 DUP3 ADD PUSH1 0x3 SWAP1 SLOAD SWAP1 PUSH2 0x100 EXP SWAP1 DIV PUSH1 0xFF AND ISZERO ISZERO ISZERO ISZERO DUP2 MSTORE PUSH1 0x20 ADD PUSH1 0x0 DUP3 ADD PUSH1 0x4 SWAP1 SLOAD SWAP1 PUSH2 0x100 EXP SWAP1 DIV PUSH1 0xFF AND ISZERO ISZERO ISZERO ISZERO DUP2 MSTORE POP POP SWAP2 POP POP SWAP2 SWAP4 POP SWAP2 SWAP4 JUMP JUMPDEST PUSH1 0x5 PUSH1 0x0 SWAP1 SLOAD SWAP1 PUSH2 0x100 EXP SWAP1 DIV PUSH20 0xFFFFFFFFFFFFFFFFFFFFFFFFFFFFFFFFFFFFFFFF AND DUP2 JUMP JUMPDEST DUP5 PUSH1 0x8 DUP2 PUSH1 0x40 MLOAD PUSH2 0x1893 SWAP2 SWAP1 PUSH2 0x404E JUMP JUMPDEST SWAP1 DUP2 MSTORE PUSH1 0x20 ADD PUSH1 0x40 MLOAD DUP1 SWAP2 SUB SWAP1 KECCAK256 PUSH1 0x0 SWAP1 SLOAD SWAP1 PUSH2 0x100 EXP SWAP1 DIV PUSH1 0xFF AND ISZERO PUSH2 0x18EF JUMPI PUSH1 0x40 MLOAD PUSH32 0x8C379A000000000000000000000000000000000000000000000000000000000 DUP2 MSTORE PUSH1 0x4 ADD PUSH2 0x18E6 SWAP1 PUSH2 0x41E9 JUMP JUMPDEST PUSH1 0x40 MLOAD DUP1 SWAP2 SUB SWAP1 REVERT JUMPDEST PUSH1 0x0 PUSH1 0x6 DUP8 PUSH1 0x40 MLOAD PUSH2 0x1901 SWAP2 SWAP1 PUSH2 0x404E JUMP JUMPDEST SWAP1 DUP2 MSTORE PUSH1 0x20 ADD PUSH1 0x40 MLOAD DUP1 SWAP2 SUB SWAP1 KECCAK256 SWAP1 POP DUP6 PUSH1 0x0 ADD MLOAD DUP2 PUSH1 0x0 ADD SWAP1 DUP2 PUSH2 0x1926 SWAP2 SWAP1 PUSH2 0x43AB JUMP JUMPDEST POP DUP6 PUSH1 0x20 ADD MLOAD DUP2 PUSH1 0x1 ADD SWAP1 DUP2 PUSH2 0x193C SWAP2 SWAP1 PUSH2 0x43AB JUMP JUMPDEST POP DUP7 DUP2 PUSH1 0x2 ADD SWAP1 DUP2 PUSH2 0x194E SWAP2 SWAP1 PUSH2 0x43AB JUMP JUMPDEST POP DUP6 PUSH1 0x40 ADD MLOAD DUP2 PUSH1 0x3 ADD SWAP1 DUP2 PUSH2 0x1964 SWAP2 SWAP1 PUSH2 0x43AB JUMP JUMPDEST POP DUP6 PUSH1 0x60 ADD MLOAD DUP2 PUSH1 0x4 ADD SWAP1 DUP2 PUSH2 0x197A SWAP2 SWAP1 PUSH2 0x43AB JUMP JUMPDEST POP DUP6 PUSH1 0x80 ADD MLOAD DUP2 PUSH1 0x5 ADD SWAP1 DUP2 PUSH2 0x1990 SWAP2 SWAP1 PUSH2 0x43AB JUMP JUMPDEST POP DUP6 PUSH1 0xA0 ADD MLOAD DUP2 PUSH1 0x8 ADD SWAP1 DUP2 PUSH2 0x19A6 SWAP2 SWAP1 PUSH2 0x43AB JUMP JUMPDEST POP DUP5 PUSH1 0x0 ADD MLOAD DUP2 PUSH1 0x6 ADD SWAP1 DUP2 PUSH2 0x19BC SWAP2 SWAP1 PUSH2 0x43AB JUMP JUMPDEST POP DUP5 PUSH1 0x20 ADD MLOAD DUP2 PUSH1 0x7 ADD SWAP1 DUP2 PUSH2 0x19D2 SWAP2 SWAP1 PUSH2 0x43AB JUMP JUMPDEST POP DUP5 PUSH1 0x40 ADD MLOAD DUP2 PUSH1 0x9 ADD SWAP1 DUP2 PUSH2 0x19E8 SWAP2 SWAP1 PUSH2 0x43AB JUMP JUMPDEST POP DUP4 PUSH1 0x0 ADD MLOAD DUP2 PUSH1 0xA ADD SWAP1 DUP2 PUSH2 0x19FE SWAP2 SWAP1 PUSH2 0x43AB JUMP JUMPDEST POP DUP4 PUSH1 0x20 ADD MLOAD DUP2 PUSH1 0xB ADD SWAP1 DUP2 PUSH2 0x1A14 SWAP2 SWAP1 PUSH2 0x43AB JUMP JUMPDEST POP DUP4 PUSH1 0x40 ADD MLOAD DUP2 PUSH1 0xC ADD SWAP1 DUP2 PUSH2 0x1A2A SWAP2 SWAP1 PUSH2 0x43AB JUMP JUMPDEST POP DUP4 PUSH1 0x60 ADD MLOAD DUP2 PUSH1 0xD ADD SWAP1 DUP2 PUSH2 0x1A40 SWAP2 SWAP1 PUSH2 0x43AB JUMP JUMPDEST POP DUP4 PUSH1 0x80 ADD MLOAD DUP2 PUSH1 0xE ADD SWAP1 DUP2 PUSH2 0x1A56 SWAP2 SWAP1 PUSH2 0x43AB JUMP JUMPDEST POP DUP5 PUSH1 0x60 ADD MLOAD DUP2 PUSH1 0xF ADD SWAP1 DUP2 PUSH2 0x1A6C SWAP2 SWAP1 PUSH2 0x43AB JUMP JUMPDEST POP DUP5 PUSH1 0x80 ADD MLOAD DUP2 PUSH1 0x10 ADD SWAP1 DUP1 MLOAD SWAP1 PUSH1 0x20 ADD SWAP1 PUSH2 0x1A89 SWAP3 SWAP2 SWAP1 PUSH2 0x2534 JUMP JUMPDEST POP DUP5 PUSH1 0xA0 ADD MLOAD DUP2 PUSH1 0x11 ADD SWAP1 DUP2 PUSH2 0x1A9F SWAP2 SWAP1 PUSH2 0x43AB JUMP JUMPDEST POP PUSH1 0x1 DUP2 PUSH1 0x12 ADD PUSH1 0x0 PUSH2 0x100 EXP DUP2 SLOAD DUP2 PUSH1 0xFF MUL NOT AND SWAP1 DUP4 ISZERO ISZERO MUL OR SWAP1 SSTORE POP DUP3 DUP2 PUSH1 0x14 ADD PUSH1 0x0 DUP3 ADD MLOAD DUP2 PUSH1 0x0 ADD PUSH1 0x0 PUSH2 0x100 EXP DUP2 SLOAD DUP2 PUSH1 0xFF MUL NOT AND SWAP1 DUP4 ISZERO ISZERO MUL OR SWAP1 SSTORE POP PUSH1 0x20 DUP3 ADD MLOAD DUP2 PUSH1 0x0 ADD PUSH1 0x1 PUSH2 0x100 EXP DUP2 SLOAD DUP2 PUSH1 0xFF MUL NOT AND SWAP1 DUP4 ISZERO ISZERO MUL OR SWAP1 SSTORE POP PUSH1 0x40 DUP3 ADD MLOAD DUP2 PUSH1 0x0 ADD PUSH1 0x2 PUSH2 0x100 EXP DUP2 SLOAD DUP2 PUSH1 0xFF MUL NOT AND SWAP1 DUP4 ISZERO ISZERO MUL OR SWAP1 SSTORE POP PUSH1 0x60 DUP3 ADD MLOAD DUP2 PUSH1 0x0 ADD PUSH1 0x3 PUSH2 0x100 EXP DUP2 SLOAD DUP2 PUSH1 0xFF MUL NOT AND SWAP1 DUP4 ISZERO ISZERO MUL OR SWAP1 SSTORE POP PUSH1 0x80 DUP3 ADD MLOAD DUP2 PUSH1 0x0 ADD PUSH1 0x4 PUSH2 0x100 EXP DUP2 SLOAD DUP2 PUSH1 0xFF MUL NOT AND SWAP1 DUP4 ISZERO ISZERO MUL OR SWAP1 SSTORE POP SWAP1 POP POP PUSH1 0x1 PUSH1 0x8 DUP9 PUSH1 0x40 MLOAD PUSH2 0x1B77 SWAP2 SWAP1 PUSH2 0x404E JUMP JUMPDEST SWAP1 DUP2 MSTORE PUSH1 0x20 ADD PUSH1 0x40 MLOAD DUP1 SWAP2 SUB SWAP1 KECCAK256 PUSH1 0x0 PUSH2 0x100 EXP DUP2 SLOAD DUP2 PUSH1 0xFF MUL NOT AND SWAP1 DUP4 ISZERO ISZERO MUL OR SWAP1 SSTORE POP DUP7 PUSH1 0x7 PUSH1 0x0 CALLER PUSH20 0xFFFFFFFFFFFFFFFFFFFFFFFFFFFFFFFFFFFFFFFF AND PUSH20 0xFFFFFFFFFFFFFFFFFFFFFFFFFFFFFFFFFFFFFFFF AND DUP2 MSTORE PUSH1 0x20 ADD SWAP1 DUP2 MSTORE PUSH1 0x20 ADD PUSH1 0x0 KECCAK256 SWAP1 DUP2 PUSH2 0x1BE8 SWAP2 SWAP1 PUSH2 0x43AB JUMP JUMPDEST POP PUSH2 0x1BF1 PUSH2 0x1D2F JUMP JUMPDEST POP POP POP POP POP POP POP POP JUMP JUMPDEST PUSH1 0x6 DUP7 PUSH1 0x40 MLOAD PUSH2 0x1C0B SWAP2 SWAP1 PUSH2 0x404E JUMP JUMPDEST SWAP1 DUP2 MSTORE PUSH1 0x20 ADD PUSH1 0x40 MLOAD DUP1 SWAP2 SUB SWAP1 KECCAK256 PUSH1 0x12 ADD PUSH1 0x0 SWAP1 SLOAD SWAP1 PUSH2 0x100 EXP SWAP1 DIV PUSH1 0xFF AND PUSH2 0x1C69 JUMPI PUSH1 0x40 MLOAD PUSH32 0x8C379A000000000000000000000000000000000000000000000000000000000 DUP2 MSTORE PUSH1 0x4 ADD PUSH2 0x1C60 SWAP1 PUSH2 0x40B1 JUMP JUMPDEST PUSH1 0x40 MLOAD DUP1 SWAP2 SUB SWAP1 REVERT JUMPDEST PUSH1 0x0 PUSH1 0x6 DUP8 PUSH1 0x40 MLOAD PUSH2 0x1C7B SWAP2 SWAP1 PUSH2 0x404E JUMP JUMPDEST SWAP1 DUP2 MSTORE PUSH1 0x20 ADD PUSH1 0x40 MLOAD DUP1 SWAP2 SUB SWAP1 KECCAK256 SWAP1 POP DUP6 DUP2 PUSH1 0x14 ADD PUSH1 0x0 ADD PUSH1 0x0 PUSH2 0x100 EXP DUP2 SLOAD DUP2 PUSH1 0xFF MUL NOT AND SWAP1 DUP4 ISZERO ISZERO MUL OR SWAP1 SSTORE POP DUP5 DUP2 PUSH1 0x14 ADD PUSH1 0x0 ADD PUSH1 0x1 PUSH2 0x100 EXP DUP2 SLOAD DUP2 PUSH1 0xFF MUL NOT AND SWAP1 DUP4 ISZERO ISZERO MUL OR SWAP1 SSTORE POP DUP4 DUP2 PUSH1 0x14 ADD PUSH1 0x0 ADD PUSH1 0x2 PUSH2 0x100 EXP DUP2 SLOAD DUP2 PUSH1 0xFF MUL NOT AND SWAP1 DUP4 ISZERO ISZERO MUL OR SWAP1 SSTORE POP DUP3 DUP2 PUSH1 0x14 ADD PUSH1 0x0 ADD PUSH1 0x3 PUSH2 0x100 EXP DUP2 SLOAD DUP2 PUSH1 0xFF MUL NOT AND SWAP1 DUP4 ISZERO ISZERO MUL OR SWAP1 SSTORE POP DUP2 DUP2 PUSH1 0x14 ADD PUSH1 0x0 ADD PUSH1 0x4 PUSH2 0x100 EXP DUP2 SLOAD DUP2 PUSH1 0xFF MUL NOT AND SWAP1 DUP4 ISZERO ISZERO MUL OR SWAP1 SSTORE POP POP POP POP POP POP POP POP JUMP JUMPDEST PUSH1 0x0 PUSH1 0x2 SLOAD PUSH32 0x0 PUSH20 0xFFFFFFFFFFFFFFFFFFFFFFFFFFFFFFFFFFFFFFFF AND PUSH4 0x70A08231 ADDRESS PUSH1 0x40 MLOAD DUP3 PUSH4 0xFFFFFFFF AND PUSH1 0xE0 SHL DUP2 MSTORE PUSH1 0x4 ADD PUSH2 0x1D8D SWAP2 SWAP1 PUSH2 0x26C6 JUMP JUMPDEST PUSH1 0x20 PUSH1 0x40 MLOAD DUP1 DUP4 SUB DUP2 DUP7 GAS STATICCALL ISZERO DUP1 ISZERO PUSH2 0x1DAA JUMPI RETURNDATASIZE PUSH1 0x0 DUP1 RETURNDATACOPY RETURNDATASIZE PUSH1 0x0 REVERT JUMPDEST POP POP POP POP PUSH1 0x40 MLOAD RETURNDATASIZE PUSH1 0x1F NOT PUSH1 0x1F DUP3 ADD AND DUP3 ADD DUP1 PUSH1 0x40 MSTORE POP DUP2 ADD SWAP1 PUSH2 0x1DCE SWAP2 SWAP1 PUSH2 0x4492 JUMP JUMPDEST LT ISZERO PUSH2 0x1E0F JUMPI PUSH1 0x40 MLOAD PUSH32 0x8C379A000000000000000000000000000000000000000000000000000000000 DUP2 MSTORE PUSH1 0x4 ADD PUSH2 0x1E06 SWAP1 PUSH2 0x450B JUMP JUMPDEST PUSH1 0x40 MLOAD DUP1 SWAP2 SUB SWAP1 REVERT JUMPDEST PUSH2 0x1E1D PUSH1 0x1 SLOAD PUSH1 0x2 SLOAD PUSH2 0x22A1 JUMP JUMPDEST SWAP1 POP CALLER PUSH1 0x3 PUSH1 0x0 DUP4 DUP2 MSTORE PUSH1 0x20 ADD SWAP1 DUP2 MSTORE PUSH1 0x20 ADD PUSH1 0x0 KECCAK256 PUSH1 0x0 PUSH2 0x100 EXP DUP2 SLOAD DUP2 PUSH20 0xFFFFFFFFFFFFFFFFFFFFFFFFFFFFFFFFFFFFFFFF MUL NOT AND SWAP1 DUP4 PUSH20 0xFFFFFFFFFFFFFFFFFFFFFFFFFFFFFFFFFFFFFFFF AND MUL OR SWAP1 SSTORE POP SWAP1 JUMP JUMPDEST PUSH1 0x60 PUSH1 0x7 PUSH1 0x0 DUP4 PUSH20 0xFFFFFFFFFFFFFFFFFFFFFFFFFFFFFFFFFFFFFFFF AND PUSH20 0xFFFFFFFFFFFFFFFFFFFFFFFFFFFFFFFFFFFFFFFF AND DUP2 MSTORE PUSH1 0x20 ADD SWAP1 DUP2 MSTORE PUSH1 0x20 ADD PUSH1 0x0 KECCAK256 DUP1 SLOAD PUSH2 0x1EC0 SWAP1 PUSH2 0x4100 JUMP JUMPDEST DUP1 PUSH1 0x1F ADD PUSH1 0x20 DUP1 SWAP2 DIV MUL PUSH1 0x20 ADD PUSH1 0x40 MLOAD SWAP1 DUP2 ADD PUSH1 0x40 MSTORE DUP1 SWAP3 SWAP2 SWAP1 DUP2 DUP2 MSTORE PUSH1 0x20 ADD DUP3 DUP1 SLOAD PUSH2 0x1EEC SWAP1 PUSH2 0x4100 JUMP JUMPDEST DUP1 ISZERO PUSH2 0x1F39 JUMPI DUP1 PUSH1 0x1F LT PUSH2 0x1F0E JUMPI PUSH2 0x100 DUP1 DUP4 SLOAD DIV MUL DUP4 MSTORE SWAP2 PUSH1 0x20 ADD SWAP2 PUSH2 0x1F39 JUMP JUMPDEST DUP3 ADD SWAP2 SWAP1 PUSH1 0x0 MSTORE PUSH1 0x20 PUSH1 0x0 KECCAK256 SWAP1 JUMPDEST DUP2 SLOAD DUP2 MSTORE SWAP1 PUSH1 0x1 ADD SWAP1 PUSH1 0x20 ADD DUP1 DUP4 GT PUSH2 0x1F1C JUMPI DUP3 SWAP1 SUB PUSH1 0x1F AND DUP3 ADD SWAP2 JUMPDEST POP POP POP POP POP SWAP1 POP SWAP2 SWAP1 POP JUMP JUMPDEST PUSH1 0x4 PUSH1 0x20 MSTORE DUP1 PUSH1 0x0 MSTORE PUSH1 0x40 PUSH1 0x0 KECCAK256 PUSH1 0x0 SWAP2 POP SWAP1 POP SLOAD DUP2 JUMP JUMPDEST PUSH1 0x6 DUP6 PUSH1 0x40 MLOAD PUSH2 0x1F6D SWAP2 SWAP1 PUSH2 0x404E JUMP JUMPDEST SWAP1 DUP2 MSTORE PUSH1 0x20 ADD PUSH1 0x40 MLOAD DUP1 SWAP2 SUB SWAP1 KECCAK256 PUSH1 0x12 ADD PUSH1 0x0 SWAP1 SLOAD SWAP1 PUSH2 0x100 EXP SWAP1 DIV PUSH1 0xFF AND PUSH2 0x1FCB JUMPI PUSH1 0x40 MLOAD PUSH32 0x8C379A000000000000000000000000000000000000000000000000000000000 DUP2 MSTORE PUSH1 0x4 ADD PUSH2 0x1FC2 SWAP1 PUSH2 0x40B1 JUMP JUMPDEST PUSH1 0x40 MLOAD DUP1 SWAP2 SUB SWAP1 REVERT JUMPDEST PUSH1 0x0 PUSH1 0x6 DUP7 PUSH1 0x40 MLOAD PUSH2 0x1FDD SWAP2 SWAP1 PUSH2 0x404E JUMP JUMPDEST SWAP1 DUP2 MSTORE PUSH1 0x20 ADD PUSH1 0x40 MLOAD DUP1 SWAP2 SUB SWAP1 KECCAK256 SWAP1 POP DUP5 PUSH1 0x0 ADD MLOAD DUP2 PUSH1 0x0 ADD SWAP1 DUP2 PUSH2 0x2002 SWAP2 SWAP1 PUSH2 0x43AB JUMP JUMPDEST POP DUP5 PUSH1 0x20 ADD MLOAD DUP2 PUSH1 0x1 ADD SWAP1 DUP2 PUSH2 0x2018 SWAP2 SWAP1 PUSH2 0x43AB JUMP JUMPDEST POP DUP5 PUSH1 0x40 ADD MLOAD DUP2 PUSH1 0x3 ADD SWAP1 DUP2 PUSH2 0x202E SWAP2 SWAP1 PUSH2 0x43AB JUMP JUMPDEST POP DUP5 PUSH1 0x60 ADD MLOAD DUP2 PUSH1 0x4 ADD SWAP1 DUP2 PUSH2 0x2044 SWAP2 SWAP1 PUSH2 0x43AB JUMP JUMPDEST POP DUP5 PUSH1 0x80 ADD MLOAD DUP2 PUSH1 0x5 ADD SWAP1 DUP2 PUSH2 0x205A SWAP2 SWAP1 PUSH2 0x43AB JUMP JUMPDEST POP DUP5 PUSH1 0xA0 ADD MLOAD DUP2 PUSH1 0x8 ADD SWAP1 DUP2 PUSH2 0x2070 SWAP2 SWAP1 PUSH2 0x43AB JUMP JUMPDEST POP DUP4 PUSH1 0x0 ADD MLOAD DUP2 PUSH1 0x6 ADD SWAP1 DUP2 PUSH2 0x2086 SWAP2 SWAP1 PUSH2 0x43AB JUMP JUMPDEST POP DUP4 PUSH1 0x20 ADD MLOAD DUP2 PUSH1 0x7 ADD SWAP1 DUP2 PUSH2 0x209C SWAP2 SWAP1 PUSH2 0x43AB JUMP JUMPDEST POP DUP4 PUSH1 0x40 ADD MLOAD DUP2 PUSH1 0x9 ADD SWAP1 DUP2 PUSH2 0x20B2 SWAP2 SWAP1 PUSH2 0x43AB JUMP JUMPDEST POP DUP3 PUSH1 0x0 ADD MLOAD DUP2 PUSH1 0xA ADD SWAP1 DUP2 PUSH2 0x20C8 SWAP2 SWAP1 PUSH2 0x43AB JUMP JUMPDEST POP DUP3 PUSH1 0x20 ADD MLOAD DUP2 PUSH1 0xB ADD SWAP1 DUP2 PUSH2 0x20DE SWAP2 SWAP1 PUSH2 0x43AB JUMP JUMPDEST POP DUP3 PUSH1 0x40 ADD MLOAD DUP2 PUSH1 0xC ADD SWAP1 DUP2 PUSH2 0x20F4 SWAP2 SWAP1 PUSH2 0x43AB JUMP JUMPDEST POP DUP3 PUSH1 0x60 ADD MLOAD DUP2 PUSH1 0xD ADD SWAP1 DUP2 PUSH2 0x210A SWAP2 SWAP1 PUSH2 0x43AB JUMP JUMPDEST POP DUP3 PUSH1 0x80 ADD MLOAD DUP2 PUSH1 0xE ADD SWAP1 DUP2 PUSH2 0x2120 SWAP2 SWAP1 PUSH2 0x43AB JUMP JUMPDEST POP DUP4 PUSH1 0x60 ADD MLOAD DUP2 PUSH1 0xF ADD SWAP1 DUP2 PUSH2 0x2136 SWAP2 SWAP1 PUSH2 0x43AB JUMP JUMPDEST POP DUP4 PUSH1 0x80 ADD MLOAD DUP2 PUSH1 0x10 ADD SWAP1 DUP1 MLOAD SWAP1 PUSH1 0x20 ADD SWAP1 PUSH2 0x2153 SWAP3 SWAP2 SWAP1 PUSH2 0x2534 JUMP JUMPDEST POP DUP4 PUSH1 0xA0 ADD MLOAD DUP2 PUSH1 0x11 ADD SWAP1 DUP2 PUSH2 0x2169 SWAP2 SWAP1 PUSH2 0x43AB JUMP JUMPDEST POP DUP2 DUP2 PUSH1 0x14 ADD PUSH1 0x0 DUP3 ADD MLOAD DUP2 PUSH1 0x0 ADD PUSH1 0x0 PUSH2 0x100 EXP DUP2 SLOAD DUP2 PUSH1 0xFF MUL NOT AND SWAP1 DUP4 ISZERO ISZERO MUL OR SWAP1 SSTORE POP PUSH1 0x20 DUP3 ADD MLOAD DUP2 PUSH1 0x0 ADD PUSH1 0x1 PUSH2 0x100 EXP DUP2 SLOAD DUP2 PUSH1 0xFF MUL NOT AND SWAP1 DUP4 ISZERO ISZERO MUL OR SWAP1 SSTORE POP PUSH1 0x40 DUP3 ADD MLOAD DUP2 PUSH1 0x0 ADD PUSH1 0x2 PUSH2 0x100 EXP DUP2 SLOAD DUP2 PUSH1 0xFF MUL NOT AND SWAP1 DUP4 ISZERO ISZERO MUL OR SWAP1 SSTORE POP PUSH1 0x60 DUP3 ADD MLOAD DUP2 PUSH1 0x0 ADD PUSH1 0x3 PUSH2 0x100 EXP DUP2 SLOAD DUP2 PUSH1 0xFF MUL NOT AND SWAP1 DUP4 ISZERO ISZERO MUL OR SWAP1 SSTORE POP PUSH1 0x80 DUP3 ADD MLOAD DUP2 PUSH1 0x0 ADD PUSH1 0x4 PUSH2 0x100 EXP DUP2 SLOAD DUP2 PUSH1 0xFF MUL NOT AND SWAP1 DUP4 ISZERO ISZERO MUL OR SWAP1 SSTORE POP SWAP1 POP POP POP POP POP POP POP POP JUMP JUMPDEST PUSH1 0x0 DUP2 SWAP1 POP PUSH1 0x0 PUSH1 0x3 PUSH1 0x0 DUP6 DUP2 MSTORE PUSH1 0x20 ADD SWAP1 DUP2 MSTORE PUSH1 0x20 ADD PUSH1 0x0 KECCAK256 PUSH1 0x0 SWAP1 SLOAD SWAP1 PUSH2 0x100 EXP SWAP1 DIV PUSH20 0xFFFFFFFFFFFFFFFFFFFFFFFFFFFFFFFFFFFFFFFF AND SWAP1 POP DUP2 PUSH1 0x4 PUSH1 0x0 DUP4 PUSH20 0xFFFFFFFFFFFFFFFFFFFFFFFFFFFFFFFFFFFFFFFF AND PUSH20 0xFFFFFFFFFFFFFFFFFFFFFFFFFFFFFFFFFFFFFFFF AND DUP2 MSTORE PUSH1 0x20 ADD SWAP1 DUP2 MSTORE PUSH1 0x20 ADD PUSH1 0x0 KECCAK256 DUP2 SWAP1 SSTORE POP POP POP POP POP JUMP JUMPDEST PUSH1 0x0 PUSH32 0x0 PUSH20 0xFFFFFFFFFFFFFFFFFFFFFFFFFFFFFFFFFFFFFFFF AND PUSH4 0x4000AEA0 PUSH32 0x0 DUP5 DUP7 PUSH1 0x0 PUSH1 0x40 MLOAD PUSH1 0x20 ADD PUSH2 0x2315 SWAP3 SWAP2 SWAP1 PUSH2 0x452B JUMP JUMPDEST PUSH1 0x40 MLOAD PUSH1 0x20 DUP2 DUP4 SUB SUB DUP2 MSTORE SWAP1 PUSH1 0x40 MSTORE PUSH1 0x40 MLOAD DUP5 PUSH4 0xFFFFFFFF AND PUSH1 0xE0 SHL DUP2 MSTORE PUSH1 0x4 ADD PUSH2 0x2342 SWAP4 SWAP3 SWAP2 SWAP1 PUSH2 0x459E JUMP JUMPDEST PUSH1 0x20 PUSH1 0x40 MLOAD DUP1 DUP4 SUB DUP2 PUSH1 0x0 DUP8 GAS CALL ISZERO DUP1 ISZERO PUSH2 0x2361 JUMPI RETURNDATASIZE PUSH1 0x0 DUP1 RETURNDATACOPY RETURNDATASIZE PUSH1 0x0 REVERT JUMPDEST POP POP POP POP PUSH1 0x40 MLOAD RETURNDATASIZE PUSH1 0x1F NOT PUSH1 0x1F DUP3 ADD AND DUP3 ADD DUP1 PUSH1 0x40 MSTORE POP DUP2 ADD SWAP1 PUSH2 0x2385 SWAP2 SWAP1 PUSH2 0x3F79 JUMP JUMPDEST POP PUSH1 0x0 PUSH2 0x23A7 DUP5 PUSH1 0x0 ADDRESS PUSH1 0x0 DUP1 DUP10 DUP2 MSTORE PUSH1 0x20 ADD SWAP1 DUP2 MSTORE PUSH1 0x20 ADD PUSH1 0x0 KECCAK256 SLOAD PUSH2 0x23F1 JUMP JUMPDEST SWAP1 POP PUSH1 0x1 PUSH1 0x0 DUP1 DUP7 DUP2 MSTORE PUSH1 0x20 ADD SWAP1 DUP2 MSTORE PUSH1 0x20 ADD PUSH1 0x0 KECCAK256 SLOAD PUSH2 0x23C8 SWAP2 SWAP1 PUSH2 0x460B JUMP JUMPDEST PUSH1 0x0 DUP1 DUP7 DUP2 MSTORE PUSH1 0x20 ADD SWAP1 DUP2 MSTORE PUSH1 0x20 ADD PUSH1 0x0 KECCAK256 DUP2 SWAP1 SSTORE POP PUSH2 0x23E8 DUP5 DUP3 PUSH2 0x242D JUMP JUMPDEST SWAP2 POP POP SWAP3 SWAP2 POP POP JUMP JUMPDEST PUSH1 0x0 DUP5 DUP5 DUP5 DUP5 PUSH1 0x40 MLOAD PUSH1 0x20 ADD PUSH2 0x240A SWAP5 SWAP4 SWAP3 SWAP2 SWAP1 PUSH2 0x463F JUMP JUMPDEST PUSH1 0x40 MLOAD PUSH1 0x20 DUP2 DUP4 SUB SUB DUP2 MSTORE SWAP1 PUSH1 0x40 MSTORE DUP1 MLOAD SWAP1 PUSH1 0x20 ADD KECCAK256 PUSH1 0x0 SHR SWAP1 POP SWAP5 SWAP4 POP POP POP POP JUMP JUMPDEST PUSH1 0x0 DUP3 DUP3 PUSH1 0x40 MLOAD PUSH1 0x20 ADD PUSH2 0x2442 SWAP3 SWAP2 SWAP1 PUSH2 0x46C6 JUMP JUMPDEST PUSH1 0x40 MLOAD PUSH1 0x20 DUP2 DUP4 SUB SUB DUP2 MSTORE SWAP1 PUSH1 0x40 MSTORE DUP1 MLOAD SWAP1 PUSH1 0x20 ADD KECCAK256 SWAP1 POP SWAP3 SWAP2 POP POP JUMP JUMPDEST PUSH1 0x40 MLOAD DUP1 PUSH1 0xA0 ADD PUSH1 0x40 MSTORE DUP1 PUSH1 0x0 ISZERO ISZERO DUP2 MSTORE PUSH1 0x20 ADD PUSH1 0x0 ISZERO ISZERO DUP2 MSTORE PUSH1 0x20 ADD PUSH1 0x0 ISZERO ISZERO DUP2 MSTORE PUSH1 0x20 ADD PUSH1 0x0 ISZERO ISZERO DUP2 MSTORE PUSH1 0x20 ADD PUSH1 0x0 ISZERO ISZERO DUP2 MSTORE POP SWAP1 JUMP JUMPDEST PUSH1 0x40 MLOAD DUP1 PUSH1 0xC0 ADD PUSH1 0x40 MSTORE DUP1 PUSH1 0x60 DUP2 MSTORE PUSH1 0x20 ADD PUSH1 0x60 DUP2 MSTORE PUSH1 0x20 ADD PUSH1 0x60 DUP2 MSTORE PUSH1 0x20 ADD PUSH1 0x60 DUP2 MSTORE PUSH1 0x20 ADD PUSH1 0x60 DUP2 MSTORE PUSH1 0x20 ADD PUSH1 0x60 DUP2 MSTORE POP SWAP1 JUMP JUMPDEST PUSH1 0x40 MLOAD DUP1 PUSH1 0xC0 ADD PUSH1 0x40 MSTORE DUP1 PUSH1 0x60 DUP2 MSTORE PUSH1 0x20 ADD PUSH1 0x60 DUP2 MSTORE PUSH1 0x20 ADD PUSH1 0x60 DUP2 MSTORE PUSH1 0x20 ADD PUSH1 0x60 DUP2 MSTORE PUSH1 0x20 ADD PUSH1 0x60 DUP2 MSTORE PUSH1 0x20 ADD PUSH1 0x60 DUP2 MSTORE POP SWAP1 JUMP JUMPDEST PUSH1 0x40 MLOAD DUP1 PUSH1 0xA0 ADD PUSH1 0x40 MSTORE DUP1 PUSH1 0x60 DUP2 MSTORE PUSH1 0x20 ADD PUSH1 0x60 DUP2 MSTORE PUSH1 0x20 ADD PUSH1 0x60 DUP2 MSTORE PUSH1 0x20 ADD PUSH1 0x60 DUP2 MSTORE PUSH1 0x20 ADD PUSH1 0x60 DUP2 MSTORE POP SWAP1 JUMP JUMPDEST DUP3 DUP1 SLOAD DUP3 DUP3 SSTORE SWAP1 PUSH1 0x0 MSTORE PUSH1 0x20 PUSH1 0x0 KECCAK256 SWAP1 DUP2 ADD SWAP3 DUP3 ISZERO PUSH2 0x257C JUMPI SWAP2 PUSH1 0x20 MUL DUP3 ADD JUMPDEST DUP3 DUP2 GT ISZERO PUSH2 0x257B JUMPI DUP3 MLOAD DUP3 SWAP1 DUP2 PUSH2 0x256B SWAP2 SWAP1 PUSH2 0x43AB JUMP JUMPDEST POP SWAP2 PUSH1 0x20 ADD SWAP2 SWAP1 PUSH1 0x1 ADD SWAP1 PUSH2 0x2554 JUMP JUMPDEST JUMPDEST POP SWAP1 POP PUSH2 0x2589 SWAP2 SWAP1 PUSH2 0x258D JUMP JUMPDEST POP SWAP1 JUMP JUMPDEST JUMPDEST DUP1 DUP3 GT ISZERO PUSH2 0x25AD JUMPI PUSH1 0x0 DUP2 DUP2 PUSH2 0x25A4 SWAP2 SWAP1 PUSH2 0x25B1 JUMP JUMPDEST POP PUSH1 0x1 ADD PUSH2 0x258E JUMP JUMPDEST POP SWAP1 JUMP JUMPDEST POP DUP1 SLOAD PUSH2 0x25BD SWAP1 PUSH2 0x4100 JUMP JUMPDEST PUSH1 0x0 DUP3 SSTORE DUP1 PUSH1 0x1F LT PUSH2 0x25CF JUMPI POP PUSH2 0x25EE JUMP JUMPDEST PUSH1 0x1F ADD PUSH1 0x20 SWAP1 DIV SWAP1 PUSH1 0x0 MSTORE PUSH1 0x20 PUSH1 0x0 KECCAK256 SWAP1 DUP2 ADD SWAP1 PUSH2 0x25ED SWAP2 SWAP1 PUSH2 0x25F1 JUMP JUMPDEST JUMPDEST POP JUMP JUMPDEST JUMPDEST DUP1 DUP3 GT ISZERO PUSH2 0x260A JUMPI PUSH1 0x0 DUP2 PUSH1 0x0 SWAP1 SSTORE POP PUSH1 0x1 ADD PUSH2 0x25F2 JUMP JUMPDEST POP SWAP1 JUMP JUMPDEST PUSH1 0x0 PUSH1 0x40 MLOAD SWAP1 POP SWAP1 JUMP JUMPDEST PUSH1 0x0 DUP1 REVERT JUMPDEST PUSH1 0x0 DUP1 REVERT JUMPDEST PUSH1 0x0 DUP2 SWAP1 POP SWAP2 SWAP1 POP JUMP JUMPDEST PUSH2 0x2635 DUP2 PUSH2 0x2622 JUMP JUMPDEST DUP2 EQ PUSH2 0x2640 JUMPI PUSH1 0x0 DUP1 REVERT JUMPDEST POP JUMP JUMPDEST PUSH1 0x0 DUP2 CALLDATALOAD SWAP1 POP PUSH2 0x2652 DUP2 PUSH2 0x262C JUMP JUMPDEST SWAP3 SWAP2 POP POP JUMP JUMPDEST PUSH1 0x0 PUSH1 0x20 DUP3 DUP5 SUB SLT ISZERO PUSH2 0x266E JUMPI PUSH2 0x266D PUSH2 0x2618 JUMP JUMPDEST JUMPDEST PUSH1 0x0 PUSH2 0x267C DUP5 DUP3 DUP6 ADD PUSH2 0x2643 JUMP JUMPDEST SWAP2 POP POP SWAP3 SWAP2 POP POP JUMP JUMPDEST PUSH1 0x0 PUSH20 0xFFFFFFFFFFFFFFFFFFFFFFFFFFFFFFFFFFFFFFFF DUP3 AND SWAP1 POP SWAP2 SWAP1 POP JUMP JUMPDEST PUSH1 0x0 PUSH2 0x26B0 DUP3 PUSH2 0x2685 JUMP JUMPDEST SWAP1 POP SWAP2 SWAP1 POP JUMP JUMPDEST PUSH2 0x26C0 DUP2 PUSH2 0x26A5 JUMP JUMPDEST DUP3 MSTORE POP POP JUMP JUMPDEST PUSH1 0x0 PUSH1 0x20 DUP3 ADD SWAP1 POP PUSH2 0x26DB PUSH1 0x0 DUP4 ADD DUP5 PUSH2 0x26B7 JUMP JUMPDEST SWAP3 SWAP2 POP POP JUMP JUMPDEST PUSH1 0x0 DUP1 REVERT JUMPDEST PUSH1 0x0 PUSH1 0x1F NOT PUSH1 0x1F DUP4 ADD AND SWAP1 POP SWAP2 SWAP1 POP JUMP JUMPDEST PUSH32 0x4E487B7100000000000000000000000000000000000000000000000000000000 PUSH1 0x0 MSTORE PUSH1 0x41 PUSH1 0x4 MSTORE PUSH1 0x24 PUSH1 0x0 REVERT JUMPDEST PUSH2 0x272F DUP3 PUSH2 0x26E6 JUMP JUMPDEST DUP2 ADD DUP2 DUP2 LT PUSH8 0xFFFFFFFFFFFFFFFF DUP3 GT OR ISZERO PUSH2 0x274E JUMPI PUSH2 0x274D PUSH2 0x26F7 JUMP JUMPDEST JUMPDEST DUP1 PUSH1 0x40 MSTORE POP POP POP JUMP JUMPDEST PUSH1 0x0 PUSH2 0x2761 PUSH2 0x260E JUMP JUMPDEST SWAP1 POP PUSH2 0x276D DUP3 DUP3 PUSH2 0x2726 JUMP JUMPDEST SWAP2 SWAP1 POP JUMP JUMPDEST PUSH1 0x0 PUSH8 0xFFFFFFFFFFFFFFFF DUP3 GT ISZERO PUSH2 0x278D JUMPI PUSH2 0x278C PUSH2 0x26F7 JUMP JUMPDEST JUMPDEST PUSH1 0x20 DUP3 MUL SWAP1 POP PUSH1 0x20 DUP2 ADD SWAP1 POP SWAP2 SWAP1 POP JUMP JUMPDEST PUSH1 0x0 DUP1 REVERT JUMPDEST PUSH1 0x0 DUP1 REVERT JUMPDEST PUSH1 0x0 PUSH8 0xFFFFFFFFFFFFFFFF DUP3 GT ISZERO PUSH2 0x27C3 JUMPI PUSH2 0x27C2 PUSH2 0x26F7 JUMP JUMPDEST JUMPDEST PUSH2 0x27CC DUP3 PUSH2 0x26E6 JUMP JUMPDEST SWAP1 POP PUSH1 0x20 DUP2 ADD SWAP1 POP SWAP2 SWAP1 POP JUMP JUMPDEST DUP3 DUP2 DUP4 CALLDATACOPY PUSH1 0x0 DUP4 DUP4 ADD MSTORE POP POP POP JUMP JUMPDEST PUSH1 0x0 PUSH2 0x27FB PUSH2 0x27F6 DUP5 PUSH2 0x27A8 JUMP JUMPDEST PUSH2 0x2757 JUMP JUMPDEST SWAP1 POP DUP3 DUP2 MSTORE PUSH1 0x20 DUP2 ADD DUP5 DUP5 DUP5 ADD GT ISZERO PUSH2 0x2817 JUMPI PUSH2 0x2816 PUSH2 0x27A3 JUMP JUMPDEST JUMPDEST PUSH2 0x2822 DUP5 DUP3 DUP6 PUSH2 0x27D9 JUMP JUMPDEST POP SWAP4 SWAP3 POP POP POP JUMP JUMPDEST PUSH1 0x0 DUP3 PUSH1 0x1F DUP4 ADD SLT PUSH2 0x283F JUMPI PUSH2 0x283E PUSH2 0x26E1 JUMP JUMPDEST JUMPDEST DUP2 CALLDATALOAD PUSH2 0x284F DUP5 DUP3 PUSH1 0x20 DUP7 ADD PUSH2 0x27E8 JUMP JUMPDEST SWAP2 POP POP SWAP3 SWAP2 POP POP JUMP JUMPDEST PUSH1 0x0 PUSH2 0x286B PUSH2 0x2866 DUP5 PUSH2 0x2772 JUMP JUMPDEST PUSH2 0x2757 JUMP JUMPDEST SWAP1 POP DUP1 DUP4 DUP3 MSTORE PUSH1 0x20 DUP3 ADD SWAP1 POP PUSH1 0x20 DUP5 MUL DUP4 ADD DUP6 DUP2 GT ISZERO PUSH2 0x288E JUMPI PUSH2 0x288D PUSH2 0x279E JUMP JUMPDEST JUMPDEST DUP4 JUMPDEST DUP2 DUP2 LT ISZERO PUSH2 0x28D5 JUMPI DUP1 CALLDATALOAD PUSH8 0xFFFFFFFFFFFFFFFF DUP2 GT ISZERO PUSH2 0x28B3 JUMPI PUSH2 0x28B2 PUSH2 0x26E1 JUMP JUMPDEST JUMPDEST DUP1 DUP7 ADD PUSH2 0x28C0 DUP10 DUP3 PUSH2 0x282A JUMP JUMPDEST DUP6 MSTORE PUSH1 0x20 DUP6 ADD SWAP5 POP POP POP PUSH1 0x20 DUP2 ADD SWAP1 POP PUSH2 0x2890 JUMP JUMPDEST POP POP POP SWAP4 SWAP3 POP POP POP JUMP JUMPDEST PUSH1 0x0 DUP3 PUSH1 0x1F DUP4 ADD SLT PUSH2 0x28F4 JUMPI PUSH2 0x28F3 PUSH2 0x26E1 JUMP JUMPDEST JUMPDEST DUP2 CALLDATALOAD PUSH2 0x2904 DUP5 DUP3 PUSH1 0x20 DUP7 ADD PUSH2 0x2858 JUMP JUMPDEST SWAP2 POP POP SWAP3 SWAP2 POP POP JUMP JUMPDEST PUSH1 0x0 PUSH8 0xFFFFFFFFFFFFFFFF DUP3 GT ISZERO PUSH2 0x2928 JUMPI PUSH2 0x2927 PUSH2 0x26F7 JUMP JUMPDEST JUMPDEST PUSH1 0x20 DUP3 MUL SWAP1 POP PUSH1 0x20 DUP2 ADD SWAP1 POP SWAP2 SWAP1 POP JUMP JUMPDEST PUSH1 0x0 DUP1 REVERT JUMPDEST PUSH1 0x0 DUP1 REVERT JUMPDEST PUSH1 0x0 PUSH1 0xC0 DUP3 DUP5 SUB SLT ISZERO PUSH2 0x2959 JUMPI PUSH2 0x2958 PUSH2 0x2939 JUMP JUMPDEST JUMPDEST PUSH2 0x2963 PUSH1 0xC0 PUSH2 0x2757 JUMP JUMPDEST SWAP1 POP PUSH1 0x0 DUP3 ADD CALLDATALOAD PUSH8 0xFFFFFFFFFFFFFFFF DUP2 GT ISZERO PUSH2 0x2983 JUMPI PUSH2 0x2982 PUSH2 0x293E JUMP JUMPDEST JUMPDEST PUSH2 0x298F DUP5 DUP3 DUP6 ADD PUSH2 0x282A JUMP JUMPDEST PUSH1 0x0 DUP4 ADD MSTORE POP PUSH1 0x20 DUP3 ADD CALLDATALOAD PUSH8 0xFFFFFFFFFFFFFFFF DUP2 GT ISZERO PUSH2 0x29B3 JUMPI PUSH2 0x29B2 PUSH2 0x293E JUMP JUMPDEST JUMPDEST PUSH2 0x29BF DUP5 DUP3 DUP6 ADD PUSH2 0x282A JUMP JUMPDEST PUSH1 0x20 DUP4 ADD MSTORE POP PUSH1 0x40 DUP3 ADD CALLDATALOAD PUSH8 0xFFFFFFFFFFFFFFFF DUP2 GT ISZERO PUSH2 0x29E3 JUMPI PUSH2 0x29E2 PUSH2 0x293E JUMP JUMPDEST JUMPDEST PUSH2 0x29EF DUP5 DUP3 DUP6 ADD PUSH2 0x282A JUMP JUMPDEST PUSH1 0x40 DUP4 ADD MSTORE POP PUSH1 0x60 DUP3 ADD CALLDATALOAD PUSH8 0xFFFFFFFFFFFFFFFF DUP2 GT ISZERO PUSH2 0x2A13 JUMPI PUSH2 0x2A12 PUSH2 0x293E JUMP JUMPDEST JUMPDEST PUSH2 0x2A1F DUP5 DUP3 DUP6 ADD PUSH2 0x282A JUMP JUMPDEST PUSH1 0x60 DUP4 ADD MSTORE POP PUSH1 0x80 DUP3 ADD CALLDATALOAD PUSH8 0xFFFFFFFFFFFFFFFF DUP2 GT ISZERO PUSH2 0x2A43 JUMPI PUSH2 0x2A42 PUSH2 0x293E JUMP JUMPDEST JUMPDEST PUSH2 0x2A4F DUP5 DUP3 DUP6 ADD PUSH2 0x282A JUMP JUMPDEST PUSH1 0x80 DUP4 ADD MSTORE POP PUSH1 0xA0 DUP3 ADD CALLDATALOAD PUSH8 0xFFFFFFFFFFFFFFFF DUP2 GT ISZERO PUSH2 0x2A73 JUMPI PUSH2 0x2A72 PUSH2 0x293E JUMP JUMPDEST JUMPDEST PUSH2 0x2A7F DUP5 DUP3 DUP6 ADD PUSH2 0x282A JUMP JUMPDEST PUSH1 0xA0 DUP4 ADD MSTORE POP SWAP3 SWAP2 POP POP JUMP JUMPDEST PUSH1 0x0 PUSH2 0x2A9E PUSH2 0x2A99 DUP5 PUSH2 0x290D JUMP JUMPDEST PUSH2 0x2757 JUMP JUMPDEST SWAP1 POP DUP1 DUP4 DUP3 MSTORE PUSH1 0x20 DUP3 ADD SWAP1 POP PUSH1 0x20 DUP5 MUL DUP4 ADD DUP6 DUP2 GT ISZERO PUSH2 0x2AC1 JUMPI PUSH2 0x2AC0 PUSH2 0x279E JUMP JUMPDEST JUMPDEST DUP4 JUMPDEST DUP2 DUP2 LT ISZERO PUSH2 0x2B08 JUMPI DUP1 CALLDATALOAD PUSH8 0xFFFFFFFFFFFFFFFF DUP2 GT ISZERO PUSH2 0x2AE6 JUMPI PUSH2 0x2AE5 PUSH2 0x26E1 JUMP JUMPDEST JUMPDEST DUP1 DUP7 ADD PUSH2 0x2AF3 DUP10 DUP3 PUSH2 0x2943 JUMP JUMPDEST DUP6 MSTORE PUSH1 0x20 DUP6 ADD SWAP5 POP POP POP PUSH1 0x20 DUP2 ADD SWAP1 POP PUSH2 0x2AC3 JUMP JUMPDEST POP POP POP SWAP4 SWAP3 POP POP POP JUMP JUMPDEST PUSH1 0x0 DUP3 PUSH1 0x1F DUP4 ADD SLT PUSH2 0x2B27 JUMPI PUSH2 0x2B26 PUSH2 0x26E1 JUMP JUMPDEST JUMPDEST DUP2 CALLDATALOAD PUSH2 0x2B37 DUP5 DUP3 PUSH1 0x20 DUP7 ADD PUSH2 0x2A8B JUMP JUMPDEST SWAP2 POP POP SWAP3 SWAP2 POP POP JUMP JUMPDEST PUSH1 0x0 PUSH8 0xFFFFFFFFFFFFFFFF DUP3 GT ISZERO PUSH2 0x2B5B JUMPI PUSH2 0x2B5A PUSH2 0x26F7 JUMP JUMPDEST JUMPDEST PUSH1 0x20 DUP3 MUL SWAP1 POP PUSH1 0x20 DUP2 ADD SWAP1 POP SWAP2 SWAP1 POP JUMP JUMPDEST PUSH1 0x0 PUSH1 0xC0 DUP3 DUP5 SUB SLT ISZERO PUSH2 0x2B82 JUMPI PUSH2 0x2B81 PUSH2 0x2939 JUMP JUMPDEST JUMPDEST PUSH2 0x2B8C PUSH1 0xC0 PUSH2 0x2757 JUMP JUMPDEST SWAP1 POP PUSH1 0x0 DUP3 ADD CALLDATALOAD PUSH8 0xFFFFFFFFFFFFFFFF DUP2 GT ISZERO PUSH2 0x2BAC JUMPI PUSH2 0x2BAB PUSH2 0x293E JUMP JUMPDEST JUMPDEST PUSH2 0x2BB8 DUP5 DUP3 DUP6 ADD PUSH2 0x282A JUMP JUMPDEST PUSH1 0x0 DUP4 ADD MSTORE POP PUSH1 0x20 DUP3 ADD CALLDATALOAD PUSH8 0xFFFFFFFFFFFFFFFF DUP2 GT ISZERO PUSH2 0x2BDC JUMPI PUSH2 0x2BDB PUSH2 0x293E JUMP JUMPDEST JUMPDEST PUSH2 0x2BE8 DUP5 DUP3 DUP6 ADD PUSH2 0x282A JUMP JUMPDEST PUSH1 0x20 DUP4 ADD MSTORE POP PUSH1 0x40 DUP3 ADD CALLDATALOAD PUSH8 0xFFFFFFFFFFFFFFFF DUP2 GT ISZERO PUSH2 0x2C0C JUMPI PUSH2 0x2C0B PUSH2 0x293E JUMP JUMPDEST JUMPDEST PUSH2 0x2C18 DUP5 DUP3 DUP6 ADD PUSH2 0x282A JUMP JUMPDEST PUSH1 0x40 DUP4 ADD MSTORE POP PUSH1 0x60 DUP3 ADD CALLDATALOAD PUSH8 0xFFFFFFFFFFFFFFFF DUP2 GT ISZERO PUSH2 0x2C3C JUMPI PUSH2 0x2C3B PUSH2 0x293E JUMP JUMPDEST JUMPDEST PUSH2 0x2C48 DUP5 DUP3 DUP6 ADD PUSH2 0x282A JUMP JUMPDEST PUSH1 0x60 DUP4 ADD MSTORE POP PUSH1 0x80 DUP3 ADD CALLDATALOAD PUSH8 0xFFFFFFFFFFFFFFFF DUP2 GT ISZERO PUSH2 0x2C6C JUMPI PUSH2 0x2C6B PUSH2 0x293E JUMP JUMPDEST JUMPDEST PUSH2 0x2C78 DUP5 DUP3 DUP6 ADD PUSH2 0x28DF JUMP JUMPDEST PUSH1 0x80 DUP4 ADD MSTORE POP PUSH1 0xA0 DUP3 ADD CALLDATALOAD PUSH8 0xFFFFFFFFFFFFFFFF DUP2 GT ISZERO PUSH2 0x2C9C JUMPI PUSH2 0x2C9B PUSH2 0x293E JUMP JUMPDEST JUMPDEST PUSH2 0x2CA8 DUP5 DUP3 DUP6 ADD PUSH2 0x282A JUMP JUMPDEST PUSH1 0xA0 DUP4 ADD MSTORE POP SWAP3 SWAP2 POP POP JUMP JUMPDEST PUSH1 0x0 PUSH2 0x2CC7 PUSH2 0x2CC2 DUP5 PUSH2 0x2B40 JUMP JUMPDEST PUSH2 0x2757 JUMP JUMPDEST SWAP1 POP DUP1 DUP4 DUP3 MSTORE PUSH1 0x20 DUP3 ADD SWAP1 POP PUSH1 0x20 DUP5 MUL DUP4 ADD DUP6 DUP2 GT ISZERO PUSH2 0x2CEA JUMPI PUSH2 0x2CE9 PUSH2 0x279E JUMP JUMPDEST JUMPDEST DUP4 JUMPDEST DUP2 DUP2 LT ISZERO PUSH2 0x2D31 JUMPI DUP1 CALLDATALOAD PUSH8 0xFFFFFFFFFFFFFFFF DUP2 GT ISZERO PUSH2 0x2D0F JUMPI PUSH2 0x2D0E PUSH2 0x26E1 JUMP JUMPDEST JUMPDEST DUP1 DUP7 ADD PUSH2 0x2D1C DUP10 DUP3 PUSH2 0x2B6C JUMP JUMPDEST DUP6 MSTORE PUSH1 0x20 DUP6 ADD SWAP5 POP POP POP PUSH1 0x20 DUP2 ADD SWAP1 POP PUSH2 0x2CEC JUMP JUMPDEST POP POP POP SWAP4 SWAP3 POP POP POP JUMP JUMPDEST PUSH1 0x0 DUP3 PUSH1 0x1F DUP4 ADD SLT PUSH2 0x2D50 JUMPI PUSH2 0x2D4F PUSH2 0x26E1 JUMP JUMPDEST JUMPDEST DUP2 CALLDATALOAD PUSH2 0x2D60 DUP5 DUP3 PUSH1 0x20 DUP7 ADD PUSH2 0x2CB4 JUMP JUMPDEST SWAP2 POP POP SWAP3 SWAP2 POP POP JUMP JUMPDEST PUSH1 0x0 PUSH8 0xFFFFFFFFFFFFFFFF DUP3 GT ISZERO PUSH2 0x2D84 JUMPI PUSH2 0x2D83 PUSH2 0x26F7 JUMP JUMPDEST JUMPDEST PUSH1 0x20 DUP3 MUL SWAP1 POP PUSH1 0x20 DUP2 ADD SWAP1 POP SWAP2 SWAP1 POP JUMP JUMPDEST PUSH1 0x0 PUSH1 0xA0 DUP3 DUP5 SUB SLT ISZERO PUSH2 0x2DAB JUMPI PUSH2 0x2DAA PUSH2 0x2939 JUMP JUMPDEST JUMPDEST PUSH2 0x2DB5 PUSH1 0xA0 PUSH2 0x2757 JUMP JUMPDEST SWAP1 POP PUSH1 0x0 DUP3 ADD CALLDATALOAD PUSH8 0xFFFFFFFFFFFFFFFF DUP2 GT ISZERO PUSH2 0x2DD5 JUMPI PUSH2 0x2DD4 PUSH2 0x293E JUMP JUMPDEST JUMPDEST PUSH2 0x2DE1 DUP5 DUP3 DUP6 ADD PUSH2 0x282A JUMP JUMPDEST PUSH1 0x0 DUP4 ADD MSTORE POP PUSH1 0x20 DUP3 ADD CALLDATALOAD PUSH8 0xFFFFFFFFFFFFFFFF DUP2 GT ISZERO PUSH2 0x2E05 JUMPI PUSH2 0x2E04 PUSH2 0x293E JUMP JUMPDEST JUMPDEST PUSH2 0x2E11 DUP5 DUP3 DUP6 ADD PUSH2 0x282A JUMP JUMPDEST PUSH1 0x20 DUP4 ADD MSTORE POP PUSH1 0x40 DUP3 ADD CALLDATALOAD PUSH8 0xFFFFFFFFFFFFFFFF DUP2 GT ISZERO PUSH2 0x2E35 JUMPI PUSH2 0x2E34 PUSH2 0x293E JUMP JUMPDEST JUMPDEST PUSH2 0x2E41 DUP5 DUP3 DUP6 ADD PUSH2 0x282A JUMP JUMPDEST PUSH1 0x40 DUP4 ADD MSTORE POP PUSH1 0x60 DUP3 ADD CALLDATALOAD PUSH8 0xFFFFFFFFFFFFFFFF DUP2 GT ISZERO PUSH2 0x2E65 JUMPI PUSH2 0x2E64 PUSH2 0x293E JUMP JUMPDEST JUMPDEST PUSH2 0x2E71 DUP5 DUP3 DUP6 ADD PUSH2 0x282A JUMP JUMPDEST PUSH1 0x60 DUP4 ADD MSTORE POP PUSH1 0x80 DUP3 ADD CALLDATALOAD PUSH8 0xFFFFFFFFFFFFFFFF DUP2 GT ISZERO PUSH2 0x2E95 JUMPI PUSH2 0x2E94 PUSH2 0x293E JUMP JUMPDEST JUMPDEST PUSH2 0x2EA1 DUP5 DUP3 DUP6 ADD PUSH2 0x282A JUMP JUMPDEST PUSH1 0x80 DUP4 ADD MSTORE POP SWAP3 SWAP2 POP POP JUMP JUMPDEST PUSH1 0x0 PUSH2 0x2EC0 PUSH2 0x2EBB DUP5 PUSH2 0x2D69 JUMP JUMPDEST PUSH2 0x2757 JUMP JUMPDEST SWAP1 POP DUP1 DUP4 DUP3 MSTORE PUSH1 0x20 DUP3 ADD SWAP1 POP PUSH1 0x20 DUP5 MUL DUP4 ADD DUP6 DUP2 GT ISZERO PUSH2 0x2EE3 JUMPI PUSH2 0x2EE2 PUSH2 0x279E JUMP JUMPDEST JUMPDEST DUP4 JUMPDEST DUP2 DUP2 LT ISZERO PUSH2 0x2F2A JUMPI DUP1 CALLDATALOAD PUSH8 0xFFFFFFFFFFFFFFFF DUP2 GT ISZERO PUSH2 0x2F08 JUMPI PUSH2 0x2F07 PUSH2 0x26E1 JUMP JUMPDEST JUMPDEST DUP1 DUP7 ADD PUSH2 0x2F15 DUP10 DUP3 PUSH2 0x2D95 JUMP JUMPDEST DUP6 MSTORE PUSH1 0x20 DUP6 ADD SWAP5 POP POP POP PUSH1 0x20 DUP2 ADD SWAP1 POP PUSH2 0x2EE5 JUMP JUMPDEST POP POP POP SWAP4 SWAP3 POP POP POP JUMP JUMPDEST PUSH1 0x0 DUP3 PUSH1 0x1F DUP4 ADD SLT PUSH2 0x2F49 JUMPI PUSH2 0x2F48 PUSH2 0x26E1 JUMP JUMPDEST JUMPDEST DUP2 CALLDATALOAD PUSH2 0x2F59 DUP5 DUP3 PUSH1 0x20 DUP7 ADD PUSH2 0x2EAD JUMP JUMPDEST SWAP2 POP POP SWAP3 SWAP2 POP POP JUMP JUMPDEST PUSH1 0x0 PUSH8 0xFFFFFFFFFFFFFFFF DUP3 GT ISZERO PUSH2 0x2F7D JUMPI PUSH2 0x2F7C PUSH2 0x26F7 JUMP JUMPDEST JUMPDEST PUSH1 0x20 DUP3 MUL SWAP1 POP PUSH1 0x20 DUP2 ADD SWAP1 POP SWAP2 SWAP1 POP JUMP JUMPDEST PUSH1 0x0 DUP2 ISZERO ISZERO SWAP1 POP SWAP2 SWAP1 POP JUMP JUMPDEST PUSH2 0x2FA3 DUP2 PUSH2 0x2F8E JUMP JUMPDEST DUP2 EQ PUSH2 0x2FAE JUMPI PUSH1 0x0 DUP1 REVERT JUMPDEST POP JUMP JUMPDEST PUSH1 0x0 DUP2 CALLDATALOAD SWAP1 POP PUSH2 0x2FC0 DUP2 PUSH2 0x2F9A JUMP JUMPDEST SWAP3 SWAP2 POP POP JUMP JUMPDEST PUSH1 0x0 PUSH1 0xA0 DUP3 DUP5 SUB SLT ISZERO PUSH2 0x2FDC JUMPI PUSH2 0x2FDB PUSH2 0x2939 JUMP JUMPDEST JUMPDEST PUSH2 0x2FE6 PUSH1 0xA0 PUSH2 0x2757 JUMP JUMPDEST SWAP1 POP PUSH1 0x0 PUSH2 0x2FF6 DUP5 DUP3 DUP6 ADD PUSH2 0x2FB1 JUMP JUMPDEST PUSH1 0x0 DUP4 ADD MSTORE POP PUSH1 0x20 PUSH2 0x300A DUP5 DUP3 DUP6 ADD PUSH2 0x2FB1 JUMP JUMPDEST PUSH1 0x20 DUP4 ADD MSTORE POP PUSH1 0x40 PUSH2 0x301E DUP5 DUP3 DUP6 ADD PUSH2 0x2FB1 JUMP JUMPDEST PUSH1 0x40 DUP4 ADD MSTORE POP PUSH1 0x60 PUSH2 0x3032 DUP5 DUP3 DUP6 ADD PUSH2 0x2FB1 JUMP JUMPDEST PUSH1 0x60 DUP4 ADD MSTORE POP PUSH1 0x80 PUSH2 0x3046 DUP5 DUP3 DUP6 ADD PUSH2 0x2FB1 JUMP JUMPDEST PUSH1 0x80 DUP4 ADD MSTORE POP SWAP3 SWAP2 POP POP JUMP JUMPDEST PUSH1 0x0 PUSH2 0x3065 PUSH2 0x3060 DUP5 PUSH2 0x2F62 JUMP JUMPDEST PUSH2 0x2757 JUMP JUMPDEST SWAP1 POP DUP1 DUP4 DUP3 MSTORE PUSH1 0x20 DUP3 ADD SWAP1 POP PUSH1 0xA0 DUP5 MUL DUP4 ADD DUP6 DUP2 GT ISZERO PUSH2 0x3088 JUMPI PUSH2 0x3087 PUSH2 0x279E JUMP JUMPDEST JUMPDEST DUP4 JUMPDEST DUP2 DUP2 LT ISZERO PUSH2 0x30B1 JUMPI DUP1 PUSH2 0x309D DUP9 DUP3 PUSH2 0x2FC6 JUMP JUMPDEST DUP5 MSTORE PUSH1 0x20 DUP5 ADD SWAP4 POP POP PUSH1 0xA0 DUP2 ADD SWAP1 POP PUSH2 0x308A JUMP JUMPDEST POP POP POP SWAP4 SWAP3 POP POP POP JUMP JUMPDEST PUSH1 0x0 DUP3 PUSH1 0x1F DUP4 ADD SLT PUSH2 0x30D0 JUMPI PUSH2 0x30CF PUSH2 0x26E1 JUMP JUMPDEST JUMPDEST DUP2 CALLDATALOAD PUSH2 0x30E0 DUP5 DUP3 PUSH1 0x20 DUP7 ADD PUSH2 0x3052 JUMP JUMPDEST SWAP2 POP POP SWAP3 SWAP2 POP POP JUMP JUMPDEST PUSH1 0x0 DUP1 PUSH1 0x0 DUP1 PUSH1 0x0 PUSH1 0xA0 DUP7 DUP9 SUB SLT ISZERO PUSH2 0x3105 JUMPI PUSH2 0x3104 PUSH2 0x2618 JUMP JUMPDEST JUMPDEST PUSH1 0x0 DUP7 ADD CALLDATALOAD PUSH8 0xFFFFFFFFFFFFFFFF DUP2 GT ISZERO PUSH2 0x3123 JUMPI PUSH2 0x3122 PUSH2 0x261D JUMP JUMPDEST JUMPDEST PUSH2 0x312F DUP9 DUP3 DUP10 ADD PUSH2 0x28DF JUMP JUMPDEST SWAP6 POP POP PUSH1 0x20 DUP7 ADD CALLDATALOAD PUSH8 0xFFFFFFFFFFFFFFFF DUP2 GT ISZERO PUSH2 0x3150 JUMPI PUSH2 0x314F PUSH2 0x261D JUMP JUMPDEST JUMPDEST PUSH2 0x315C DUP9 DUP3 DUP10 ADD PUSH2 0x2B12 JUMP JUMPDEST SWAP5 POP POP PUSH1 0x40 DUP7 ADD CALLDATALOAD PUSH8 0xFFFFFFFFFFFFFFFF DUP2 GT ISZERO PUSH2 0x317D JUMPI PUSH2 0x317C PUSH2 0x261D JUMP JUMPDEST JUMPDEST PUSH2 0x3189 DUP9 DUP3 DUP10 ADD PUSH2 0x2D3B JUMP JUMPDEST SWAP4 POP POP PUSH1 0x60 DUP7 ADD CALLDATALOAD PUSH8 0xFFFFFFFFFFFFFFFF DUP2 GT ISZERO PUSH2 0x31AA JUMPI PUSH2 0x31A9 PUSH2 0x261D JUMP JUMPDEST JUMPDEST PUSH2 0x31B6 DUP9 DUP3 DUP10 ADD PUSH2 0x2F34 JUMP JUMPDEST SWAP3 POP POP PUSH1 0x80 DUP7 ADD CALLDATALOAD PUSH8 0xFFFFFFFFFFFFFFFF DUP2 GT ISZERO PUSH2 0x31D7 JUMPI PUSH2 0x31D6 PUSH2 0x261D JUMP JUMPDEST JUMPDEST PUSH2 0x31E3 DUP9 DUP3 DUP10 ADD PUSH2 0x30BB JUMP JUMPDEST SWAP2 POP POP SWAP3 SWAP6 POP SWAP3 SWAP6 SWAP1 SWAP4 POP JUMP JUMPDEST PUSH1 0x0 PUSH1 0x20 DUP3 DUP5 SUB SLT ISZERO PUSH2 0x3206 JUMPI PUSH2 0x3205 PUSH2 0x2618 JUMP JUMPDEST JUMPDEST PUSH1 0x0 DUP3 ADD CALLDATALOAD PUSH8 0xFFFFFFFFFFFFFFFF DUP2 GT ISZERO PUSH2 0x3224 JUMPI PUSH2 0x3223 PUSH2 0x261D JUMP JUMPDEST JUMPDEST PUSH2 0x3230 DUP5 DUP3 DUP6 ADD PUSH2 0x282A JUMP JUMPDEST SWAP2 POP POP SWAP3 SWAP2 POP POP JUMP JUMPDEST PUSH2 0x3242 DUP2 PUSH2 0x2F8E JUMP JUMPDEST DUP3 MSTORE POP POP JUMP JUMPDEST PUSH1 0xA0 DUP3 ADD PUSH1 0x0 DUP3 ADD MLOAD PUSH2 0x325E PUSH1 0x0 DUP6 ADD DUP3 PUSH2 0x3239 JUMP JUMPDEST POP PUSH1 0x20 DUP3 ADD MLOAD PUSH2 0x3271 PUSH1 0x20 DUP6 ADD DUP3 PUSH2 0x3239 JUMP JUMPDEST POP PUSH1 0x40 DUP3 ADD MLOAD PUSH2 0x3284 PUSH1 0x40 DUP6 ADD DUP3 PUSH2 0x3239 JUMP JUMPDEST POP PUSH1 0x60 DUP3 ADD MLOAD PUSH2 0x3297 PUSH1 0x60 DUP6 ADD DUP3 PUSH2 0x3239 JUMP JUMPDEST POP PUSH1 0x80 DUP3 ADD MLOAD PUSH2 0x32AA PUSH1 0x80 DUP6 ADD DUP3 PUSH2 0x3239 JUMP JUMPDEST POP POP POP POP JUMP JUMPDEST PUSH1 0x0 PUSH1 0xA0 DUP3 ADD SWAP1 POP PUSH2 0x32C5 PUSH1 0x0 DUP4 ADD DUP5 PUSH2 0x3248 JUMP JUMPDEST SWAP3 SWAP2 POP POP JUMP JUMPDEST PUSH1 0x0 DUP2 SWAP1 POP SWAP2 SWAP1 POP JUMP JUMPDEST PUSH2 0x32DE DUP2 PUSH2 0x32CB JUMP JUMPDEST DUP2 EQ PUSH2 0x32E9 JUMPI PUSH1 0x0 DUP1 REVERT JUMPDEST POP JUMP JUMPDEST PUSH1 0x0 DUP2 CALLDATALOAD SWAP1 POP PUSH2 0x32FB DUP2 PUSH2 0x32D5 JUMP JUMPDEST SWAP3 SWAP2 POP POP JUMP JUMPDEST PUSH1 0x0 DUP1 PUSH1 0x40 DUP4 DUP6 SUB SLT ISZERO PUSH2 0x3318 JUMPI PUSH2 0x3317 PUSH2 0x2618 JUMP JUMPDEST JUMPDEST PUSH1 0x0 DUP4 ADD CALLDATALOAD PUSH8 0xFFFFFFFFFFFFFFFF DUP2 GT ISZERO PUSH2 0x3336 JUMPI PUSH2 0x3335 PUSH2 0x261D JUMP JUMPDEST JUMPDEST PUSH2 0x3342 DUP6 DUP3 DUP7 ADD PUSH2 0x282A JUMP JUMPDEST SWAP3 POP POP PUSH1 0x20 PUSH2 0x3353 DUP6 DUP3 DUP7 ADD PUSH2 0x32EC JUMP JUMPDEST SWAP2 POP POP SWAP3 POP SWAP3 SWAP1 POP JUMP JUMPDEST PUSH1 0x0 DUP2 MLOAD SWAP1 POP SWAP2 SWAP1 POP JUMP JUMPDEST PUSH1 0x0 DUP3 DUP3 MSTORE PUSH1 0x20 DUP3 ADD SWAP1 POP SWAP3 SWAP2 POP POP JUMP JUMPDEST PUSH1 0x0 DUP2 SWAP1 POP PUSH1 0x20 DUP3 ADD SWAP1 POP SWAP2 SWAP1 POP JUMP JUMPDEST PUSH2 0x3392 DUP2 PUSH2 0x32CB JUMP JUMPDEST DUP3 MSTORE POP POP JUMP JUMPDEST PUSH1 0x0 PUSH2 0x33A4 DUP4 DUP4 PUSH2 0x3389 JUMP JUMPDEST PUSH1 0x20 DUP4 ADD SWAP1 POP SWAP3 SWAP2 POP POP JUMP JUMPDEST PUSH1 0x0 PUSH1 0x20 DUP3 ADD SWAP1 POP SWAP2 SWAP1 POP JUMP JUMPDEST PUSH1 0x0 PUSH2 0x33C8 DUP3 PUSH2 0x335D JUMP JUMPDEST PUSH2 0x33D2 DUP2 DUP6 PUSH2 0x3368 JUMP JUMPDEST SWAP4 POP PUSH2 0x33DD DUP4 PUSH2 0x3379 JUMP JUMPDEST DUP1 PUSH1 0x0 JUMPDEST DUP4 DUP2 LT ISZERO PUSH2 0x340E JUMPI DUP2 MLOAD PUSH2 0x33F5 DUP9 DUP3 PUSH2 0x3398 JUMP JUMPDEST SWAP8 POP PUSH2 0x3400 DUP4 PUSH2 0x33B0 JUMP JUMPDEST SWAP3 POP POP PUSH1 0x1 DUP2 ADD SWAP1 POP PUSH2 0x33E1 JUMP JUMPDEST POP DUP6 SWAP4 POP POP POP POP SWAP3 SWAP2 POP POP JUMP JUMPDEST PUSH1 0x0 PUSH1 0x20 DUP3 ADD SWAP1 POP DUP2 DUP2 SUB PUSH1 0x0 DUP4 ADD MSTORE PUSH2 0x3435 DUP2 DUP5 PUSH2 0x33BD JUMP JUMPDEST SWAP1 POP SWAP3 SWAP2 POP POP JUMP JUMPDEST PUSH2 0x3446 DUP2 PUSH2 0x26A5 JUMP JUMPDEST DUP2 EQ PUSH2 0x3451 JUMPI PUSH1 0x0 DUP1 REVERT JUMPDEST POP JUMP JUMPDEST PUSH1 0x0 DUP2 CALLDATALOAD SWAP1 POP PUSH2 0x3463 DUP2 PUSH2 0x343D JUMP JUMPDEST SWAP3 SWAP2 POP POP JUMP JUMPDEST PUSH1 0x0 PUSH1 0x20 DUP3 DUP5 SUB SLT ISZERO PUSH2 0x347F JUMPI PUSH2 0x347E PUSH2 0x2618 JUMP JUMPDEST JUMPDEST PUSH1 0x0 PUSH2 0x348D DUP5 DUP3 DUP6 ADD PUSH2 0x3454 JUMP JUMPDEST SWAP2 POP POP SWAP3 SWAP2 POP POP JUMP JUMPDEST PUSH1 0x0 DUP2 MLOAD SWAP1 POP SWAP2 SWAP1 POP JUMP JUMPDEST PUSH1 0x0 DUP3 DUP3 MSTORE PUSH1 0x20 DUP3 ADD SWAP1 POP SWAP3 SWAP2 POP POP JUMP JUMPDEST PUSH1 0x0 JUMPDEST DUP4 DUP2 LT ISZERO PUSH2 0x34D0 JUMPI DUP1 DUP3 ADD MLOAD DUP2 DUP5 ADD MSTORE PUSH1 0x20 DUP2 ADD SWAP1 POP PUSH2 0x34B5 JUMP JUMPDEST PUSH1 0x0 DUP5 DUP5 ADD MSTORE POP POP POP POP JUMP JUMPDEST PUSH1 0x0 PUSH2 0x34E7 DUP3 PUSH2 0x3496 JUMP JUMPDEST PUSH2 0x34F1 DUP2 DUP6 PUSH2 0x34A1 JUMP JUMPDEST SWAP4 POP PUSH2 0x3501 DUP2 DUP6 PUSH1 0x20 DUP7 ADD PUSH2 0x34B2 JUMP JUMPDEST PUSH2 0x350A DUP2 PUSH2 0x26E6 JUMP JUMPDEST DUP5 ADD SWAP2 POP POP SWAP3 SWAP2 POP POP JUMP JUMPDEST PUSH1 0x0 PUSH1 0xC0 DUP4 ADD PUSH1 0x0 DUP4 ADD MLOAD DUP5 DUP3 SUB PUSH1 0x0 DUP7 ADD MSTORE PUSH2 0x3532 DUP3 DUP3 PUSH2 0x34DC JUMP JUMPDEST SWAP2 POP POP PUSH1 0x20 DUP4 ADD MLOAD DUP5 DUP3 SUB PUSH1 0x20 DUP7 ADD MSTORE PUSH2 0x354C DUP3 DUP3 PUSH2 0x34DC JUMP JUMPDEST SWAP2 POP POP PUSH1 0x40 DUP4 ADD MLOAD DUP5 DUP3 SUB PUSH1 0x40 DUP7 ADD MSTORE PUSH2 0x3566 DUP3 DUP3 PUSH2 0x34DC JUMP JUMPDEST SWAP2 POP POP PUSH1 0x60 DUP4 ADD MLOAD DUP5 DUP3 SUB PUSH1 0x60 DUP7 ADD MSTORE PUSH2 0x3580 DUP3 DUP3 PUSH2 0x34DC JUMP JUMPDEST SWAP2 POP POP PUSH1 0x80 DUP4 ADD MLOAD DUP5 DUP3 SUB PUSH1 0x80 DUP7 ADD MSTORE PUSH2 0x359A DUP3 DUP3 PUSH2 0x34DC JUMP JUMPDEST SWAP2 POP POP PUSH1 0xA0 DUP4 ADD MLOAD DUP5 DUP3 SUB PUSH1 0xA0 DUP7 ADD MSTORE PUSH2 0x35B4 DUP3 DUP3 PUSH2 0x34DC JUMP JUMPDEST SWAP2 POP POP DUP1 SWAP2 POP POP SWAP3 SWAP2 POP POP JUMP JUMPDEST PUSH1 0x0 DUP2 MLOAD SWAP1 POP SWAP2 SWAP1 POP JUMP JUMPDEST PUSH1 0x0 DUP3 DUP3 MSTORE PUSH1 0x20 DUP3 ADD SWAP1 POP SWAP3 SWAP2 POP POP JUMP JUMPDEST PUSH1 0x0 DUP2 SWAP1 POP PUSH1 0x20 DUP3 ADD SWAP1 POP SWAP2 SWAP1 POP JUMP JUMPDEST PUSH1 0x0 PUSH2 0x35F9 DUP4 DUP4 PUSH2 0x34DC JUMP JUMPDEST SWAP1 POP SWAP3 SWAP2 POP POP JUMP JUMPDEST PUSH1 0x0 PUSH1 0x20 DUP3 ADD SWAP1 POP SWAP2 SWAP1 POP JUMP JUMPDEST PUSH1 0x0 PUSH2 0x3619 DUP3 PUSH2 0x35C1 JUMP JUMPDEST PUSH2 0x3623 DUP2 DUP6 PUSH2 0x35CC JUMP JUMPDEST SWAP4 POP DUP4 PUSH1 0x20 DUP3 MUL DUP6 ADD PUSH2 0x3635 DUP6 PUSH2 0x35DD JUMP JUMPDEST DUP1 PUSH1 0x0 JUMPDEST DUP6 DUP2 LT ISZERO PUSH2 0x3671 JUMPI DUP5 DUP5 SUB DUP10 MSTORE DUP2 MLOAD PUSH2 0x3652 DUP6 DUP3 PUSH2 0x35ED JUMP JUMPDEST SWAP5 POP PUSH2 0x365D DUP4 PUSH2 0x3601 JUMP JUMPDEST SWAP3 POP PUSH1 0x20 DUP11 ADD SWAP10 POP POP PUSH1 0x1 DUP2 ADD SWAP1 POP PUSH2 0x3639 JUMP JUMPDEST POP DUP3 SWAP8 POP DUP8 SWAP6 POP POP POP POP POP POP SWAP3 SWAP2 POP POP JUMP JUMPDEST PUSH1 0x0 PUSH1 0xC0 DUP4 ADD PUSH1 0x0 DUP4 ADD MLOAD DUP5 DUP3 SUB PUSH1 0x0 DUP7 ADD MSTORE PUSH2 0x36A0 DUP3 DUP3 PUSH2 0x34DC JUMP JUMPDEST SWAP2 POP POP PUSH1 0x20 DUP4 ADD MLOAD DUP5 DUP3 SUB PUSH1 0x20 DUP7 ADD MSTORE PUSH2 0x36BA DUP3 DUP3 PUSH2 0x34DC JUMP JUMPDEST SWAP2 POP POP PUSH1 0x40 DUP4 ADD MLOAD DUP5 DUP3 SUB PUSH1 0x40 DUP7 ADD MSTORE PUSH2 0x36D4 DUP3 DUP3 PUSH2 0x34DC JUMP JUMPDEST SWAP2 POP POP PUSH1 0x60 DUP4 ADD MLOAD DUP5 DUP3 SUB PUSH1 0x60 DUP7 ADD MSTORE PUSH2 0x36EE DUP3 DUP3 PUSH2 0x34DC JUMP JUMPDEST SWAP2 POP POP PUSH1 0x80 DUP4 ADD MLOAD DUP5 DUP3 SUB PUSH1 0x80 DUP7 ADD MSTORE PUSH2 0x3708 DUP3 DUP3 PUSH2 0x360E JUMP JUMPDEST SWAP2 POP POP PUSH1 0xA0 DUP4 ADD MLOAD DUP5 DUP3 SUB PUSH1 0xA0 DUP7 ADD MSTORE PUSH2 0x3722 DUP3 DUP3 PUSH2 0x34DC JUMP JUMPDEST SWAP2 POP POP DUP1 SWAP2 POP POP SWAP3 SWAP2 POP POP JUMP JUMPDEST PUSH1 0x0 PUSH1 0xA0 DUP4 ADD PUSH1 0x0 DUP4 ADD MLOAD DUP5 DUP3 SUB PUSH1 0x0 DUP7 ADD MSTORE PUSH2 0x374C DUP3 DUP3 PUSH2 0x34DC JUMP JUMPDEST SWAP2 POP POP PUSH1 0x20 DUP4 ADD MLOAD DUP5 DUP3 SUB PUSH1 0x20 DUP7 ADD MSTORE PUSH2 0x3766 DUP3 DUP3 PUSH2 0x34DC JUMP JUMPDEST SWAP2 POP POP PUSH1 0x40 DUP4 ADD MLOAD DUP5 DUP3 SUB PUSH1 0x40 DUP7 ADD MSTORE PUSH2 0x3780 DUP3 DUP3 PUSH2 0x34DC JUMP JUMPDEST SWAP2 POP POP PUSH1 0x60 DUP4 ADD MLOAD DUP5 DUP3 SUB PUSH1 0x60 DUP7 ADD MSTORE PUSH2 0x379A DUP3 DUP3 PUSH2 0x34DC JUMP JUMPDEST SWAP2 POP POP PUSH1 0x80 DUP4 ADD MLOAD DUP5 DUP3 SUB PUSH1 0x80 DUP7 ADD MSTORE PUSH2 0x37B4 DUP3 DUP3 PUSH2 0x34DC JUMP JUMPDEST SWAP2 POP POP DUP1 SWAP2 POP POP SWAP3 SWAP2 POP POP JUMP JUMPDEST PUSH1 0x0 PUSH2 0x100 DUP3 ADD SWAP1 POP DUP2 DUP2 SUB PUSH1 0x0 DUP4 ADD MSTORE PUSH2 0x37DC DUP2 DUP8 PUSH2 0x3515 JUMP JUMPDEST SWAP1 POP DUP2 DUP2 SUB PUSH1 0x20 DUP4 ADD MSTORE PUSH2 0x37F0 DUP2 DUP7 PUSH2 0x3683 JUMP JUMPDEST SWAP1 POP DUP2 DUP2 SUB PUSH1 0x40 DUP4 ADD MSTORE PUSH2 0x3804 DUP2 DUP6 PUSH2 0x372F JUMP JUMPDEST SWAP1 POP PUSH2 0x3813 PUSH1 0x60 DUP4 ADD DUP5 PUSH2 0x3248 JUMP JUMPDEST SWAP6 SWAP5 POP POP POP POP POP JUMP JUMPDEST PUSH1 0x0 DUP1 PUSH1 0x40 DUP4 DUP6 SUB SLT ISZERO PUSH2 0x3833 JUMPI PUSH2 0x3832 PUSH2 0x2618 JUMP JUMPDEST JUMPDEST PUSH1 0x0 PUSH2 0x3841 DUP6 DUP3 DUP7 ADD PUSH2 0x2643 JUMP JUMPDEST SWAP3 POP POP PUSH1 0x20 PUSH2 0x3852 DUP6 DUP3 DUP7 ADD PUSH2 0x32EC JUMP JUMPDEST SWAP2 POP POP SWAP3 POP SWAP3 SWAP1 POP JUMP JUMPDEST PUSH1 0x0 DUP2 SWAP1 POP SWAP2 SWAP1 POP JUMP JUMPDEST PUSH1 0x0 PUSH2 0x3881 PUSH2 0x387C PUSH2 0x3877 DUP5 PUSH2 0x2685 JUMP JUMPDEST PUSH2 0x385C JUMP JUMPDEST PUSH2 0x2685 JUMP JUMPDEST SWAP1 POP SWAP2 SWAP1 POP JUMP JUMPDEST PUSH1 0x0 PUSH2 0x3893 DUP3 PUSH2 0x3866 JUMP JUMPDEST SWAP1 POP SWAP2 SWAP1 POP JUMP JUMPDEST PUSH1 0x0 PUSH2 0x38A5 DUP3 PUSH2 0x3888 JUMP JUMPDEST SWAP1 POP SWAP2 SWAP1 POP JUMP JUMPDEST PUSH2 0x38B5 DUP2 PUSH2 0x389A JUMP JUMPDEST DUP3 MSTORE POP POP JUMP JUMPDEST PUSH1 0x0 PUSH1 0x20 DUP3 ADD SWAP1 POP PUSH2 0x38D0 PUSH1 0x0 DUP4 ADD DUP5 PUSH2 0x38AC JUMP JUMPDEST SWAP3 SWAP2 POP POP JUMP JUMPDEST PUSH1 0x0 DUP1 PUSH1 0x0 DUP1 PUSH1 0x0 PUSH2 0x120 DUP7 DUP9 SUB SLT ISZERO PUSH2 0x38F3 JUMPI PUSH2 0x38F2 PUSH2 0x2618 JUMP JUMPDEST JUMPDEST PUSH1 0x0 DUP7 ADD CALLDATALOAD PUSH8 0xFFFFFFFFFFFFFFFF DUP2 GT ISZERO PUSH2 0x3911 JUMPI PUSH2 0x3910 PUSH2 0x261D JUMP JUMPDEST JUMPDEST PUSH2 0x391D DUP9 DUP3 DUP10 ADD PUSH2 0x282A JUMP JUMPDEST SWAP6 POP POP PUSH1 0x20 DUP7 ADD CALLDATALOAD PUSH8 0xFFFFFFFFFFFFFFFF DUP2 GT ISZERO PUSH2 0x393E JUMPI PUSH2 0x393D PUSH2 0x261D JUMP JUMPDEST JUMPDEST PUSH2 0x394A DUP9 DUP3 DUP10 ADD PUSH2 0x2943 JUMP JUMPDEST SWAP5 POP POP PUSH1 0x40 DUP7 ADD CALLDATALOAD PUSH8 0xFFFFFFFFFFFFFFFF DUP2 GT ISZERO PUSH2 0x396B JUMPI PUSH2 0x396A PUSH2 0x261D JUMP JUMPDEST JUMPDEST PUSH2 0x3977 DUP9 DUP3 DUP10 ADD PUSH2 0x2B6C JUMP JUMPDEST SWAP4 POP POP PUSH1 0x60 DUP7 ADD CALLDATALOAD PUSH8 0xFFFFFFFFFFFFFFFF DUP2 GT ISZERO PUSH2 0x3998 JUMPI PUSH2 0x3997 PUSH2 0x261D JUMP JUMPDEST JUMPDEST PUSH2 0x39A4 DUP9 DUP3 DUP10 ADD PUSH2 0x2D95 JUMP JUMPDEST SWAP3 POP POP PUSH1 0x80 PUSH2 0x39B5 DUP9 DUP3 DUP10 ADD PUSH2 0x2FC6 JUMP JUMPDEST SWAP2 POP POP SWAP3 SWAP6 POP SWAP3 SWAP6 SWAP1 SWAP4 POP JUMP JUMPDEST PUSH1 0x0 DUP1 PUSH1 0x0 DUP1 PUSH1 0x0 DUP1 PUSH1 0xC0 DUP8 DUP10 SUB SLT ISZERO PUSH2 0x39DF JUMPI PUSH2 0x39DE PUSH2 0x2618 JUMP JUMPDEST JUMPDEST PUSH1 0x0 DUP8 ADD CALLDATALOAD PUSH8 0xFFFFFFFFFFFFFFFF DUP2 GT ISZERO PUSH2 0x39FD JUMPI PUSH2 0x39FC PUSH2 0x261D JUMP JUMPDEST JUMPDEST PUSH2 0x3A09 DUP10 DUP3 DUP11 ADD PUSH2 0x282A JUMP JUMPDEST SWAP7 POP POP PUSH1 0x20 PUSH2 0x3A1A DUP10 DUP3 DUP11 ADD PUSH2 0x2FB1 JUMP JUMPDEST SWAP6 POP POP PUSH1 0x40 PUSH2 0x3A2B DUP10 DUP3 DUP11 ADD PUSH2 0x2FB1 JUMP JUMPDEST SWAP5 POP POP PUSH1 0x60 PUSH2 0x3A3C DUP10 DUP3 DUP11 ADD PUSH2 0x2FB1 JUMP JUMPDEST SWAP4 POP POP PUSH1 0x80 PUSH2 0x3A4D DUP10 DUP3 DUP11 ADD PUSH2 0x2FB1 JUMP JUMPDEST SWAP3 POP POP PUSH1 0xA0 PUSH2 0x3A5E DUP10 DUP3 DUP11 ADD PUSH2 0x2FB1 JUMP JUMPDEST SWAP2 POP POP SWAP3 SWAP6 POP SWAP3 SWAP6 POP SWAP3 SWAP6 JUMP JUMPDEST PUSH2 0x3A74 DUP2 PUSH2 0x2622 JUMP JUMPDEST DUP3 MSTORE POP POP JUMP JUMPDEST PUSH1 0x0 PUSH1 0x20 DUP3 ADD SWAP1 POP PUSH2 0x3A8F PUSH1 0x0 DUP4 ADD DUP5 PUSH2 0x3A6B JUMP JUMPDEST SWAP3 SWAP2 POP POP JUMP JUMPDEST PUSH1 0x0 DUP3 DUP3 MSTORE PUSH1 0x20 DUP3 ADD SWAP1 POP SWAP3 SWAP2 POP POP JUMP JUMPDEST PUSH1 0x0 PUSH2 0x3AB1 DUP3 PUSH2 0x3496 JUMP JUMPDEST PUSH2 0x3ABB DUP2 DUP6 PUSH2 0x3A95 JUMP JUMPDEST SWAP4 POP PUSH2 0x3ACB DUP2 DUP6 PUSH1 0x20 DUP7 ADD PUSH2 0x34B2 JUMP JUMPDEST PUSH2 0x3AD4 DUP2 PUSH2 0x26E6 JUMP JUMPDEST DUP5 ADD SWAP2 POP POP SWAP3 SWAP2 POP POP JUMP JUMPDEST PUSH1 0x0 PUSH1 0x20 DUP3 ADD SWAP1 POP DUP2 DUP2 SUB PUSH1 0x0 DUP4 ADD MSTORE PUSH2 0x3AF9 DUP2 DUP5 PUSH2 0x3AA6 JUMP JUMPDEST SWAP1 POP SWAP3 SWAP2 POP POP JUMP JUMPDEST PUSH2 0x3B0A DUP2 PUSH2 0x32CB JUMP JUMPDEST DUP3 MSTORE POP POP JUMP JUMPDEST PUSH1 0x0 PUSH1 0x20 DUP3 ADD SWAP1 POP PUSH2 0x3B25 PUSH1 0x0 DUP4 ADD DUP5 PUSH2 0x3B01 JUMP JUMPDEST SWAP3 SWAP2 POP POP JUMP JUMPDEST PUSH32 0x496E70757420617272617973206D7573742068617665207468652073616D6520 PUSH1 0x0 DUP3 ADD MSTORE PUSH32 0x6C656E6774680000000000000000000000000000000000000000000000000000 PUSH1 0x20 DUP3 ADD MSTORE POP JUMP JUMPDEST PUSH1 0x0 PUSH2 0x3B87 PUSH1 0x26 DUP4 PUSH2 0x3A95 JUMP JUMPDEST SWAP2 POP PUSH2 0x3B92 DUP3 PUSH2 0x3B2B JUMP JUMPDEST PUSH1 0x40 DUP3 ADD SWAP1 POP SWAP2 SWAP1 POP JUMP JUMPDEST PUSH1 0x0 PUSH1 0x20 DUP3 ADD SWAP1 POP DUP2 DUP2 SUB PUSH1 0x0 DUP4 ADD MSTORE PUSH2 0x3BB6 DUP2 PUSH2 0x3B7A JUMP JUMPDEST SWAP1 POP SWAP2 SWAP1 POP JUMP JUMPDEST PUSH32 0x4E487B7100000000000000000000000000000000000000000000000000000000 PUSH1 0x0 MSTORE PUSH1 0x32 PUSH1 0x4 MSTORE PUSH1 0x24 PUSH1 0x0 REVERT JUMPDEST PUSH1 0x0 PUSH2 0x120 DUP3 ADD SWAP1 POP DUP2 DUP2 SUB PUSH1 0x0 DUP4 ADD MSTORE PUSH2 0x3C07 DUP2 DUP9 PUSH2 0x3AA6 JUMP JUMPDEST SWAP1 POP DUP2 DUP2 SUB PUSH1 0x20 DUP4 ADD MSTORE PUSH2 0x3C1B DUP2 DUP8 PUSH2 0x3515 JUMP JUMPDEST SWAP1 POP DUP2 DUP2 SUB PUSH1 0x40 DUP4 ADD MSTORE PUSH2 0x3C2F DUP2 DUP7 PUSH2 0x3683 JUMP JUMPDEST SWAP1 POP DUP2 DUP2 SUB PUSH1 0x60 DUP4 ADD MSTORE PUSH2 0x3C43 DUP2 DUP6 PUSH2 0x372F JUMP JUMPDEST SWAP1 POP PUSH2 0x3C52 PUSH1 0x80 DUP4 ADD DUP5 PUSH2 0x3248 JUMP JUMPDEST SWAP7 SWAP6 POP POP POP POP POP POP JUMP JUMPDEST PUSH1 0x0 DUP2 MLOAD SWAP1 POP SWAP2 SWAP1 POP JUMP JUMPDEST PUSH1 0x0 DUP3 DUP3 MSTORE PUSH1 0x20 DUP3 ADD SWAP1 POP SWAP3 SWAP2 POP POP JUMP JUMPDEST PUSH1 0x0 DUP2 SWAP1 POP PUSH1 0x20 DUP3 ADD SWAP1 POP SWAP2 SWAP1 POP JUMP JUMPDEST PUSH2 0x3C91 DUP2 PUSH2 0x26A5 JUMP JUMPDEST DUP3 MSTORE POP POP JUMP JUMPDEST PUSH1 0x0 PUSH2 0x3CA3 DUP4 DUP4 PUSH2 0x3C88 JUMP JUMPDEST PUSH1 0x20 DUP4 ADD SWAP1 POP SWAP3 SWAP2 POP POP JUMP JUMPDEST PUSH1 0x0 PUSH1 0x20 DUP3 ADD SWAP1 POP SWAP2 SWAP1 POP JUMP JUMPDEST PUSH1 0x0 PUSH2 0x3CC7 DUP3 PUSH2 0x3C5C JUMP JUMPDEST PUSH2 0x3CD1 DUP2 DUP6 PUSH2 0x3C67 JUMP JUMPDEST SWAP4 POP PUSH2 0x3CDC DUP4 PUSH2 0x3C78 JUMP JUMPDEST DUP1 PUSH1 0x0 JUMPDEST DUP4 DUP2 LT ISZERO PUSH2 0x3D0D JUMPI DUP2 MLOAD PUSH2 0x3CF4 DUP9 DUP3 PUSH2 0x3C97 JUMP JUMPDEST SWAP8 POP PUSH2 0x3CFF DUP4 PUSH2 0x3CAF JUMP JUMPDEST SWAP3 POP POP PUSH1 0x1 DUP2 ADD SWAP1 POP PUSH2 0x3CE0 JUMP JUMPDEST POP DUP6 SWAP4 POP POP POP POP SWAP3 SWAP2 POP POP JUMP JUMPDEST PUSH1 0x0 DUP2 MLOAD SWAP1 POP SWAP2 SWAP1 POP JUMP JUMPDEST PUSH1 0x0 DUP3 DUP3 MSTORE PUSH1 0x20 DUP3 ADD SWAP1 POP SWAP3 SWAP2 POP POP JUMP JUMPDEST PUSH1 0x0 DUP2 SWAP1 POP PUSH1 0x20 DUP3 ADD SWAP1 POP SWAP2 SWAP1 POP JUMP JUMPDEST PUSH1 0x0 DUP2 MLOAD SWAP1 POP SWAP2 SWAP1 POP JUMP JUMPDEST PUSH1 0x0 DUP3 DUP3 MSTORE PUSH1 0x20 DUP3 ADD SWAP1 POP SWAP3 SWAP2 POP POP JUMP JUMPDEST PUSH1 0x0 PUSH2 0x3D6D DUP3 PUSH2 0x3D46 JUMP JUMPDEST PUSH2 0x3D77 DUP2 DUP6 PUSH2 0x3D51 JUMP JUMPDEST SWAP4 POP PUSH2 0x3D87 DUP2 DUP6 PUSH1 0x20 DUP7 ADD PUSH2 0x34B2 JUMP JUMPDEST PUSH2 0x3D90 DUP2 PUSH2 0x26E6 JUMP JUMPDEST DUP5 ADD SWAP2 POP POP SWAP3 SWAP2 POP POP JUMP JUMPDEST PUSH1 0x0 PUSH2 0x3DA7 DUP4 DUP4 PUSH2 0x3D62 JUMP JUMPDEST SWAP1 POP SWAP3 SWAP2 POP POP JUMP JUMPDEST PUSH1 0x0 PUSH1 0x20 DUP3 ADD SWAP1 POP SWAP2 SWAP1 POP JUMP JUMPDEST PUSH1 0x0 PUSH2 0x3DC7 DUP3 PUSH2 0x3D1A JUMP JUMPDEST PUSH2 0x3DD1 DUP2 DUP6 PUSH2 0x3D25 JUMP JUMPDEST SWAP4 POP DUP4 PUSH1 0x20 DUP3 MUL DUP6 ADD PUSH2 0x3DE3 DUP6 PUSH2 0x3D36 JUMP JUMPDEST DUP1 PUSH1 0x0 JUMPDEST DUP6 DUP2 LT ISZERO PUSH2 0x3E1F JUMPI DUP5 DUP5 SUB DUP10 MSTORE DUP2 MLOAD PUSH2 0x3E00 DUP6 DUP3 PUSH2 0x3D9B JUMP JUMPDEST SWAP5 POP PUSH2 0x3E0B DUP4 PUSH2 0x3DAF JUMP JUMPDEST SWAP3 POP PUSH1 0x20 DUP11 ADD SWAP10 POP POP PUSH1 0x1 DUP2 ADD SWAP1 POP PUSH2 0x3DE7 JUMP JUMPDEST POP DUP3 SWAP8 POP DUP8 SWAP6 POP POP POP POP POP POP SWAP3 SWAP2 POP POP JUMP JUMPDEST PUSH1 0x0 DUP2 MLOAD SWAP1 POP SWAP2 SWAP1 POP JUMP JUMPDEST PUSH1 0x0 DUP3 DUP3 MSTORE PUSH1 0x20 DUP3 ADD SWAP1 POP SWAP3 SWAP2 POP POP JUMP JUMPDEST PUSH1 0x0 DUP2 SWAP1 POP PUSH1 0x20 DUP3 ADD SWAP1 POP SWAP2 SWAP1 POP JUMP JUMPDEST PUSH1 0x0 PUSH8 0xFFFFFFFFFFFFFFFF DUP3 AND SWAP1 POP SWAP2 SWAP1 POP JUMP JUMPDEST PUSH2 0x3E7A DUP2 PUSH2 0x3E5D JUMP JUMPDEST DUP3 MSTORE POP POP JUMP JUMPDEST PUSH1 0x0 PUSH2 0x3E8C DUP4 DUP4 PUSH2 0x3E71 JUMP JUMPDEST PUSH1 0x20 DUP4 ADD SWAP1 POP SWAP3 SWAP2 POP POP JUMP JUMPDEST PUSH1 0x0 PUSH1 0x20 DUP3 ADD SWAP1 POP SWAP2 SWAP1 POP JUMP JUMPDEST PUSH1 0x0 PUSH2 0x3EB0 DUP3 PUSH2 0x3E31 JUMP JUMPDEST PUSH2 0x3EBA DUP2 DUP6 PUSH2 0x3E3C JUMP JUMPDEST SWAP4 POP PUSH2 0x3EC5 DUP4 PUSH2 0x3E4D JUMP JUMPDEST DUP1 PUSH1 0x0 JUMPDEST DUP4 DUP2 LT ISZERO PUSH2 0x3EF6 JUMPI DUP2 MLOAD PUSH2 0x3EDD DUP9 DUP3 PUSH2 0x3E80 JUMP JUMPDEST SWAP8 POP PUSH2 0x3EE8 DUP4 PUSH2 0x3E98 JUMP JUMPDEST SWAP3 POP POP PUSH1 0x1 DUP2 ADD SWAP1 POP PUSH2 0x3EC9 JUMP JUMPDEST POP DUP6 SWAP4 POP POP POP POP SWAP3 SWAP2 POP POP JUMP JUMPDEST PUSH1 0x0 PUSH1 0x80 DUP3 ADD SWAP1 POP DUP2 DUP2 SUB PUSH1 0x0 DUP4 ADD MSTORE PUSH2 0x3F1D DUP2 DUP8 PUSH2 0x3CBC JUMP JUMPDEST SWAP1 POP DUP2 DUP2 SUB PUSH1 0x20 DUP4 ADD MSTORE PUSH2 0x3F31 DUP2 DUP7 PUSH2 0x33BD JUMP JUMPDEST SWAP1 POP DUP2 DUP2 SUB PUSH1 0x40 DUP4 ADD MSTORE PUSH2 0x3F45 DUP2 DUP6 PUSH2 0x3DBC JUMP JUMPDEST SWAP1 POP DUP2 DUP2 SUB PUSH1 0x60 DUP4 ADD MSTORE PUSH2 0x3F59 DUP2 DUP5 PUSH2 0x3EA5 JUMP JUMPDEST SWAP1 POP SWAP6 SWAP5 POP POP POP POP POP JUMP JUMPDEST PUSH1 0x0 DUP2 MLOAD SWAP1 POP PUSH2 0x3F73 DUP2 PUSH2 0x2F9A JUMP JUMPDEST SWAP3 SWAP2 POP POP JUMP JUMPDEST PUSH1 0x0 PUSH1 0x20 DUP3 DUP5 SUB SLT ISZERO PUSH2 0x3F8F JUMPI PUSH2 0x3F8E PUSH2 0x2618 JUMP JUMPDEST JUMPDEST PUSH1 0x0 PUSH2 0x3F9D DUP5 DUP3 DUP6 ADD PUSH2 0x3F64 JUMP JUMPDEST SWAP2 POP POP SWAP3 SWAP2 POP POP JUMP JUMPDEST PUSH32 0x4261746368207472616E73616374696F6E206661696C65640000000000000000 PUSH1 0x0 DUP3 ADD MSTORE POP JUMP JUMPDEST PUSH1 0x0 PUSH2 0x3FDC PUSH1 0x18 DUP4 PUSH2 0x3A95 JUMP JUMPDEST SWAP2 POP PUSH2 0x3FE7 DUP3 PUSH2 0x3FA6 JUMP JUMPDEST PUSH1 0x20 DUP3 ADD SWAP1 POP SWAP2 SWAP1 POP JUMP JUMPDEST PUSH1 0x0 PUSH1 0x20 DUP3 ADD SWAP1 POP DUP2 DUP2 SUB PUSH1 0x0 DUP4 ADD MSTORE PUSH2 0x400B DUP2 PUSH2 0x3FCF JUMP JUMPDEST SWAP1 POP SWAP2 SWAP1 POP JUMP JUMPDEST PUSH1 0x0 DUP2 SWAP1 POP SWAP3 SWAP2 POP POP JUMP JUMPDEST PUSH1 0x0 PUSH2 0x4028 DUP3 PUSH2 0x3496 JUMP JUMPDEST PUSH2 0x4032 DUP2 DUP6 PUSH2 0x4012 JUMP JUMPDEST SWAP4 POP PUSH2 0x4042 DUP2 DUP6 PUSH1 0x20 DUP7 ADD PUSH2 0x34B2 JUMP JUMPDEST DUP1 DUP5 ADD SWAP2 POP POP SWAP3 SWAP2 POP POP JUMP JUMPDEST PUSH1 0x0 PUSH2 0x405A DUP3 DUP5 PUSH2 0x401D JUMP JUMPDEST SWAP2 POP DUP2 SWAP1 POP SWAP3 SWAP2 POP POP JUMP JUMPDEST PUSH32 0x5573657220646F6573206E6F742065786973742E000000000000000000000000 PUSH1 0x0 DUP3 ADD MSTORE POP JUMP JUMPDEST PUSH1 0x0 PUSH2 0x409B PUSH1 0x14 DUP4 PUSH2 0x3A95 JUMP JUMPDEST SWAP2 POP PUSH2 0x40A6 DUP3 PUSH2 0x4065 JUMP JUMPDEST PUSH1 0x20 DUP3 ADD SWAP1 POP SWAP2 SWAP1 POP JUMP JUMPDEST PUSH1 0x0 PUSH1 0x20 DUP3 ADD SWAP1 POP DUP2 DUP2 SUB PUSH1 0x0 DUP4 ADD MSTORE PUSH2 0x40CA DUP2 PUSH2 0x408E JUMP JUMPDEST SWAP1 POP SWAP2 SWAP1 POP JUMP JUMPDEST PUSH32 0x4E487B7100000000000000000000000000000000000000000000000000000000 PUSH1 0x0 MSTORE PUSH1 0x22 PUSH1 0x4 MSTORE PUSH1 0x24 PUSH1 0x0 REVERT JUMPDEST PUSH1 0x0 PUSH1 0x2 DUP3 DIV SWAP1 POP PUSH1 0x1 DUP3 AND DUP1 PUSH2 0x4118 JUMPI PUSH1 0x7F DUP3 AND SWAP2 POP JUMPDEST PUSH1 0x20 DUP3 LT DUP2 SUB PUSH2 0x412B JUMPI PUSH2 0x412A PUSH2 0x40D1 JUMP JUMPDEST JUMPDEST POP SWAP2 SWAP1 POP JUMP JUMPDEST PUSH32 0x4F6E6C7920565246436F6F7264696E61746F722063616E2066756C66696C6C00 PUSH1 0x0 DUP3 ADD MSTORE POP JUMP JUMPDEST PUSH1 0x0 PUSH2 0x4167 PUSH1 0x1F DUP4 PUSH2 0x3A95 JUMP JUMPDEST SWAP2 POP PUSH2 0x4172 DUP3 PUSH2 0x4131 JUMP JUMPDEST PUSH1 0x20 DUP3 ADD SWAP1 POP SWAP2 SWAP1 POP JUMP JUMPDEST PUSH1 0x0 PUSH1 0x20 DUP3 ADD SWAP1 POP DUP2 DUP2 SUB PUSH1 0x0 DUP4 ADD MSTORE PUSH2 0x4196 DUP2 PUSH2 0x415A JUMP JUMPDEST SWAP1 POP SWAP2 SWAP1 POP JUMP JUMPDEST PUSH32 0x557365726E616D6520616C7265616479206578697374732E0000000000000000 PUSH1 0x0 DUP3 ADD MSTORE POP JUMP JUMPDEST PUSH1 0x0 PUSH2 0x41D3 PUSH1 0x18 DUP4 PUSH2 0x3A95 JUMP JUMPDEST SWAP2 POP PUSH2 0x41DE DUP3 PUSH2 0x419D JUMP JUMPDEST PUSH1 0x20 DUP3 ADD SWAP1 POP SWAP2 SWAP1 POP JUMP JUMPDEST PUSH1 0x0 PUSH1 0x20 DUP3 ADD SWAP1 POP DUP2 DUP2 SUB PUSH1 0x0 DUP4 ADD MSTORE PUSH2 0x4202 DUP2 PUSH2 0x41C6 JUMP JUMPDEST SWAP1 POP SWAP2 SWAP1 POP JUMP JUMPDEST PUSH1 0x0 DUP2 SWAP1 POP DUP2 PUSH1 0x0 MSTORE PUSH1 0x20 PUSH1 0x0 KECCAK256 SWAP1 POP SWAP2 SWAP1 POP JUMP JUMPDEST PUSH1 0x0 PUSH1 0x20 PUSH1 0x1F DUP4 ADD DIV SWAP1 POP SWAP2 SWAP1 POP JUMP JUMPDEST PUSH1 0x0 DUP3 DUP3 SHL SWAP1 POP SWAP3 SWAP2 POP POP JUMP JUMPDEST PUSH1 0x0 PUSH1 0x8 DUP4 MUL PUSH2 0x426B PUSH32 0xFFFFFFFFFFFFFFFFFFFFFFFFFFFFFFFFFFFFFFFFFFFFFFFFFFFFFFFFFFFFFFFF DUP3 PUSH2 0x422E JUMP JUMPDEST PUSH2 0x4275 DUP7 DUP4 PUSH2 0x422E JUMP JUMPDEST SWAP6 POP DUP1 NOT DUP5 AND SWAP4 POP DUP1 DUP7 AND DUP5 OR SWAP3 POP POP POP SWAP4 SWAP3 POP POP POP JUMP JUMPDEST PUSH1 0x0 PUSH2 0x42A8 PUSH2 0x42A3 PUSH2 0x429E DUP5 PUSH2 0x32CB JUMP JUMPDEST PUSH2 0x385C JUMP JUMPDEST PUSH2 0x32CB JUMP JUMPDEST SWAP1 POP SWAP2 SWAP1 POP JUMP JUMPDEST PUSH1 0x0 DUP2 SWAP1 POP SWAP2 SWAP1 POP JUMP JUMPDEST PUSH2 0x42C2 DUP4 PUSH2 0x428D JUMP JUMPDEST PUSH2 0x42D6 PUSH2 0x42CE DUP3 PUSH2 0x42AF JUMP JUMPDEST DUP5 DUP5 SLOAD PUSH2 0x423B JUMP JUMPDEST DUP3 SSTORE POP POP POP POP JUMP JUMPDEST PUSH1 0x0 SWAP1 JUMP JUMPDEST PUSH2 0x42EB PUSH2 0x42DE JUMP JUMPDEST PUSH2 0x42F6 DUP2 DUP5 DUP5 PUSH2 0x42B9 JUMP JUMPDEST POP POP POP JUMP JUMPDEST JUMPDEST DUP2 DUP2 LT ISZERO PUSH2 0x431A JUMPI PUSH2 0x430F PUSH1 0x0 DUP3 PUSH2 0x42E3 JUMP JUMPDEST PUSH1 0x1 DUP2 ADD SWAP1 POP PUSH2 0x42FC JUMP JUMPDEST POP POP JUMP JUMPDEST PUSH1 0x1F DUP3 GT ISZERO PUSH2 0x435F JUMPI PUSH2 0x4330 DUP2 PUSH2 0x4209 JUMP JUMPDEST PUSH2 0x4339 DUP5 PUSH2 0x421E JUMP JUMPDEST DUP2 ADD PUSH1 0x20 DUP6 LT ISZERO PUSH2 0x4348 JUMPI DUP2 SWAP1 POP JUMPDEST PUSH2 0x435C PUSH2 0x4354 DUP6 PUSH2 0x421E JUMP JUMPDEST DUP4 ADD DUP3 PUSH2 0x42FB JUMP JUMPDEST POP POP JUMPDEST POP POP POP JUMP JUMPDEST PUSH1 0x0 DUP3 DUP3 SHR SWAP1 POP SWAP3 SWAP2 POP POP JUMP JUMPDEST PUSH1 0x0 PUSH2 0x4382 PUSH1 0x0 NOT DUP5 PUSH1 0x8 MUL PUSH2 0x4364 JUMP JUMPDEST NOT DUP1 DUP4 AND SWAP2 POP POP SWAP3 SWAP2 POP POP JUMP JUMPDEST PUSH1 0x0 PUSH2 0x439B DUP4 DUP4 PUSH2 0x4371 JUMP JUMPDEST SWAP2 POP DUP3 PUSH1 0x2 MUL DUP3 OR SWAP1 POP SWAP3 SWAP2 POP POP JUMP JUMPDEST PUSH2 0x43B4 DUP3 PUSH2 0x3496 JUMP JUMPDEST PUSH8 0xFFFFFFFFFFFFFFFF DUP2 GT ISZERO PUSH2 0x43CD JUMPI PUSH2 0x43CC PUSH2 0x26F7 JUMP JUMPDEST JUMPDEST PUSH2 0x43D7 DUP3 SLOAD PUSH2 0x4100 JUMP JUMPDEST PUSH2 0x43E2 DUP3 DUP3 DUP6 PUSH2 0x431E JUMP JUMPDEST PUSH1 0x0 PUSH1 0x20 SWAP1 POP PUSH1 0x1F DUP4 GT PUSH1 0x1 DUP2 EQ PUSH2 0x4415 JUMPI PUSH1 0x0 DUP5 ISZERO PUSH2 0x4403 JUMPI DUP3 DUP8 ADD MLOAD SWAP1 POP JUMPDEST PUSH2 0x440D DUP6 DUP3 PUSH2 0x438F JUMP JUMPDEST DUP7 SSTORE POP PUSH2 0x4475 JUMP JUMPDEST PUSH1 0x1F NOT DUP5 AND PUSH2 0x4423 DUP7 PUSH2 0x4209 JUMP JUMPDEST PUSH1 0x0 JUMPDEST DUP3 DUP2 LT ISZERO PUSH2 0x444B JUMPI DUP5 DUP10 ADD MLOAD DUP3 SSTORE PUSH1 0x1 DUP3 ADD SWAP2 POP PUSH1 0x20 DUP6 ADD SWAP5 POP PUSH1 0x20 DUP2 ADD SWAP1 POP PUSH2 0x4426 JUMP JUMPDEST DUP7 DUP4 LT ISZERO PUSH2 0x4468 JUMPI DUP5 DUP10 ADD MLOAD PUSH2 0x4464 PUSH1 0x1F DUP10 AND DUP3 PUSH2 0x4371 JUMP JUMPDEST DUP4 SSTORE POP JUMPDEST PUSH1 0x1 PUSH1 0x2 DUP9 MUL ADD DUP9 SSTORE POP POP POP JUMPDEST POP POP POP POP POP POP JUMP JUMPDEST PUSH1 0x0 DUP2 MLOAD SWAP1 POP PUSH2 0x448C DUP2 PUSH2 0x32D5 JUMP JUMPDEST SWAP3 SWAP2 POP POP JUMP JUMPDEST PUSH1 0x0 PUSH1 0x20 DUP3 DUP5 SUB SLT ISZERO PUSH2 0x44A8 JUMPI PUSH2 0x44A7 PUSH2 0x2618 JUMP JUMPDEST JUMPDEST PUSH1 0x0 PUSH2 0x44B6 DUP5 DUP3 DUP6 ADD PUSH2 0x447D JUMP JUMPDEST SWAP2 POP POP SWAP3 SWAP2 POP POP JUMP JUMPDEST PUSH32 0x4E6F7420656E6F756768204C494E4B0000000000000000000000000000000000 PUSH1 0x0 DUP3 ADD MSTORE POP JUMP JUMPDEST PUSH1 0x0 PUSH2 0x44F5 PUSH1 0xF DUP4 PUSH2 0x3A95 JUMP JUMPDEST SWAP2 POP PUSH2 0x4500 DUP3 PUSH2 0x44BF JUMP JUMPDEST PUSH1 0x20 DUP3 ADD SWAP1 POP SWAP2 SWAP1 POP JUMP JUMPDEST PUSH1 0x0 PUSH1 0x20 DUP3 ADD SWAP1 POP DUP2 DUP2 SUB PUSH1 0x0 DUP4 ADD MSTORE PUSH2 0x4524 DUP2 PUSH2 0x44E8 JUMP JUMPDEST SWAP1 POP SWAP2 SWAP1 POP JUMP JUMPDEST PUSH1 0x0 PUSH1 0x40 DUP3 ADD SWAP1 POP PUSH2 0x4540 PUSH1 0x0 DUP4 ADD DUP6 PUSH2 0x3A6B JUMP JUMPDEST PUSH2 0x454D PUSH1 0x20 DUP4 ADD DUP5 PUSH2 0x3B01 JUMP JUMPDEST SWAP4 SWAP3 POP POP POP JUMP JUMPDEST PUSH1 0x0 DUP3 DUP3 MSTORE PUSH1 0x20 DUP3 ADD SWAP1 POP SWAP3 SWAP2 POP POP JUMP JUMPDEST PUSH1 0x0 PUSH2 0x4570 DUP3 PUSH2 0x3D46 JUMP JUMPDEST PUSH2 0x457A DUP2 DUP6 PUSH2 0x4554 JUMP JUMPDEST SWAP4 POP PUSH2 0x458A DUP2 DUP6 PUSH1 0x20 DUP7 ADD PUSH2 0x34B2 JUMP JUMPDEST PUSH2 0x4593 DUP2 PUSH2 0x26E6 JUMP JUMPDEST DUP5 ADD SWAP2 POP POP SWAP3 SWAP2 POP POP JUMP JUMPDEST PUSH1 0x0 PUSH1 0x60 DUP3 ADD SWAP1 POP PUSH2 0x45B3 PUSH1 0x0 DUP4 ADD DUP7 PUSH2 0x26B7 JUMP JUMPDEST PUSH2 0x45C0 PUSH1 0x20 DUP4 ADD DUP6 PUSH2 0x3B01 JUMP JUMPDEST DUP2 DUP2 SUB PUSH1 0x40 DUP4 ADD MSTORE PUSH2 0x45D2 DUP2 DUP5 PUSH2 0x4565 JUMP JUMPDEST SWAP1 POP SWAP5 SWAP4 POP POP POP POP JUMP JUMPDEST PUSH32 0x4E487B7100000000000000000000000000000000000000000000000000000000 PUSH1 0x0 MSTORE PUSH1 0x11 PUSH1 0x4 MSTORE PUSH1 0x24 PUSH1 0x0 REVERT JUMPDEST PUSH1 0x0 PUSH2 0x4616 DUP3 PUSH2 0x32CB JUMP JUMPDEST SWAP2 POP PUSH2 0x4621 DUP4 PUSH2 0x32CB JUMP JUMPDEST SWAP3 POP DUP3 DUP3 ADD SWAP1 POP DUP1 DUP3 GT ISZERO PUSH2 0x4639 JUMPI PUSH2 0x4638 PUSH2 0x45DC JUMP JUMPDEST JUMPDEST SWAP3 SWAP2 POP POP JUMP JUMPDEST PUSH1 0x0 PUSH1 0x80 DUP3 ADD SWAP1 POP PUSH2 0x4654 PUSH1 0x0 DUP4 ADD DUP8 PUSH2 0x3A6B JUMP JUMPDEST PUSH2 0x4661 PUSH1 0x20 DUP4 ADD DUP7 PUSH2 0x3B01 JUMP JUMPDEST PUSH2 0x466E PUSH1 0x40 DUP4 ADD DUP6 PUSH2 0x26B7 JUMP JUMPDEST PUSH2 0x467B PUSH1 0x60 DUP4 ADD DUP5 PUSH2 0x3B01 JUMP JUMPDEST SWAP6 SWAP5 POP POP POP POP POP JUMP JUMPDEST PUSH1 0x0 DUP2 SWAP1 POP SWAP2 SWAP1 POP JUMP JUMPDEST PUSH2 0x469F PUSH2 0x469A DUP3 PUSH2 0x2622 JUMP JUMPDEST PUSH2 0x4684 JUMP JUMPDEST DUP3 MSTORE POP POP JUMP JUMPDEST PUSH1 0x0 DUP2 SWAP1 POP SWAP2 SWAP1 POP JUMP JUMPDEST PUSH2 0x46C0 PUSH2 0x46BB DUP3 PUSH2 0x32CB JUMP JUMPDEST PUSH2 0x46A5 JUMP JUMPDEST DUP3 MSTORE POP POP JUMP JUMPDEST PUSH1 0x0 PUSH2 0x46D2 DUP3 DUP6 PUSH2 0x468E JUMP JUMPDEST PUSH1 0x20 DUP3 ADD SWAP2 POP PUSH2 0x46E2 DUP3 DUP5 PUSH2 0x46AF JUMP JUMPDEST PUSH1 0x20 DUP3 ADD SWAP2 POP DUP2 SWAP1 POP SWAP4 SWAP3 POP POP POP JUMP INVALID LOG2 PUSH5 0x6970667358 0x22 SLT KECCAK256 0x4B PUSH25 0x4B551390F4A4BF4914EE4BBDEDE9B6FBC845E221A681191168 PUSH26 0xC8B4786D64736F6C634300081800330000000000000000000000 "},"methodIdentifiers":{"addJob(string,uint256)":"49110a6b","addressToDID(address)":"f789c0a1","batch()":"af713566","batchCreateUsers(string[],(string,string,string,string,string,string)[],(string,string,string,string,string[],string)[],(string,string,string,string,string)[],(bool,bool,bool,bool,bool)[])":"2259bca7","createUser(string,(string,string,string,string,string,string),(string,string,string,string,string[],string),(string,string,string,string,string),(bool,bool,bool,bool,bool))":"bb6228b0","editUser(string,(string,string,string,string,string,string),(string,string,string,string,string[],string),(string,string,string,string,string),(bool,bool,bool,bool,bool))":"f86a29c7","getJobs(string)":"4cb51da7","getUserByAddress(address)":"69c212f6","getUserByUsername(string)":"9f42af63","getUsernameByAddress(address)":"ed1a998d","getVisibility(string)":"320ba8f7","rawFulfillRandomness(bytes32,uint256)":"94985ddd","requestIdToSender(bytes32)":"219c0eee","requestNewDID()":"d981fbbe","setVisibility(string,bool,bool,bool,bool,bool)":"d1577cac"}}}}}