{
  "_format": "hh-sol-artifact-1",
  "contractName": "IdentiFi",
  "sourceName": "contracts/identiFi.sol",
  "abi": [
    {
      "inputs": [
        {
          "internalType": "string",
          "name": "username",
          "type": "string"
        },
        {
          "internalType": "uint256",
          "name": "jobId",
          "type": "uint256"
        }
      ],
      "name": "addJob",
      "outputs": [],
      "stateMutability": "nonpayable",
      "type": "function"
    },
    {
      "inputs": [
        {
          "internalType": "string",
          "name": "username",
          "type": "string"
        },
        {
          "components": [
            {
              "internalType": "string",
              "name": "firstName",
              "type": "string"
            },
            {
              "internalType": "string",
              "name": "lastName",
              "type": "string"
            },
            {
              "internalType": "string",
              "name": "email",
              "type": "string"
            },
            {
              "internalType": "string",
              "name": "homeAddress",
              "type": "string"
            },
            {
              "internalType": "string",
              "name": "dateOfBirth",
              "type": "string"
            },
            {
              "internalType": "string",
              "name": "phoneNumber",
              "type": "string"
            }
          ],
          "internalType": "struct IdentiFi.BasicInfo",
          "name": "basicInfo",
          "type": "tuple"
        },
        {
          "components": [
            {
              "internalType": "string",
              "name": "education",
              "type": "string"
            },
            {
              "internalType": "string",
              "name": "workHistory",
              "type": "string"
            },
            {
              "internalType": "string",
              "name": "jobTitle",
              "type": "string"
            },
            {
              "internalType": "string",
              "name": "info",
              "type": "string"
            },
            {
              "internalType": "string[]",
              "name": "skills",
              "type": "string[]"
            },
            {
              "internalType": "string",
              "name": "imageURL",
              "type": "string"
            }
          ],
          "internalType": "struct IdentiFi.ProfessionalInfo",
          "name": "professionalInfo",
          "type": "tuple"
        },
        {
          "components": [
            {
              "internalType": "string",
              "name": "x",
              "type": "string"
            },
            {
              "internalType": "string",
              "name": "instagram",
              "type": "string"
            },
            {
              "internalType": "string",
              "name": "tiktok",
              "type": "string"
            },
            {
              "internalType": "string",
              "name": "youtube",
              "type": "string"
            },
            {
              "internalType": "string",
              "name": "linkedin",
              "type": "string"
            }
          ],
          "internalType": "struct IdentiFi.SocialLinks",
          "name": "socialLinks",
          "type": "tuple"
        },
        {
          "components": [
            {
              "internalType": "bool",
              "name": "education",
              "type": "bool"
            },
            {
              "internalType": "bool",
              "name": "workHistory",
              "type": "bool"
            },
            {
              "internalType": "bool",
              "name": "phoneNumber",
              "type": "bool"
            },
            {
              "internalType": "bool",
              "name": "homeAddress",
              "type": "bool"
            },
            {
              "internalType": "bool",
              "name": "dateOfBirth",
              "type": "bool"
            }
          ],
          "internalType": "struct IdentiFi.Visibility",
          "name": "visibility",
          "type": "tuple"
        }
      ],
      "name": "createUser",
      "outputs": [],
      "stateMutability": "nonpayable",
      "type": "function"
    },
    {
      "inputs": [
        {
          "internalType": "string",
          "name": "username",
          "type": "string"
        },
        {
          "components": [
            {
              "internalType": "string",
              "name": "firstName",
              "type": "string"
            },
            {
              "internalType": "string",
              "name": "lastName",
              "type": "string"
            },
            {
              "internalType": "string",
              "name": "email",
              "type": "string"
            },
            {
              "internalType": "string",
              "name": "homeAddress",
              "type": "string"
            },
            {
              "internalType": "string",
              "name": "dateOfBirth",
              "type": "string"
            },
            {
              "internalType": "string",
              "name": "phoneNumber",
              "type": "string"
            }
          ],
          "internalType": "struct IdentiFi.BasicInfo",
          "name": "basicInfo",
          "type": "tuple"
        },
        {
          "components": [
            {
              "internalType": "string",
              "name": "education",
              "type": "string"
            },
            {
              "internalType": "string",
              "name": "workHistory",
              "type": "string"
            },
            {
              "internalType": "string",
              "name": "jobTitle",
              "type": "string"
            },
            {
              "internalType": "string",
              "name": "info",
              "type": "string"
            },
            {
              "internalType": "string[]",
              "name": "skills",
              "type": "string[]"
            },
            {
              "internalType": "string",
              "name": "imageURL",
              "type": "string"
            }
          ],
          "internalType": "struct IdentiFi.ProfessionalInfo",
          "name": "professionalInfo",
          "type": "tuple"
        },
        {
          "components": [
            {
              "internalType": "string",
              "name": "x",
              "type": "string"
            },
            {
              "internalType": "string",
              "name": "instagram",
              "type": "string"
            },
            {
              "internalType": "string",
              "name": "tiktok",
              "type": "string"
            },
            {
              "internalType": "string",
              "name": "youtube",
              "type": "string"
            },
            {
              "internalType": "string",
              "name": "linkedin",
              "type": "string"
            }
          ],
          "internalType": "struct IdentiFi.SocialLinks",
          "name": "socialLinks",
          "type": "tuple"
        },
        {
          "components": [
            {
              "internalType": "bool",
              "name": "education",
              "type": "bool"
            },
            {
              "internalType": "bool",
              "name": "workHistory",
              "type": "bool"
            },
            {
              "internalType": "bool",
              "name": "phoneNumber",
              "type": "bool"
            },
            {
              "internalType": "bool",
              "name": "homeAddress",
              "type": "bool"
            },
            {
              "internalType": "bool",
              "name": "dateOfBirth",
              "type": "bool"
            }
          ],
          "internalType": "struct IdentiFi.Visibility",
          "name": "visibility",
          "type": "tuple"
        }
      ],
      "name": "editUser",
      "outputs": [],
      "stateMutability": "nonpayable",
      "type": "function"
    },
    {
      "inputs": [
        {
          "internalType": "string",
          "name": "username",
          "type": "string"
        }
      ],
      "name": "getJobs",
      "outputs": [
        {
          "internalType": "uint256[]",
          "name": "",
          "type": "uint256[]"
        }
      ],
      "stateMutability": "view",
      "type": "function"
    },
    {
      "inputs": [
        {
          "internalType": "address",
          "name": "userAddress",
          "type": "address"
        }
      ],
      "name": "getUserByAddress",
      "outputs": [
        {
          "components": [
            {
              "internalType": "string",
              "name": "firstName",
              "type": "string"
            },
            {
              "internalType": "string",
              "name": "lastName",
              "type": "string"
            },
            {
              "internalType": "string",
              "name": "email",
              "type": "string"
            },
            {
              "internalType": "string",
              "name": "homeAddress",
              "type": "string"
            },
            {
              "internalType": "string",
              "name": "dateOfBirth",
              "type": "string"
            },
            {
              "internalType": "string",
              "name": "phoneNumber",
              "type": "string"
            }
          ],
          "internalType": "struct IdentiFi.BasicInfo",
          "name": "basicInfo",
          "type": "tuple"
        },
        {
          "components": [
            {
              "internalType": "string",
              "name": "education",
              "type": "string"
            },
            {
              "internalType": "string",
              "name": "workHistory",
              "type": "string"
            },
            {
              "internalType": "string",
              "name": "jobTitle",
              "type": "string"
            },
            {
              "internalType": "string",
              "name": "info",
              "type": "string"
            },
            {
              "internalType": "string[]",
              "name": "skills",
              "type": "string[]"
            },
            {
              "internalType": "string",
              "name": "imageURL",
              "type": "string"
            }
          ],
          "internalType": "struct IdentiFi.ProfessionalInfo",
          "name": "professionalInfo",
          "type": "tuple"
        },
        {
          "components": [
            {
              "internalType": "string",
              "name": "x",
              "type": "string"
            },
            {
              "internalType": "string",
              "name": "instagram",
              "type": "string"
            },
            {
              "internalType": "string",
              "name": "tiktok",
              "type": "string"
            },
            {
              "internalType": "string",
              "name": "youtube",
              "type": "string"
            },
            {
              "internalType": "string",
              "name": "linkedin",
              "type": "string"
            }
          ],
          "internalType": "struct IdentiFi.SocialLinks",
          "name": "socialLinks",
          "type": "tuple"
        },
        {
          "components": [
            {
              "internalType": "bool",
              "name": "education",
              "type": "bool"
            },
            {
              "internalType": "bool",
              "name": "workHistory",
              "type": "bool"
            },
            {
              "internalType": "bool",
              "name": "phoneNumber",
              "type": "bool"
            },
            {
              "internalType": "bool",
              "name": "homeAddress",
              "type": "bool"
            },
            {
              "internalType": "bool",
              "name": "dateOfBirth",
              "type": "bool"
            }
          ],
          "internalType": "struct IdentiFi.Visibility",
          "name": "visibility",
          "type": "tuple"
        }
      ],
      "stateMutability": "view",
      "type": "function"
    },
    {
      "inputs": [
        {
          "internalType": "string",
          "name": "username",
          "type": "string"
        }
      ],
      "name": "getUserByUsername",
      "outputs": [
        {
          "components": [
            {
              "internalType": "string",
              "name": "firstName",
              "type": "string"
            },
            {
              "internalType": "string",
              "name": "lastName",
              "type": "string"
            },
            {
              "internalType": "string",
              "name": "email",
              "type": "string"
            },
            {
              "internalType": "string",
              "name": "homeAddress",
              "type": "string"
            },
            {
              "internalType": "string",
              "name": "dateOfBirth",
              "type": "string"
            },
            {
              "internalType": "string",
              "name": "phoneNumber",
              "type": "string"
            }
          ],
          "internalType": "struct IdentiFi.BasicInfo",
          "name": "basicInfo",
          "type": "tuple"
        },
        {
          "components": [
            {
              "internalType": "string",
              "name": "education",
              "type": "string"
            },
            {
              "internalType": "string",
              "name": "workHistory",
              "type": "string"
            },
            {
              "internalType": "string",
              "name": "jobTitle",
              "type": "string"
            },
            {
              "internalType": "string",
              "name": "info",
              "type": "string"
            },
            {
              "internalType": "string[]",
              "name": "skills",
              "type": "string[]"
            },
            {
              "internalType": "string",
              "name": "imageURL",
              "type": "string"
            }
          ],
          "internalType": "struct IdentiFi.ProfessionalInfo",
          "name": "professionalInfo",
          "type": "tuple"
        },
        {
          "components": [
            {
              "internalType": "string",
              "name": "x",
              "type": "string"
            },
            {
              "internalType": "string",
              "name": "instagram",
              "type": "string"
            },
            {
              "internalType": "string",
              "name": "tiktok",
              "type": "string"
            },
            {
              "internalType": "string",
              "name": "youtube",
              "type": "string"
            },
            {
              "internalType": "string",
              "name": "linkedin",
              "type": "string"
            }
          ],
          "internalType": "struct IdentiFi.SocialLinks",
          "name": "socialLinks",
          "type": "tuple"
        },
        {
          "components": [
            {
              "internalType": "bool",
              "name": "education",
              "type": "bool"
            },
            {
              "internalType": "bool",
              "name": "workHistory",
              "type": "bool"
            },
            {
              "internalType": "bool",
              "name": "phoneNumber",
              "type": "bool"
            },
            {
              "internalType": "bool",
              "name": "homeAddress",
              "type": "bool"
            },
            {
              "internalType": "bool",
              "name": "dateOfBirth",
              "type": "bool"
            }
          ],
          "internalType": "struct IdentiFi.Visibility",
          "name": "visibility",
          "type": "tuple"
        }
      ],
      "stateMutability": "view",
      "type": "function"
    },
    {
      "inputs": [
        {
          "internalType": "address",
          "name": "userAddress",
          "type": "address"
        }
      ],
      "name": "getUsernameByAddress",
      "outputs": [
        {
          "internalType": "string",
          "name": "",
          "type": "string"
        }
      ],
      "stateMutability": "view",
      "type": "function"
    },
    {
      "inputs": [
        {
          "internalType": "string",
          "name": "username",
          "type": "string"
        }
      ],
      "name": "getVisibility",
      "outputs": [
        {
          "components": [
            {
              "internalType": "bool",
              "name": "education",
              "type": "bool"
            },
            {
              "internalType": "bool",
              "name": "workHistory",
              "type": "bool"
            },
            {
              "internalType": "bool",
              "name": "phoneNumber",
              "type": "bool"
            },
            {
              "internalType": "bool",
              "name": "homeAddress",
              "type": "bool"
            },
            {
              "internalType": "bool",
              "name": "dateOfBirth",
              "type": "bool"
            }
          ],
          "internalType": "struct IdentiFi.Visibility",
          "name": "",
          "type": "tuple"
        }
      ],
      "stateMutability": "view",
      "type": "function"
    },
    {
      "inputs": [
        {
          "internalType": "string",
          "name": "username",
          "type": "string"
        },
        {
          "internalType": "bool",
          "name": "education",
          "type": "bool"
        },
        {
          "internalType": "bool",
          "name": "workHistory",
          "type": "bool"
        },
        {
          "internalType": "bool",
          "name": "phoneNumber",
          "type": "bool"
        },
        {
          "internalType": "bool",
          "name": "homeAddress",
          "type": "bool"
        },
        {
          "internalType": "bool",
          "name": "dateOfBirth",
          "type": "bool"
        }
      ],
      "name": "setVisibility",
      "outputs": [],
      "stateMutability": "nonpayable",
      "type": "function"
    }
  ],
  "bytecode": "0x608060405234801561001057600080fd5b50612e6e806100206000396000f3fe608060405234801561001057600080fd5b50600436106100935760003560e01c80639f42af63116100665780639f42af6314610147578063bb6228b01461017a578063d1577cac14610196578063ed1a998d146101b2578063f86a29c7146101e257610093565b8063320ba8f71461009857806349110a6b146100c85780634cb51da7146100e457806369c212f614610114575b600080fd5b6100b260048036038101906100ad9190611c74565b6101fe565b6040516100bf9190611d40565b60405180910390f35b6100e260048036038101906100dd9190611d91565b61032e565b005b6100fe60048036038101906100f99190611c74565b6103e8565b60405161010b9190611eab565b60405180910390f35b61012e60048036038101906101299190611f2b565b6104cf565b60405161013e9493929190612283565b60405180910390f35b610161600480360381019061015c9190611c74565b6105d4565b6040516101719493929190612283565b60405180910390f35b610194600480360381019061018f919061282e565b61113d565b005b6101b060048036038101906101ab919061291a565b6114ac565b005b6101cc60048036038101906101c79190611f2b565b6115df565b6040516101d99190612a0d565b60405180910390f35b6101fc60048036038101906101f7919061282e565b6116b0565b005b61020661196c565b6000826040516102169190612a6b565b908152602001604051809103902060120160009054906101000a900460ff16610274576040517f08c379a000000000000000000000000000000000000000000000000000000000815260040161026b90612ace565b60405180910390fd5b6000826040516102849190612a6b565b90815260200160405180910390206014016040518060a00160405290816000820160009054906101000a900460ff161515151581526020016000820160019054906101000a900460ff161515151581526020016000820160029054906101000a900460ff161515151581526020016000820160039054906101000a900460ff161515151581526020016000820160049054906101000a900460ff1615151515815250509050919050565b60008260405161033e9190612a6b565b908152602001604051809103902060120160009054906101000a900460ff1661039c576040517f08c379a000000000000000000000000000000000000000000000000000000000815260040161039390612ace565b60405180910390fd5b6000826040516103ac9190612a6b565b90815260200160405180910390206013018190806001815401808255809150506001900390600052602060002001600090919091909150555050565b60606000826040516103fa9190612a6b565b908152602001604051809103902060120160009054906101000a900460ff16610458576040517f08c379a000000000000000000000000000000000000000000000000000000000815260040161044f90612ace565b60405180910390fd5b6000826040516104689190612a6b565b90815260200160405180910390206013018054806020026020016040519081016040528092919081815260200182805480156104c357602002820191906000526020600020905b8154815260200190600101908083116104af575b50505050509050919050565b6104d76119a5565b6104df6119db565b6104e7611a11565b6104ef61196c565b6000600160008773ffffffffffffffffffffffffffffffffffffffff1673ffffffffffffffffffffffffffffffffffffffff168152602001908152602001600020805461053b90612b1d565b80601f016020809104026020016040519081016040528092919081815260200182805461056790612b1d565b80156105b45780601f10610589576101008083540402835291602001916105b4565b820191906000526020600020905b81548152906001019060200180831161059757829003601f168201915b505050505090506105c4816105d4565b9450945094509450509193509193565b6105dc6119a5565b6105e46119db565b6105ec611a11565b6105f461196c565b6000856040516106049190612a6b565b908152602001604051809103902060120160009054906101000a900460ff16610662576040517f08c379a000000000000000000000000000000000000000000000000000000000815260040161065990612ace565b60405180910390fd5b600080866040516106739190612a6b565b908152602001604051809103902090506040518060c0016040528082600001805461069d90612b1d565b80601f01602080910402602001604051908101604052809291908181526020018280546106c990612b1d565b80156107165780601f106106eb57610100808354040283529160200191610716565b820191906000526020600020905b8154815290600101906020018083116106f957829003601f168201915b5050505050815260200182600101805461072f90612b1d565b80601f016020809104026020016040519081016040528092919081815260200182805461075b90612b1d565b80156107a85780601f1061077d576101008083540402835291602001916107a8565b820191906000526020600020905b81548152906001019060200180831161078b57829003601f168201915b505050505081526020018260030180546107c190612b1d565b80601f01602080910402602001604051908101604052809291908181526020018280546107ed90612b1d565b801561083a5780601f1061080f5761010080835404028352916020019161083a565b820191906000526020600020905b81548152906001019060200180831161081d57829003601f168201915b5050505050815260200182600401805461085390612b1d565b80601f016020809104026020016040519081016040528092919081815260200182805461087f90612b1d565b80156108cc5780601f106108a1576101008083540402835291602001916108cc565b820191906000526020600020905b8154815290600101906020018083116108af57829003601f168201915b505050505081526020018260050180546108e590612b1d565b80601f016020809104026020016040519081016040528092919081815260200182805461091190612b1d565b801561095e5780601f106109335761010080835404028352916020019161095e565b820191906000526020600020905b81548152906001019060200180831161094157829003601f168201915b5050505050815260200182600801805461097790612b1d565b80601f01602080910402602001604051908101604052809291908181526020018280546109a390612b1d565b80156109f05780601f106109c5576101008083540402835291602001916109f0565b820191906000526020600020905b8154815290600101906020018083116109d357829003601f168201915b505050505081525094506040518060c00160405280826006018054610a1490612b1d565b80601f0160208091040260200160405190810160405280929190818152602001828054610a4090612b1d565b8015610a8d5780601f10610a6257610100808354040283529160200191610a8d565b820191906000526020600020905b815481529060010190602001808311610a7057829003601f168201915b50505050508152602001826007018054610aa690612b1d565b80601f0160208091040260200160405190810160405280929190818152602001828054610ad290612b1d565b8015610b1f5780601f10610af457610100808354040283529160200191610b1f565b820191906000526020600020905b815481529060010190602001808311610b0257829003601f168201915b50505050508152602001826009018054610b3890612b1d565b80601f0160208091040260200160405190810160405280929190818152602001828054610b6490612b1d565b8015610bb15780601f10610b8657610100808354040283529160200191610bb1565b820191906000526020600020905b815481529060010190602001808311610b9457829003601f168201915b5050505050815260200182600f018054610bca90612b1d565b80601f0160208091040260200160405190810160405280929190818152602001828054610bf690612b1d565b8015610c435780601f10610c1857610100808354040283529160200191610c43565b820191906000526020600020905b815481529060010190602001808311610c2657829003601f168201915b5050505050815260200182601001805480602002602001604051908101604052809291908181526020016000905b82821015610d1d578382906000526020600020018054610c9090612b1d565b80601f0160208091040260200160405190810160405280929190818152602001828054610cbc90612b1d565b8015610d095780601f10610cde57610100808354040283529160200191610d09565b820191906000526020600020905b815481529060010190602001808311610cec57829003601f168201915b505050505081526020019060010190610c71565b505050508152602001826011018054610d3590612b1d565b80601f0160208091040260200160405190810160405280929190818152602001828054610d6190612b1d565b8015610dae5780601f10610d8357610100808354040283529160200191610dae565b820191906000526020600020905b815481529060010190602001808311610d9157829003601f168201915b505050505081525093506040518060a0016040528082600a018054610dd290612b1d565b80601f0160208091040260200160405190810160405280929190818152602001828054610dfe90612b1d565b8015610e4b5780601f10610e2057610100808354040283529160200191610e4b565b820191906000526020600020905b815481529060010190602001808311610e2e57829003601f168201915b5050505050815260200182600b018054610e6490612b1d565b80601f0160208091040260200160405190810160405280929190818152602001828054610e9090612b1d565b8015610edd5780601f10610eb257610100808354040283529160200191610edd565b820191906000526020600020905b815481529060010190602001808311610ec057829003601f168201915b5050505050815260200182600c018054610ef690612b1d565b80601f0160208091040260200160405190810160405280929190818152602001828054610f2290612b1d565b8015610f6f5780601f10610f4457610100808354040283529160200191610f6f565b820191906000526020600020905b815481529060010190602001808311610f5257829003601f168201915b5050505050815260200182600d018054610f8890612b1d565b80601f0160208091040260200160405190810160405280929190818152602001828054610fb490612b1d565b80156110015780601f10610fd657610100808354040283529160200191611001565b820191906000526020600020905b815481529060010190602001808311610fe457829003601f168201915b5050505050815260200182600e01805461101a90612b1d565b80601f016020809104026020016040519081016040528092919081815260200182805461104690612b1d565b80156110935780601f1061106857610100808354040283529160200191611093565b820191906000526020600020905b81548152906001019060200180831161107657829003601f168201915b50505050508152509250806014016040518060a00160405290816000820160009054906101000a900460ff161515151581526020016000820160019054906101000a900460ff161515151581526020016000820160029054906101000a900460ff161515151581526020016000820160039054906101000a900460ff161515151581526020016000820160049054906101000a900460ff1615151515815250509150509193509193565b8460028160405161114e9190612a6b565b908152602001604051809103902060009054906101000a900460ff16156111aa576040517f08c379a00000000000000000000000000000000000000000000000000000000081526004016111a190612b9a565b60405180910390fd5b600080876040516111bb9190612a6b565b9081526020016040518091039020905085600001518160000190816111e09190612d66565b5085602001518160010190816111f69190612d66565b50868160020190816112089190612d66565b50856040015181600301908161121e9190612d66565b5085606001518160040190816112349190612d66565b50856080015181600501908161124a9190612d66565b508560a001518160080190816112609190612d66565b5084600001518160060190816112769190612d66565b50846020015181600701908161128c9190612d66565b5084604001518160090190816112a29190612d66565b50836000015181600a0190816112b89190612d66565b50836020015181600b0190816112ce9190612d66565b50836040015181600c0190816112e49190612d66565b50836060015181600d0190816112fa9190612d66565b50836080015181600e0190816113109190612d66565b50846060015181600f0190816113269190612d66565b508460800151816010019080519060200190611343929190611a40565b508460a001518160110190816113599190612d66565b5060018160120160006101000a81548160ff021916908315150217905550828160140160008201518160000160006101000a81548160ff02191690831515021790555060208201518160000160016101000a81548160ff02191690831515021790555060408201518160000160026101000a81548160ff02191690831515021790555060608201518160000160036101000a81548160ff02191690831515021790555060808201518160000160046101000a81548160ff02191690831515021790555090505060016002886040516114319190612a6b565b908152602001604051809103902060006101000a81548160ff02191690831515021790555086600160003373ffffffffffffffffffffffffffffffffffffffff1673ffffffffffffffffffffffffffffffffffffffff16815260200190815260200160002090816114a29190612d66565b5050505050505050565b6000866040516114bc9190612a6b565b908152602001604051809103902060120160009054906101000a900460ff1661151a576040517f08c379a000000000000000000000000000000000000000000000000000000000815260040161151190612ace565b60405180910390fd5b6000808760405161152b9190612a6b565b90815260200160405180910390209050858160140160000160006101000a81548160ff021916908315150217905550848160140160000160016101000a81548160ff021916908315150217905550838160140160000160026101000a81548160ff021916908315150217905550828160140160000160036101000a81548160ff021916908315150217905550818160140160000160046101000a81548160ff02191690831515021790555050505050505050565b6060600160008373ffffffffffffffffffffffffffffffffffffffff1673ffffffffffffffffffffffffffffffffffffffff168152602001908152602001600020805461162b90612b1d565b80601f016020809104026020016040519081016040528092919081815260200182805461165790612b1d565b80156116a45780601f10611679576101008083540402835291602001916116a4565b820191906000526020600020905b81548152906001019060200180831161168757829003601f168201915b50505050509050919050565b6000856040516116c09190612a6b565b908152602001604051809103902060120160009054906101000a900460ff1661171e576040517f08c379a000000000000000000000000000000000000000000000000000000000815260040161171590612ace565b60405180910390fd5b6000808660405161172f9190612a6b565b9081526020016040518091039020905084600001518160000190816117549190612d66565b50846020015181600101908161176a9190612d66565b5084604001518160030190816117809190612d66565b5084606001518160040190816117969190612d66565b5084608001518160050190816117ac9190612d66565b508460a001518160080190816117c29190612d66565b5083600001518160060190816117d89190612d66565b5083602001518160070190816117ee9190612d66565b5083604001518160090190816118049190612d66565b50826000015181600a01908161181a9190612d66565b50826020015181600b0190816118309190612d66565b50826040015181600c0190816118469190612d66565b50826060015181600d01908161185c9190612d66565b50826080015181600e0190816118729190612d66565b50836060015181600f0190816118889190612d66565b5083608001518160100190805190602001906118a5929190611a40565b508360a001518160110190816118bb9190612d66565b50818160140160008201518160000160006101000a81548160ff02191690831515021790555060208201518160000160016101000a81548160ff02191690831515021790555060408201518160000160026101000a81548160ff02191690831515021790555060608201518160000160036101000a81548160ff02191690831515021790555060808201518160000160046101000a81548160ff021916908315150217905550905050505050505050565b6040518060a001604052806000151581526020016000151581526020016000151581526020016000151581526020016000151581525090565b6040518060c001604052806060815260200160608152602001606081526020016060815260200160608152602001606081525090565b6040518060c001604052806060815260200160608152602001606081526020016060815260200160608152602001606081525090565b6040518060a0016040528060608152602001606081526020016060815260200160608152602001606081525090565b828054828255906000526020600020908101928215611a88579160200282015b82811115611a87578251829081611a779190612d66565b5091602001919060010190611a60565b5b509050611a959190611a99565b5090565b5b80821115611ab95760008181611ab09190611abd565b50600101611a9a565b5090565b508054611ac990612b1d565b6000825580601f10611adb5750611afa565b601f016020900490600052602060002090810190611af99190611afd565b5b50565b5b80821115611b16576000816000905550600101611afe565b5090565b6000604051905090565b600080fd5b600080fd5b600080fd5b600080fd5b6000601f19601f8301169050919050565b7f4e487b7100000000000000000000000000000000000000000000000000000000600052604160045260246000fd5b611b8182611b38565b810181811067ffffffffffffffff82111715611ba057611b9f611b49565b5b80604052505050565b6000611bb3611b1a565b9050611bbf8282611b78565b919050565b600067ffffffffffffffff821115611bdf57611bde611b49565b5b611be882611b38565b9050602081019050919050565b82818337600083830152505050565b6000611c17611c1284611bc4565b611ba9565b905082815260208101848484011115611c3357611c32611b33565b5b611c3e848285611bf5565b509392505050565b600082601f830112611c5b57611c5a611b2e565b5b8135611c6b848260208601611c04565b91505092915050565b600060208284031215611c8a57611c89611b24565b5b600082013567ffffffffffffffff811115611ca857611ca7611b29565b5b611cb484828501611c46565b91505092915050565b60008115159050919050565b611cd281611cbd565b82525050565b60a082016000820151611cee6000850182611cc9565b506020820151611d016020850182611cc9565b506040820151611d146040850182611cc9565b506060820151611d276060850182611cc9565b506080820151611d3a6080850182611cc9565b50505050565b600060a082019050611d556000830184611cd8565b92915050565b6000819050919050565b611d6e81611d5b565b8114611d7957600080fd5b50565b600081359050611d8b81611d65565b92915050565b60008060408385031215611da857611da7611b24565b5b600083013567ffffffffffffffff811115611dc657611dc5611b29565b5b611dd285828601611c46565b9250506020611de385828601611d7c565b9150509250929050565b600081519050919050565b600082825260208201905092915050565b6000819050602082019050919050565b611e2281611d5b565b82525050565b6000611e348383611e19565b60208301905092915050565b6000602082019050919050565b6000611e5882611ded565b611e628185611df8565b9350611e6d83611e09565b8060005b83811015611e9e578151611e858882611e28565b9750611e9083611e40565b925050600181019050611e71565b5085935050505092915050565b60006020820190508181036000830152611ec58184611e4d565b905092915050565b600073ffffffffffffffffffffffffffffffffffffffff82169050919050565b6000611ef882611ecd565b9050919050565b611f0881611eed565b8114611f1357600080fd5b50565b600081359050611f2581611eff565b92915050565b600060208284031215611f4157611f40611b24565b5b6000611f4f84828501611f16565b91505092915050565b600081519050919050565b600082825260208201905092915050565b60005b83811015611f92578082015181840152602081019050611f77565b60008484015250505050565b6000611fa982611f58565b611fb38185611f63565b9350611fc3818560208601611f74565b611fcc81611b38565b840191505092915050565b600060c0830160008301518482036000860152611ff48282611f9e565b9150506020830151848203602086015261200e8282611f9e565b915050604083015184820360408601526120288282611f9e565b915050606083015184820360608601526120428282611f9e565b9150506080830151848203608086015261205c8282611f9e565b91505060a083015184820360a08601526120768282611f9e565b9150508091505092915050565b600081519050919050565b600082825260208201905092915050565b6000819050602082019050919050565b60006120bb8383611f9e565b905092915050565b6000602082019050919050565b60006120db82612083565b6120e5818561208e565b9350836020820285016120f78561209f565b8060005b85811015612133578484038952815161211485826120af565b945061211f836120c3565b925060208a019950506001810190506120fb565b50829750879550505050505092915050565b600060c08301600083015184820360008601526121628282611f9e565b9150506020830151848203602086015261217c8282611f9e565b915050604083015184820360408601526121968282611f9e565b915050606083015184820360608601526121b08282611f9e565b915050608083015184820360808601526121ca82826120d0565b91505060a083015184820360a08601526121e48282611f9e565b9150508091505092915050565b600060a083016000830151848203600086015261220e8282611f9e565b915050602083015184820360208601526122288282611f9e565b915050604083015184820360408601526122428282611f9e565b9150506060830151848203606086015261225c8282611f9e565b915050608083015184820360808601526122768282611f9e565b9150508091505092915050565b600061010082019050818103600083015261229e8187611fd7565b905081810360208301526122b28186612145565b905081810360408301526122c681856121f1565b90506122d56060830184611cd8565b95945050505050565b600080fd5b600080fd5b600060c082840312156122fe576122fd6122de565b5b61230860c0611ba9565b9050600082013567ffffffffffffffff811115612328576123276122e3565b5b61233484828501611c46565b600083015250602082013567ffffffffffffffff811115612358576123576122e3565b5b61236484828501611c46565b602083015250604082013567ffffffffffffffff811115612388576123876122e3565b5b61239484828501611c46565b604083015250606082013567ffffffffffffffff8111156123b8576123b76122e3565b5b6123c484828501611c46565b606083015250608082013567ffffffffffffffff8111156123e8576123e76122e3565b5b6123f484828501611c46565b60808301525060a082013567ffffffffffffffff811115612418576124176122e3565b5b61242484828501611c46565b60a08301525092915050565b600067ffffffffffffffff82111561244b5761244a611b49565b5b602082029050602081019050919050565b600080fd5b600061247461246f84612430565b611ba9565b905080838252602082019050602084028301858111156124975761249661245c565b5b835b818110156124de57803567ffffffffffffffff8111156124bc576124bb611b2e565b5b8086016124c98982611c46565b85526020850194505050602081019050612499565b5050509392505050565b600082601f8301126124fd576124fc611b2e565b5b813561250d848260208601612461565b91505092915050565b600060c0828403121561252c5761252b6122de565b5b61253660c0611ba9565b9050600082013567ffffffffffffffff811115612556576125556122e3565b5b61256284828501611c46565b600083015250602082013567ffffffffffffffff811115612586576125856122e3565b5b61259284828501611c46565b602083015250604082013567ffffffffffffffff8111156125b6576125b56122e3565b5b6125c284828501611c46565b604083015250606082013567ffffffffffffffff8111156125e6576125e56122e3565b5b6125f284828501611c46565b606083015250608082013567ffffffffffffffff811115612616576126156122e3565b5b612622848285016124e8565b60808301525060a082013567ffffffffffffffff811115612646576126456122e3565b5b61265284828501611c46565b60a08301525092915050565b600060a08284031215612674576126736122de565b5b61267e60a0611ba9565b9050600082013567ffffffffffffffff81111561269e5761269d6122e3565b5b6126aa84828501611c46565b600083015250602082013567ffffffffffffffff8111156126ce576126cd6122e3565b5b6126da84828501611c46565b602083015250604082013567ffffffffffffffff8111156126fe576126fd6122e3565b5b61270a84828501611c46565b604083015250606082013567ffffffffffffffff81111561272e5761272d6122e3565b5b61273a84828501611c46565b606083015250608082013567ffffffffffffffff81111561275e5761275d6122e3565b5b61276a84828501611c46565b60808301525092915050565b61277f81611cbd565b811461278a57600080fd5b50565b60008135905061279c81612776565b92915050565b600060a082840312156127b8576127b76122de565b5b6127c260a0611ba9565b905060006127d28482850161278d565b60008301525060206127e68482850161278d565b60208301525060406127fa8482850161278d565b604083015250606061280e8482850161278d565b60608301525060806128228482850161278d565b60808301525092915050565b6000806000806000610120868803121561284b5761284a611b24565b5b600086013567ffffffffffffffff81111561286957612868611b29565b5b61287588828901611c46565b955050602086013567ffffffffffffffff81111561289657612895611b29565b5b6128a2888289016122e8565b945050604086013567ffffffffffffffff8111156128c3576128c2611b29565b5b6128cf88828901612516565b935050606086013567ffffffffffffffff8111156128f0576128ef611b29565b5b6128fc8882890161265e565b925050608061290d888289016127a2565b9150509295509295909350565b60008060008060008060c0878903121561293757612936611b24565b5b600087013567ffffffffffffffff81111561295557612954611b29565b5b61296189828a01611c46565b965050602061297289828a0161278d565b955050604061298389828a0161278d565b945050606061299489828a0161278d565b93505060806129a589828a0161278d565b92505060a06129b689828a0161278d565b9150509295509295509295565b600082825260208201905092915050565b60006129df82611f58565b6129e981856129c3565b93506129f9818560208601611f74565b612a0281611b38565b840191505092915050565b60006020820190508181036000830152612a2781846129d4565b905092915050565b600081905092915050565b6000612a4582611f58565b612a4f8185612a2f565b9350612a5f818560208601611f74565b80840191505092915050565b6000612a778284612a3a565b915081905092915050565b7f5573657220646f6573206e6f742065786973742e000000000000000000000000600082015250565b6000612ab86014836129c3565b9150612ac382612a82565b602082019050919050565b60006020820190508181036000830152612ae781612aab565b9050919050565b7f4e487b7100000000000000000000000000000000000000000000000000000000600052602260045260246000fd5b60006002820490506001821680612b3557607f821691505b602082108103612b4857612b47612aee565b5b50919050565b7f557365726e616d6520616c7265616479206578697374732e0000000000000000600082015250565b6000612b846018836129c3565b9150612b8f82612b4e565b602082019050919050565b60006020820190508181036000830152612bb381612b77565b9050919050565b60008190508160005260206000209050919050565b60006020601f8301049050919050565b600082821b905092915050565b600060088302612c1c7fffffffffffffffffffffffffffffffffffffffffffffffffffffffffffffffff82612bdf565b612c268683612bdf565b95508019841693508086168417925050509392505050565b6000819050919050565b6000612c63612c5e612c5984611d5b565b612c3e565b611d5b565b9050919050565b6000819050919050565b612c7d83612c48565b612c91612c8982612c6a565b848454612bec565b825550505050565b600090565b612ca6612c99565b612cb1818484612c74565b505050565b5b81811015612cd557612cca600082612c9e565b600181019050612cb7565b5050565b601f821115612d1a57612ceb81612bba565b612cf484612bcf565b81016020851015612d03578190505b612d17612d0f85612bcf565b830182612cb6565b50505b505050565b600082821c905092915050565b6000612d3d60001984600802612d1f565b1980831691505092915050565b6000612d568383612d2c565b9150826002028217905092915050565b612d6f82611f58565b67ffffffffffffffff811115612d8857612d87611b49565b5b612d928254612b1d565b612d9d828285612cd9565b600060209050601f831160018114612dd05760008415612dbe578287015190505b612dc88582612d4a565b865550612e30565b601f198416612dde86612bba565b60005b82811015612e0657848901518255600182019150602085019450602081019050612de1565b86831015612e235784890151612e1f601f891682612d2c565b8355505b6001600288020188555050505b50505050505056fea2646970667358221220c1478feb30f126cfe8f7b2986f3df38d2ac23503a59053e2510546aeb4b19eb164736f6c63430008180033",
  "linkReferences": {},
  "deployedLinkReferences": {}
}