{
  "_format": "hh-sol-artifact-1",
  "contractName": "IdentiFi",
  "sourceName": "contracts/identiFi.sol",
  "abi": [
    {
      "inputs": [
        {
          "internalType": "address",
          "name": "_vrfCoordinator",
          "type": "address"
        },
        {
          "internalType": "address",
          "name": "_linkToken",
          "type": "address"
        },
        {
          "internalType": "bytes32",
          "name": "_keyHash",
          "type": "bytes32"
        },
        {
          "internalType": "uint256",
          "name": "_fee",
          "type": "uint256"
        },
        {
          "internalType": "address",
          "name": "_batch",
          "type": "address"
        }
      ],
      "stateMutability": "nonpayable",
      "type": "constructor"
    },
    {
      "inputs": [
        {
          "internalType": "string",
          "name": "username",
          "type": "string"
        },
        {
          "internalType": "uint256",
          "name": "jobId",
          "type": "uint256"
        }
      ],
      "name": "addJob",
      "outputs": [],
      "stateMutability": "nonpayable",
      "type": "function"
    },
    {
      "inputs": [
        {
          "internalType": "address",
          "name": "",
          "type": "address"
        }
      ],
      "name": "addressToDID",
      "outputs": [
        {
          "internalType": "uint256",
          "name": "",
          "type": "uint256"
        }
      ],
      "stateMutability": "view",
      "type": "function"
    },
    {
      "inputs": [],
      "name": "batch",
      "outputs": [
        {
          "internalType": "contract IBatch",
          "name": "",
          "type": "address"
        }
      ],
      "stateMutability": "view",
      "type": "function"
    },
    {
      "inputs": [
        {
          "internalType": "string[]",
          "name": "usernames",
          "type": "string[]"
        },
        {
          "components": [
            {
              "internalType": "string",
              "name": "firstName",
              "type": "string"
            },
            {
              "internalType": "string",
              "name": "lastName",
              "type": "string"
            },
            {
              "internalType": "string",
              "name": "email",
              "type": "string"
            },
            {
              "internalType": "string",
              "name": "homeAddress",
              "type": "string"
            },
            {
              "internalType": "string",
              "name": "dateOfBirth",
              "type": "string"
            },
            {
              "internalType": "string",
              "name": "phoneNumber",
              "type": "string"
            }
          ],
          "internalType": "struct IdentiFi.BasicInfo[]",
          "name": "basicInfos",
          "type": "tuple[]"
        },
        {
          "components": [
            {
              "internalType": "string",
              "name": "education",
              "type": "string"
            },
            {
              "internalType": "string",
              "name": "workHistory",
              "type": "string"
            },
            {
              "internalType": "string",
              "name": "jobTitle",
              "type": "string"
            },
            {
              "internalType": "string",
              "name": "info",
              "type": "string"
            },
            {
              "internalType": "string[]",
              "name": "skills",
              "type": "string[]"
            },
            {
              "internalType": "string",
              "name": "imageURL",
              "type": "string"
            }
          ],
          "internalType": "struct IdentiFi.ProfessionalInfo[]",
          "name": "professionalInfos",
          "type": "tuple[]"
        },
        {
          "components": [
            {
              "internalType": "string",
              "name": "x",
              "type": "string"
            },
            {
              "internalType": "string",
              "name": "instagram",
              "type": "string"
            },
            {
              "internalType": "string",
              "name": "tiktok",
              "type": "string"
            },
            {
              "internalType": "string",
              "name": "youtube",
              "type": "string"
            },
            {
              "internalType": "string",
              "name": "linkedin",
              "type": "string"
            }
          ],
          "internalType": "struct IdentiFi.SocialLinks[]",
          "name": "socialLinksArray",
          "type": "tuple[]"
        },
        {
          "components": [
            {
              "internalType": "bool",
              "name": "education",
              "type": "bool"
            },
            {
              "internalType": "bool",
              "name": "workHistory",
              "type": "bool"
            },
            {
              "internalType": "bool",
              "name": "phoneNumber",
              "type": "bool"
            },
            {
              "internalType": "bool",
              "name": "homeAddress",
              "type": "bool"
            },
            {
              "internalType": "bool",
              "name": "dateOfBirth",
              "type": "bool"
            }
          ],
          "internalType": "struct IdentiFi.Visibility[]",
          "name": "visibilities",
          "type": "tuple[]"
        }
      ],
      "name": "batchCreateUsers",
      "outputs": [],
      "stateMutability": "nonpayable",
      "type": "function"
    },
    {
      "inputs": [
        {
          "internalType": "string",
          "name": "username",
          "type": "string"
        },
        {
          "components": [
            {
              "internalType": "string",
              "name": "firstName",
              "type": "string"
            },
            {
              "internalType": "string",
              "name": "lastName",
              "type": "string"
            },
            {
              "internalType": "string",
              "name": "email",
              "type": "string"
            },
            {
              "internalType": "string",
              "name": "homeAddress",
              "type": "string"
            },
            {
              "internalType": "string",
              "name": "dateOfBirth",
              "type": "string"
            },
            {
              "internalType": "string",
              "name": "phoneNumber",
              "type": "string"
            }
          ],
          "internalType": "struct IdentiFi.BasicInfo",
          "name": "basicInfo",
          "type": "tuple"
        },
        {
          "components": [
            {
              "internalType": "string",
              "name": "education",
              "type": "string"
            },
            {
              "internalType": "string",
              "name": "workHistory",
              "type": "string"
            },
            {
              "internalType": "string",
              "name": "jobTitle",
              "type": "string"
            },
            {
              "internalType": "string",
              "name": "info",
              "type": "string"
            },
            {
              "internalType": "string[]",
              "name": "skills",
              "type": "string[]"
            },
            {
              "internalType": "string",
              "name": "imageURL",
              "type": "string"
            }
          ],
          "internalType": "struct IdentiFi.ProfessionalInfo",
          "name": "professionalInfo",
          "type": "tuple"
        },
        {
          "components": [
            {
              "internalType": "string",
              "name": "x",
              "type": "string"
            },
            {
              "internalType": "string",
              "name": "instagram",
              "type": "string"
            },
            {
              "internalType": "string",
              "name": "tiktok",
              "type": "string"
            },
            {
              "internalType": "string",
              "name": "youtube",
              "type": "string"
            },
            {
              "internalType": "string",
              "name": "linkedin",
              "type": "string"
            }
          ],
          "internalType": "struct IdentiFi.SocialLinks",
          "name": "socialLinks",
          "type": "tuple"
        },
        {
          "components": [
            {
              "internalType": "bool",
              "name": "education",
              "type": "bool"
            },
            {
              "internalType": "bool",
              "name": "workHistory",
              "type": "bool"
            },
            {
              "internalType": "bool",
              "name": "phoneNumber",
              "type": "bool"
            },
            {
              "internalType": "bool",
              "name": "homeAddress",
              "type": "bool"
            },
            {
              "internalType": "bool",
              "name": "dateOfBirth",
              "type": "bool"
            }
          ],
          "internalType": "struct IdentiFi.Visibility",
          "name": "visibility",
          "type": "tuple"
        }
      ],
      "name": "createUser",
      "outputs": [],
      "stateMutability": "nonpayable",
      "type": "function"
    },
    {
      "inputs": [
        {
          "internalType": "string",
          "name": "username",
          "type": "string"
        },
        {
          "components": [
            {
              "internalType": "string",
              "name": "firstName",
              "type": "string"
            },
            {
              "internalType": "string",
              "name": "lastName",
              "type": "string"
            },
            {
              "internalType": "string",
              "name": "email",
              "type": "string"
            },
            {
              "internalType": "string",
              "name": "homeAddress",
              "type": "string"
            },
            {
              "internalType": "string",
              "name": "dateOfBirth",
              "type": "string"
            },
            {
              "internalType": "string",
              "name": "phoneNumber",
              "type": "string"
            }
          ],
          "internalType": "struct IdentiFi.BasicInfo",
          "name": "basicInfo",
          "type": "tuple"
        },
        {
          "components": [
            {
              "internalType": "string",
              "name": "education",
              "type": "string"
            },
            {
              "internalType": "string",
              "name": "workHistory",
              "type": "string"
            },
            {
              "internalType": "string",
              "name": "jobTitle",
              "type": "string"
            },
            {
              "internalType": "string",
              "name": "info",
              "type": "string"
            },
            {
              "internalType": "string[]",
              "name": "skills",
              "type": "string[]"
            },
            {
              "internalType": "string",
              "name": "imageURL",
              "type": "string"
            }
          ],
          "internalType": "struct IdentiFi.ProfessionalInfo",
          "name": "professionalInfo",
          "type": "tuple"
        },
        {
          "components": [
            {
              "internalType": "string",
              "name": "x",
              "type": "string"
            },
            {
              "internalType": "string",
              "name": "instagram",
              "type": "string"
            },
            {
              "internalType": "string",
              "name": "tiktok",
              "type": "string"
            },
            {
              "internalType": "string",
              "name": "youtube",
              "type": "string"
            },
            {
              "internalType": "string",
              "name": "linkedin",
              "type": "string"
            }
          ],
          "internalType": "struct IdentiFi.SocialLinks",
          "name": "socialLinks",
          "type": "tuple"
        },
        {
          "components": [
            {
              "internalType": "bool",
              "name": "education",
              "type": "bool"
            },
            {
              "internalType": "bool",
              "name": "workHistory",
              "type": "bool"
            },
            {
              "internalType": "bool",
              "name": "phoneNumber",
              "type": "bool"
            },
            {
              "internalType": "bool",
              "name": "homeAddress",
              "type": "bool"
            },
            {
              "internalType": "bool",
              "name": "dateOfBirth",
              "type": "bool"
            }
          ],
          "internalType": "struct IdentiFi.Visibility",
          "name": "visibility",
          "type": "tuple"
        }
      ],
      "name": "editUser",
      "outputs": [],
      "stateMutability": "nonpayable",
      "type": "function"
    },
    {
      "inputs": [
        {
          "internalType": "string",
          "name": "username",
          "type": "string"
        }
      ],
      "name": "getJobs",
      "outputs": [
        {
          "internalType": "uint256[]",
          "name": "",
          "type": "uint256[]"
        }
      ],
      "stateMutability": "view",
      "type": "function"
    },
    {
      "inputs": [
        {
          "internalType": "address",
          "name": "userAddress",
          "type": "address"
        }
      ],
      "name": "getUserByAddress",
      "outputs": [
        {
          "components": [
            {
              "internalType": "string",
              "name": "firstName",
              "type": "string"
            },
            {
              "internalType": "string",
              "name": "lastName",
              "type": "string"
            },
            {
              "internalType": "string",
              "name": "email",
              "type": "string"
            },
            {
              "internalType": "string",
              "name": "homeAddress",
              "type": "string"
            },
            {
              "internalType": "string",
              "name": "dateOfBirth",
              "type": "string"
            },
            {
              "internalType": "string",
              "name": "phoneNumber",
              "type": "string"
            }
          ],
          "internalType": "struct IdentiFi.BasicInfo",
          "name": "basicInfo",
          "type": "tuple"
        },
        {
          "components": [
            {
              "internalType": "string",
              "name": "education",
              "type": "string"
            },
            {
              "internalType": "string",
              "name": "workHistory",
              "type": "string"
            },
            {
              "internalType": "string",
              "name": "jobTitle",
              "type": "string"
            },
            {
              "internalType": "string",
              "name": "info",
              "type": "string"
            },
            {
              "internalType": "string[]",
              "name": "skills",
              "type": "string[]"
            },
            {
              "internalType": "string",
              "name": "imageURL",
              "type": "string"
            }
          ],
          "internalType": "struct IdentiFi.ProfessionalInfo",
          "name": "professionalInfo",
          "type": "tuple"
        },
        {
          "components": [
            {
              "internalType": "string",
              "name": "x",
              "type": "string"
            },
            {
              "internalType": "string",
              "name": "instagram",
              "type": "string"
            },
            {
              "internalType": "string",
              "name": "tiktok",
              "type": "string"
            },
            {
              "internalType": "string",
              "name": "youtube",
              "type": "string"
            },
            {
              "internalType": "string",
              "name": "linkedin",
              "type": "string"
            }
          ],
          "internalType": "struct IdentiFi.SocialLinks",
          "name": "socialLinks",
          "type": "tuple"
        },
        {
          "components": [
            {
              "internalType": "bool",
              "name": "education",
              "type": "bool"
            },
            {
              "internalType": "bool",
              "name": "workHistory",
              "type": "bool"
            },
            {
              "internalType": "bool",
              "name": "phoneNumber",
              "type": "bool"
            },
            {
              "internalType": "bool",
              "name": "homeAddress",
              "type": "bool"
            },
            {
              "internalType": "bool",
              "name": "dateOfBirth",
              "type": "bool"
            }
          ],
          "internalType": "struct IdentiFi.Visibility",
          "name": "visibility",
          "type": "tuple"
        }
      ],
      "stateMutability": "view",
      "type": "function"
    },
    {
      "inputs": [
        {
          "internalType": "string",
          "name": "username",
          "type": "string"
        }
      ],
      "name": "getUserByUsername",
      "outputs": [
        {
          "components": [
            {
              "internalType": "string",
              "name": "firstName",
              "type": "string"
            },
            {
              "internalType": "string",
              "name": "lastName",
              "type": "string"
            },
            {
              "internalType": "string",
              "name": "email",
              "type": "string"
            },
            {
              "internalType": "string",
              "name": "homeAddress",
              "type": "string"
            },
            {
              "internalType": "string",
              "name": "dateOfBirth",
              "type": "string"
            },
            {
              "internalType": "string",
              "name": "phoneNumber",
              "type": "string"
            }
          ],
          "internalType": "struct IdentiFi.BasicInfo",
          "name": "basicInfo",
          "type": "tuple"
        },
        {
          "components": [
            {
              "internalType": "string",
              "name": "education",
              "type": "string"
            },
            {
              "internalType": "string",
              "name": "workHistory",
              "type": "string"
            },
            {
              "internalType": "string",
              "name": "jobTitle",
              "type": "string"
            },
            {
              "internalType": "string",
              "name": "info",
              "type": "string"
            },
            {
              "internalType": "string[]",
              "name": "skills",
              "type": "string[]"
            },
            {
              "internalType": "string",
              "name": "imageURL",
              "type": "string"
            }
          ],
          "internalType": "struct IdentiFi.ProfessionalInfo",
          "name": "professionalInfo",
          "type": "tuple"
        },
        {
          "components": [
            {
              "internalType": "string",
              "name": "x",
              "type": "string"
            },
            {
              "internalType": "string",
              "name": "instagram",
              "type": "string"
            },
            {
              "internalType": "string",
              "name": "tiktok",
              "type": "string"
            },
            {
              "internalType": "string",
              "name": "youtube",
              "type": "string"
            },
            {
              "internalType": "string",
              "name": "linkedin",
              "type": "string"
            }
          ],
          "internalType": "struct IdentiFi.SocialLinks",
          "name": "socialLinks",
          "type": "tuple"
        },
        {
          "components": [
            {
              "internalType": "bool",
              "name": "education",
              "type": "bool"
            },
            {
              "internalType": "bool",
              "name": "workHistory",
              "type": "bool"
            },
            {
              "internalType": "bool",
              "name": "phoneNumber",
              "type": "bool"
            },
            {
              "internalType": "bool",
              "name": "homeAddress",
              "type": "bool"
            },
            {
              "internalType": "bool",
              "name": "dateOfBirth",
              "type": "bool"
            }
          ],
          "internalType": "struct IdentiFi.Visibility",
          "name": "visibility",
          "type": "tuple"
        }
      ],
      "stateMutability": "view",
      "type": "function"
    },
    {
      "inputs": [
        {
          "internalType": "address",
          "name": "userAddress",
          "type": "address"
        }
      ],
      "name": "getUsernameByAddress",
      "outputs": [
        {
          "internalType": "string",
          "name": "",
          "type": "string"
        }
      ],
      "stateMutability": "view",
      "type": "function"
    },
    {
      "inputs": [
        {
          "internalType": "string",
          "name": "username",
          "type": "string"
        }
      ],
      "name": "getVisibility",
      "outputs": [
        {
          "components": [
            {
              "internalType": "bool",
              "name": "education",
              "type": "bool"
            },
            {
              "internalType": "bool",
              "name": "workHistory",
              "type": "bool"
            },
            {
              "internalType": "bool",
              "name": "phoneNumber",
              "type": "bool"
            },
            {
              "internalType": "bool",
              "name": "homeAddress",
              "type": "bool"
            },
            {
              "internalType": "bool",
              "name": "dateOfBirth",
              "type": "bool"
            }
          ],
          "internalType": "struct IdentiFi.Visibility",
          "name": "",
          "type": "tuple"
        }
      ],
      "stateMutability": "view",
      "type": "function"
    },
    {
      "inputs": [
        {
          "internalType": "bytes32",
          "name": "requestId",
          "type": "bytes32"
        },
        {
          "internalType": "uint256",
          "name": "randomness",
          "type": "uint256"
        }
      ],
      "name": "rawFulfillRandomness",
      "outputs": [],
      "stateMutability": "nonpayable",
      "type": "function"
    },
    {
      "inputs": [
        {
          "internalType": "bytes32",
          "name": "",
          "type": "bytes32"
        }
      ],
      "name": "requestIdToSender",
      "outputs": [
        {
          "internalType": "address",
          "name": "",
          "type": "address"
        }
      ],
      "stateMutability": "view",
      "type": "function"
    },
    {
      "inputs": [],
      "name": "requestNewDID",
      "outputs": [
        {
          "internalType": "bytes32",
          "name": "requestId",
          "type": "bytes32"
        }
      ],
      "stateMutability": "nonpayable",
      "type": "function"
    },
    {
      "inputs": [
        {
          "internalType": "string",
          "name": "username",
          "type": "string"
        },
        {
          "internalType": "bool",
          "name": "education",
          "type": "bool"
        },
        {
          "internalType": "bool",
          "name": "workHistory",
          "type": "bool"
        },
        {
          "internalType": "bool",
          "name": "phoneNumber",
          "type": "bool"
        },
        {
          "internalType": "bool",
          "name": "homeAddress",
          "type": "bool"
        },
        {
          "internalType": "bool",
          "name": "dateOfBirth",
          "type": "bool"
        }
      ],
      "name": "setVisibility",
      "outputs": [],
      "stateMutability": "nonpayable",
      "type": "function"
    }
  ],
  "bytecode": "0x60c06040523480156200001157600080fd5b50604051620049c1380380620049c18339818101604052810190620000379190620001dd565b84848173ffffffffffffffffffffffffffffffffffffffff1660a08173ffffffffffffffffffffffffffffffffffffffff16815250508073ffffffffffffffffffffffffffffffffffffffff1660808173ffffffffffffffffffffffffffffffffffffffff16815250505050826001819055508160028190555080600560006101000a81548173ffffffffffffffffffffffffffffffffffffffff021916908373ffffffffffffffffffffffffffffffffffffffff160217905550505050505062000265565b600080fd5b600073ffffffffffffffffffffffffffffffffffffffff82169050919050565b60006200012f8262000102565b9050919050565b620001418162000122565b81146200014d57600080fd5b50565b600081519050620001618162000136565b92915050565b6000819050919050565b6200017c8162000167565b81146200018857600080fd5b50565b6000815190506200019c8162000171565b92915050565b6000819050919050565b620001b781620001a2565b8114620001c357600080fd5b50565b600081519050620001d781620001ac565b92915050565b600080600080600060a08688031215620001fc57620001fb620000fd565b5b60006200020c8882890162000150565b95505060206200021f8882890162000150565b945050604062000232888289016200018b565b93505060606200024588828901620001c6565b9250506080620002588882890162000150565b9150509295509295909350565b60805160a0516147286200029960003960008181610c5801526122e1015260008181611d3601526122a501526147286000f3fe608060405234801561001057600080fd5b50600436106100f55760003560e01c80639f42af6311610097578063d981fbbe11610066578063d981fbbe1461029a578063ed1a998d146102b8578063f789c0a1146102e8578063f86a29c714610318576100f5565b80639f42af6314610211578063af71356614610244578063bb6228b014610262578063d1577cac1461027e576100f5565b806349110a6b116100d357806349110a6b146101765780634cb51da71461019257806369c212f6146101c257806394985ddd146101f5576100f5565b8063219c0eee146100fa5780632259bca71461012a578063320ba8f714610146575b600080fd5b610114600480360381019061010f9190612658565b610334565b60405161012191906126c6565b60405180910390f35b610144600480360381019061013f91906130e9565b610367565b005b610160600480360381019061015b91906131f0565b610880565b60405161016d91906132b0565b60405180910390f35b610190600480360381019061018b9190613301565b6109b0565b005b6101ac60048036038101906101a791906131f0565b610a6a565b6040516101b9919061341b565b60405180910390f35b6101dc60048036038101906101d79190613469565b610b51565b6040516101ec94939291906137c1565b60405180910390f35b61020f600480360381019061020a919061381c565b610c56565b005b61022b600480360381019061022691906131f0565b610cf2565b60405161023b94939291906137c1565b60405180910390f35b61024c61185c565b60405161025991906138bb565b60405180910390f35b61027c600480360381019061027791906138d6565b611882565b005b610298600480360381019061029391906139c2565b611bfb565b005b6102a2611d2f565b6040516102af9190613a7a565b60405180910390f35b6102d260048036038101906102cd9190613469565b611e74565b6040516102df9190613adf565b60405180910390f35b61030260048036038101906102fd9190613469565b611f45565b60405161030f9190613b10565b60405180910390f35b610332600480360381019061032d91906138d6565b611f5d565b005b60036020528060005260406000206000915054906101000a900473ffffffffffffffffffffffffffffffffffffffff1681565b83518551146103ab576040517f08c379a00000000000000000000000000000000000000000000000000000000081526004016103a290613b9d565b60405180910390fd5b82518451146103ef576040517f08c379a00000000000000000000000000000000000000000000000000000000081526004016103e690613b9d565b60405180910390fd5b8151835114610433576040517f08c379a000000000000000000000000000000000000000000000000000000000815260040161042a90613b9d565b60405180910390fd5b8051825114610477576040517f08c379a000000000000000000000000000000000000000000000000000000000815260040161046e90613b9d565b60405180910390fd5b6000855167ffffffffffffffff811115610494576104936126f7565b5b6040519080825280602002602001820160405280156104c25781602001602082028036833780820191505090505b5090506000865167ffffffffffffffff8111156104e2576104e16126f7565b5b6040519080825280602002602001820160405280156105105781602001602082028036833780820191505090505b5090506000875167ffffffffffffffff8111156105305761052f6126f7565b5b60405190808252806020026020018201604052801561056357816020015b606081526020019060019003908161054e5790505b5090506000885167ffffffffffffffff811115610583576105826126f7565b5b6040519080825280602002602001820160405280156105b15781602001602082028036833780820191505090505b50905060005b895181101561079157308582815181106105d4576105d3613bbd565b5b602002602001019073ffffffffffffffffffffffffffffffffffffffff16908173ffffffffffffffffffffffffffffffffffffffff1681525050600084828151811061062357610622613bbd565b5b60200260200101818152505063bb6228b060e01b8a828151811061064a57610649613bbd565b5b60200260200101518a838151811061066557610664613bbd565b5b60200260200101518a84815181106106805761067f613bbd565b5b60200260200101518a858151811061069b5761069a613bbd565b5b60200260200101518a86815181106106b6576106b5613bbd565b5b60200260200101516040516024016106d2959493929190613bec565b604051602081830303815290604052907bffffffffffffffffffffffffffffffffffffffffffffffffffffffff19166020820180517bffffffffffffffffffffffffffffffffffffffffffffffffffffffff838183161783525050505083828151811061074257610741613bbd565b5b6020026020010181905250600082828151811061076257610761613bbd565b5b602002602001019067ffffffffffffffff16908167ffffffffffffffff168152505080806001019150506105b7565b50600560009054906101000a900473ffffffffffffffffffffffffffffffffffffffff1673ffffffffffffffffffffffffffffffffffffffff166396e292b8858585856040518563ffffffff1660e01b81526004016107f39493929190613f03565b6020604051808303816000875af1158015610812573d6000803e3d6000fd5b505050506040513d601f19601f820116820180604052508101906108369190613f79565b610875576040517f08c379a000000000000000000000000000000000000000000000000000000000815260040161086c90613ff2565b60405180910390fd5b505050505050505050565b610888612460565b600682604051610898919061404e565b908152602001604051809103902060120160009054906101000a900460ff166108f6576040517f08c379a00000000000000000000000000000000000000000000000000000000081526004016108ed906140b1565b60405180910390fd5b600682604051610906919061404e565b90815260200160405180910390206014016040518060a00160405290816000820160009054906101000a900460ff161515151581526020016000820160019054906101000a900460ff161515151581526020016000820160029054906101000a900460ff161515151581526020016000820160039054906101000a900460ff161515151581526020016000820160049054906101000a900460ff1615151515815250509050919050565b6006826040516109c0919061404e565b908152602001604051809103902060120160009054906101000a900460ff16610a1e576040517f08c379a0000000000000000000000000000000000000000000000000000000008152600401610a15906140b1565b60405180910390fd5b600682604051610a2e919061404e565b90815260200160405180910390206013018190806001815401808255809150506001900390600052602060002001600090919091909150555050565b6060600682604051610a7c919061404e565b908152602001604051809103902060120160009054906101000a900460ff16610ada576040517f08c379a0000000000000000000000000000000000000000000000000000000008152600401610ad1906140b1565b60405180910390fd5b600682604051610aea919061404e565b9081526020016040518091039020601301805480602002602001604051908101604052809291908181526020018280548015610b4557602002820191906000526020600020905b815481526020019060010190808311610b31575b50505050509050919050565b610b59612499565b610b616124cf565b610b69612505565b610b71612460565b6000600760008773ffffffffffffffffffffffffffffffffffffffff1673ffffffffffffffffffffffffffffffffffffffff1681526020019081526020016000208054610bbd90614100565b80601f0160208091040260200160405190810160405280929190818152602001828054610be990614100565b8015610c365780601f10610c0b57610100808354040283529160200191610c36565b820191906000526020600020905b815481529060010190602001808311610c1957829003601f168201915b50505050509050610c4681610cf2565b9450945094509450509193509193565b7f000000000000000000000000000000000000000000000000000000000000000073ffffffffffffffffffffffffffffffffffffffff163373ffffffffffffffffffffffffffffffffffffffff1614610ce4576040517f08c379a0000000000000000000000000000000000000000000000000000000008152600401610cdb9061417d565b60405180910390fd5b610cee828261221a565b5050565b610cfa612499565b610d026124cf565b610d0a612505565b610d12612460565b600685604051610d22919061404e565b908152602001604051809103902060120160009054906101000a900460ff16610d80576040517f08c379a0000000000000000000000000000000000000000000000000000000008152600401610d77906140b1565b60405180910390fd5b6000600686604051610d92919061404e565b908152602001604051809103902090506040518060c00160405280826000018054610dbc90614100565b80601f0160208091040260200160405190810160405280929190818152602001828054610de890614100565b8015610e355780601f10610e0a57610100808354040283529160200191610e35565b820191906000526020600020905b815481529060010190602001808311610e1857829003601f168201915b50505050508152602001826001018054610e4e90614100565b80601f0160208091040260200160405190810160405280929190818152602001828054610e7a90614100565b8015610ec75780601f10610e9c57610100808354040283529160200191610ec7565b820191906000526020600020905b815481529060010190602001808311610eaa57829003601f168201915b50505050508152602001826003018054610ee090614100565b80601f0160208091040260200160405190810160405280929190818152602001828054610f0c90614100565b8015610f595780601f10610f2e57610100808354040283529160200191610f59565b820191906000526020600020905b815481529060010190602001808311610f3c57829003601f168201915b50505050508152602001826004018054610f7290614100565b80601f0160208091040260200160405190810160405280929190818152602001828054610f9e90614100565b8015610feb5780601f10610fc057610100808354040283529160200191610feb565b820191906000526020600020905b815481529060010190602001808311610fce57829003601f168201915b5050505050815260200182600501805461100490614100565b80601f016020809104026020016040519081016040528092919081815260200182805461103090614100565b801561107d5780601f106110525761010080835404028352916020019161107d565b820191906000526020600020905b81548152906001019060200180831161106057829003601f168201915b5050505050815260200182600801805461109690614100565b80601f01602080910402602001604051908101604052809291908181526020018280546110c290614100565b801561110f5780601f106110e45761010080835404028352916020019161110f565b820191906000526020600020905b8154815290600101906020018083116110f257829003601f168201915b505050505081525094506040518060c0016040528082600601805461113390614100565b80601f016020809104026020016040519081016040528092919081815260200182805461115f90614100565b80156111ac5780601f10611181576101008083540402835291602001916111ac565b820191906000526020600020905b81548152906001019060200180831161118f57829003601f168201915b505050505081526020018260070180546111c590614100565b80601f01602080910402602001604051908101604052809291908181526020018280546111f190614100565b801561123e5780601f106112135761010080835404028352916020019161123e565b820191906000526020600020905b81548152906001019060200180831161122157829003601f168201915b5050505050815260200182600901805461125790614100565b80601f016020809104026020016040519081016040528092919081815260200182805461128390614100565b80156112d05780601f106112a5576101008083540402835291602001916112d0565b820191906000526020600020905b8154815290600101906020018083116112b357829003601f168201915b5050505050815260200182600f0180546112e990614100565b80601f016020809104026020016040519081016040528092919081815260200182805461131590614100565b80156113625780601f1061133757610100808354040283529160200191611362565b820191906000526020600020905b81548152906001019060200180831161134557829003601f168201915b5050505050815260200182601001805480602002602001604051908101604052809291908181526020016000905b8282101561143c5783829060005260206000200180546113af90614100565b80601f01602080910402602001604051908101604052809291908181526020018280546113db90614100565b80156114285780601f106113fd57610100808354040283529160200191611428565b820191906000526020600020905b81548152906001019060200180831161140b57829003601f168201915b505050505081526020019060010190611390565b50505050815260200182601101805461145490614100565b80601f016020809104026020016040519081016040528092919081815260200182805461148090614100565b80156114cd5780601f106114a2576101008083540402835291602001916114cd565b820191906000526020600020905b8154815290600101906020018083116114b057829003601f168201915b505050505081525093506040518060a0016040528082600a0180546114f190614100565b80601f016020809104026020016040519081016040528092919081815260200182805461151d90614100565b801561156a5780601f1061153f5761010080835404028352916020019161156a565b820191906000526020600020905b81548152906001019060200180831161154d57829003601f168201915b5050505050815260200182600b01805461158390614100565b80601f01602080910402602001604051908101604052809291908181526020018280546115af90614100565b80156115fc5780601f106115d1576101008083540402835291602001916115fc565b820191906000526020600020905b8154815290600101906020018083116115df57829003601f168201915b5050505050815260200182600c01805461161590614100565b80601f016020809104026020016040519081016040528092919081815260200182805461164190614100565b801561168e5780601f106116635761010080835404028352916020019161168e565b820191906000526020600020905b81548152906001019060200180831161167157829003601f168201915b5050505050815260200182600d0180546116a790614100565b80601f01602080910402602001604051908101604052809291908181526020018280546116d390614100565b80156117205780601f106116f557610100808354040283529160200191611720565b820191906000526020600020905b81548152906001019060200180831161170357829003601f168201915b5050505050815260200182600e01805461173990614100565b80601f016020809104026020016040519081016040528092919081815260200182805461176590614100565b80156117b25780601f10611787576101008083540402835291602001916117b2565b820191906000526020600020905b81548152906001019060200180831161179557829003601f168201915b50505050508152509250806014016040518060a00160405290816000820160009054906101000a900460ff161515151581526020016000820160019054906101000a900460ff161515151581526020016000820160029054906101000a900460ff161515151581526020016000820160039054906101000a900460ff161515151581526020016000820160049054906101000a900460ff1615151515815250509150509193509193565b600560009054906101000a900473ffffffffffffffffffffffffffffffffffffffff1681565b84600881604051611893919061404e565b908152602001604051809103902060009054906101000a900460ff16156118ef576040517f08c379a00000000000000000000000000000000000000000000000000000000081526004016118e6906141e9565b60405180910390fd5b6000600687604051611901919061404e565b90815260200160405180910390209050856000015181600001908161192691906143ab565b50856020015181600101908161193c91906143ab565b508681600201908161194e91906143ab565b50856040015181600301908161196491906143ab565b50856060015181600401908161197a91906143ab565b50856080015181600501908161199091906143ab565b508560a001518160080190816119a691906143ab565b5084600001518160060190816119bc91906143ab565b5084602001518160070190816119d291906143ab565b5084604001518160090190816119e891906143ab565b50836000015181600a0190816119fe91906143ab565b50836020015181600b019081611a1491906143ab565b50836040015181600c019081611a2a91906143ab565b50836060015181600d019081611a4091906143ab565b50836080015181600e019081611a5691906143ab565b50846060015181600f019081611a6c91906143ab565b508460800151816010019080519060200190611a89929190612534565b508460a00151816011019081611a9f91906143ab565b5060018160120160006101000a81548160ff021916908315150217905550828160140160008201518160000160006101000a81548160ff02191690831515021790555060208201518160000160016101000a81548160ff02191690831515021790555060408201518160000160026101000a81548160ff02191690831515021790555060608201518160000160036101000a81548160ff02191690831515021790555060808201518160000160046101000a81548160ff0219169083151502179055509050506001600888604051611b77919061404e565b908152602001604051809103902060006101000a81548160ff02191690831515021790555086600760003373ffffffffffffffffffffffffffffffffffffffff1673ffffffffffffffffffffffffffffffffffffffff1681526020019081526020016000209081611be891906143ab565b50611bf1611d2f565b5050505050505050565b600686604051611c0b919061404e565b908152602001604051809103902060120160009054906101000a900460ff16611c69576040517f08c379a0000000000000000000000000000000000000000000000000000000008152600401611c60906140b1565b60405180910390fd5b6000600687604051611c7b919061404e565b90815260200160405180910390209050858160140160000160006101000a81548160ff021916908315150217905550848160140160000160016101000a81548160ff021916908315150217905550838160140160000160026101000a81548160ff021916908315150217905550828160140160000160036101000a81548160ff021916908315150217905550818160140160000160046101000a81548160ff02191690831515021790555050505050505050565b60006002547f000000000000000000000000000000000000000000000000000000000000000073ffffffffffffffffffffffffffffffffffffffff166370a08231306040518263ffffffff1660e01b8152600401611d8d91906126c6565b602060405180830381865afa158015611daa573d6000803e3d6000fd5b505050506040513d601f19601f82011682018060405250810190611dce9190614492565b1015611e0f576040517f08c379a0000000000000000000000000000000000000000000000000000000008152600401611e069061450b565b60405180910390fd5b611e1d6001546002546122a1565b9050336003600083815260200190815260200160002060006101000a81548173ffffffffffffffffffffffffffffffffffffffff021916908373ffffffffffffffffffffffffffffffffffffffff16021790555090565b6060600760008373ffffffffffffffffffffffffffffffffffffffff1673ffffffffffffffffffffffffffffffffffffffff1681526020019081526020016000208054611ec090614100565b80601f0160208091040260200160405190810160405280929190818152602001828054611eec90614100565b8015611f395780601f10611f0e57610100808354040283529160200191611f39565b820191906000526020600020905b815481529060010190602001808311611f1c57829003601f168201915b50505050509050919050565b60046020528060005260406000206000915090505481565b600685604051611f6d919061404e565b908152602001604051809103902060120160009054906101000a900460ff16611fcb576040517f08c379a0000000000000000000000000000000000000000000000000000000008152600401611fc2906140b1565b60405180910390fd5b6000600686604051611fdd919061404e565b90815260200160405180910390209050846000015181600001908161200291906143ab565b50846020015181600101908161201891906143ab565b50846040015181600301908161202e91906143ab565b50846060015181600401908161204491906143ab565b50846080015181600501908161205a91906143ab565b508460a0015181600801908161207091906143ab565b50836000015181600601908161208691906143ab565b50836020015181600701908161209c91906143ab565b5083604001518160090190816120b291906143ab565b50826000015181600a0190816120c891906143ab565b50826020015181600b0190816120de91906143ab565b50826040015181600c0190816120f491906143ab565b50826060015181600d01908161210a91906143ab565b50826080015181600e01908161212091906143ab565b50836060015181600f01908161213691906143ab565b508360800151816010019080519060200190612153929190612534565b508360a0015181601101908161216991906143ab565b50818160140160008201518160000160006101000a81548160ff02191690831515021790555060208201518160000160016101000a81548160ff02191690831515021790555060408201518160000160026101000a81548160ff02191690831515021790555060608201518160000160036101000a81548160ff02191690831515021790555060808201518160000160046101000a81548160ff021916908315150217905550905050505050505050565b600081905060006003600085815260200190815260200160002060009054906101000a900473ffffffffffffffffffffffffffffffffffffffff16905081600460008373ffffffffffffffffffffffffffffffffffffffff1673ffffffffffffffffffffffffffffffffffffffff1681526020019081526020016000208190555050505050565b60007f000000000000000000000000000000000000000000000000000000000000000073ffffffffffffffffffffffffffffffffffffffff16634000aea07f00000000000000000000000000000000000000000000000000000000000000008486600060405160200161231592919061452b565b6040516020818303038152906040526040518463ffffffff1660e01b81526004016123429392919061459e565b6020604051808303816000875af1158015612361573d6000803e3d6000fd5b505050506040513d601f19601f820116820180604052508101906123859190613f79565b5060006123a784600030600080898152602001908152602001600020546123f1565b90506001600080868152602001908152602001600020546123c8919061460b565b600080868152602001908152602001600020819055506123e8848261242d565b91505092915050565b60008484848460405160200161240a949392919061463f565b6040516020818303038152906040528051906020012060001c9050949350505050565b600082826040516020016124429291906146c6565b60405160208183030381529060405280519060200120905092915050565b6040518060a001604052806000151581526020016000151581526020016000151581526020016000151581526020016000151581525090565b6040518060c001604052806060815260200160608152602001606081526020016060815260200160608152602001606081525090565b6040518060c001604052806060815260200160608152602001606081526020016060815260200160608152602001606081525090565b6040518060a0016040528060608152602001606081526020016060815260200160608152602001606081525090565b82805482825590600052602060002090810192821561257c579160200282015b8281111561257b57825182908161256b91906143ab565b5091602001919060010190612554565b5b509050612589919061258d565b5090565b5b808211156125ad57600081816125a491906125b1565b5060010161258e565b5090565b5080546125bd90614100565b6000825580601f106125cf57506125ee565b601f0160209004906000526020600020908101906125ed91906125f1565b5b50565b5b8082111561260a5760008160009055506001016125f2565b5090565b6000604051905090565b600080fd5b600080fd5b6000819050919050565b61263581612622565b811461264057600080fd5b50565b6000813590506126528161262c565b92915050565b60006020828403121561266e5761266d612618565b5b600061267c84828501612643565b91505092915050565b600073ffffffffffffffffffffffffffffffffffffffff82169050919050565b60006126b082612685565b9050919050565b6126c0816126a5565b82525050565b60006020820190506126db60008301846126b7565b92915050565b600080fd5b6000601f19601f8301169050919050565b7f4e487b7100000000000000000000000000000000000000000000000000000000600052604160045260246000fd5b61272f826126e6565b810181811067ffffffffffffffff8211171561274e5761274d6126f7565b5b80604052505050565b600061276161260e565b905061276d8282612726565b919050565b600067ffffffffffffffff82111561278d5761278c6126f7565b5b602082029050602081019050919050565b600080fd5b600080fd5b600067ffffffffffffffff8211156127c3576127c26126f7565b5b6127cc826126e6565b9050602081019050919050565b82818337600083830152505050565b60006127fb6127f6846127a8565b612757565b905082815260208101848484011115612817576128166127a3565b5b6128228482856127d9565b509392505050565b600082601f83011261283f5761283e6126e1565b5b813561284f8482602086016127e8565b91505092915050565b600061286b61286684612772565b612757565b9050808382526020820190506020840283018581111561288e5761288d61279e565b5b835b818110156128d557803567ffffffffffffffff8111156128b3576128b26126e1565b5b8086016128c0898261282a565b85526020850194505050602081019050612890565b5050509392505050565b600082601f8301126128f4576128f36126e1565b5b8135612904848260208601612858565b91505092915050565b600067ffffffffffffffff821115612928576129276126f7565b5b602082029050602081019050919050565b600080fd5b600080fd5b600060c0828403121561295957612958612939565b5b61296360c0612757565b9050600082013567ffffffffffffffff8111156129835761298261293e565b5b61298f8482850161282a565b600083015250602082013567ffffffffffffffff8111156129b3576129b261293e565b5b6129bf8482850161282a565b602083015250604082013567ffffffffffffffff8111156129e3576129e261293e565b5b6129ef8482850161282a565b604083015250606082013567ffffffffffffffff811115612a1357612a1261293e565b5b612a1f8482850161282a565b606083015250608082013567ffffffffffffffff811115612a4357612a4261293e565b5b612a4f8482850161282a565b60808301525060a082013567ffffffffffffffff811115612a7357612a7261293e565b5b612a7f8482850161282a565b60a08301525092915050565b6000612a9e612a998461290d565b612757565b90508083825260208201905060208402830185811115612ac157612ac061279e565b5b835b81811015612b0857803567ffffffffffffffff811115612ae657612ae56126e1565b5b808601612af38982612943565b85526020850194505050602081019050612ac3565b5050509392505050565b600082601f830112612b2757612b266126e1565b5b8135612b37848260208601612a8b565b91505092915050565b600067ffffffffffffffff821115612b5b57612b5a6126f7565b5b602082029050602081019050919050565b600060c08284031215612b8257612b81612939565b5b612b8c60c0612757565b9050600082013567ffffffffffffffff811115612bac57612bab61293e565b5b612bb88482850161282a565b600083015250602082013567ffffffffffffffff811115612bdc57612bdb61293e565b5b612be88482850161282a565b602083015250604082013567ffffffffffffffff811115612c0c57612c0b61293e565b5b612c188482850161282a565b604083015250606082013567ffffffffffffffff811115612c3c57612c3b61293e565b5b612c488482850161282a565b606083015250608082013567ffffffffffffffff811115612c6c57612c6b61293e565b5b612c78848285016128df565b60808301525060a082013567ffffffffffffffff811115612c9c57612c9b61293e565b5b612ca88482850161282a565b60a08301525092915050565b6000612cc7612cc284612b40565b612757565b90508083825260208201905060208402830185811115612cea57612ce961279e565b5b835b81811015612d3157803567ffffffffffffffff811115612d0f57612d0e6126e1565b5b808601612d1c8982612b6c565b85526020850194505050602081019050612cec565b5050509392505050565b600082601f830112612d5057612d4f6126e1565b5b8135612d60848260208601612cb4565b91505092915050565b600067ffffffffffffffff821115612d8457612d836126f7565b5b602082029050602081019050919050565b600060a08284031215612dab57612daa612939565b5b612db560a0612757565b9050600082013567ffffffffffffffff811115612dd557612dd461293e565b5b612de18482850161282a565b600083015250602082013567ffffffffffffffff811115612e0557612e0461293e565b5b612e118482850161282a565b602083015250604082013567ffffffffffffffff811115612e3557612e3461293e565b5b612e418482850161282a565b604083015250606082013567ffffffffffffffff811115612e6557612e6461293e565b5b612e718482850161282a565b606083015250608082013567ffffffffffffffff811115612e9557612e9461293e565b5b612ea18482850161282a565b60808301525092915050565b6000612ec0612ebb84612d69565b612757565b90508083825260208201905060208402830185811115612ee357612ee261279e565b5b835b81811015612f2a57803567ffffffffffffffff811115612f0857612f076126e1565b5b808601612f158982612d95565b85526020850194505050602081019050612ee5565b5050509392505050565b600082601f830112612f4957612f486126e1565b5b8135612f59848260208601612ead565b91505092915050565b600067ffffffffffffffff821115612f7d57612f7c6126f7565b5b602082029050602081019050919050565b60008115159050919050565b612fa381612f8e565b8114612fae57600080fd5b50565b600081359050612fc081612f9a565b92915050565b600060a08284031215612fdc57612fdb612939565b5b612fe660a0612757565b90506000612ff684828501612fb1565b600083015250602061300a84828501612fb1565b602083015250604061301e84828501612fb1565b604083015250606061303284828501612fb1565b606083015250608061304684828501612fb1565b60808301525092915050565b600061306561306084612f62565b612757565b90508083825260208201905060a084028301858111156130885761308761279e565b5b835b818110156130b1578061309d8882612fc6565b84526020840193505060a08101905061308a565b5050509392505050565b600082601f8301126130d0576130cf6126e1565b5b81356130e0848260208601613052565b91505092915050565b600080600080600060a0868803121561310557613104612618565b5b600086013567ffffffffffffffff8111156131235761312261261d565b5b61312f888289016128df565b955050602086013567ffffffffffffffff8111156131505761314f61261d565b5b61315c88828901612b12565b945050604086013567ffffffffffffffff81111561317d5761317c61261d565b5b61318988828901612d3b565b935050606086013567ffffffffffffffff8111156131aa576131a961261d565b5b6131b688828901612f34565b925050608086013567ffffffffffffffff8111156131d7576131d661261d565b5b6131e3888289016130bb565b9150509295509295909350565b60006020828403121561320657613205612618565b5b600082013567ffffffffffffffff8111156132245761322361261d565b5b6132308482850161282a565b91505092915050565b61324281612f8e565b82525050565b60a08201600082015161325e6000850182613239565b5060208201516132716020850182613239565b5060408201516132846040850182613239565b5060608201516132976060850182613239565b5060808201516132aa6080850182613239565b50505050565b600060a0820190506132c56000830184613248565b92915050565b6000819050919050565b6132de816132cb565b81146132e957600080fd5b50565b6000813590506132fb816132d5565b92915050565b6000806040838503121561331857613317612618565b5b600083013567ffffffffffffffff8111156133365761333561261d565b5b6133428582860161282a565b9250506020613353858286016132ec565b9150509250929050565b600081519050919050565b600082825260208201905092915050565b6000819050602082019050919050565b613392816132cb565b82525050565b60006133a48383613389565b60208301905092915050565b6000602082019050919050565b60006133c88261335d565b6133d28185613368565b93506133dd83613379565b8060005b8381101561340e5781516133f58882613398565b9750613400836133b0565b9250506001810190506133e1565b5085935050505092915050565b6000602082019050818103600083015261343581846133bd565b905092915050565b613446816126a5565b811461345157600080fd5b50565b6000813590506134638161343d565b92915050565b60006020828403121561347f5761347e612618565b5b600061348d84828501613454565b91505092915050565b600081519050919050565b600082825260208201905092915050565b60005b838110156134d05780820151818401526020810190506134b5565b60008484015250505050565b60006134e782613496565b6134f181856134a1565b93506135018185602086016134b2565b61350a816126e6565b840191505092915050565b600060c083016000830151848203600086015261353282826134dc565b9150506020830151848203602086015261354c82826134dc565b9150506040830151848203604086015261356682826134dc565b9150506060830151848203606086015261358082826134dc565b9150506080830151848203608086015261359a82826134dc565b91505060a083015184820360a08601526135b482826134dc565b9150508091505092915050565b600081519050919050565b600082825260208201905092915050565b6000819050602082019050919050565b60006135f983836134dc565b905092915050565b6000602082019050919050565b6000613619826135c1565b61362381856135cc565b935083602082028501613635856135dd565b8060005b85811015613671578484038952815161365285826135ed565b945061365d83613601565b925060208a01995050600181019050613639565b50829750879550505050505092915050565b600060c08301600083015184820360008601526136a082826134dc565b915050602083015184820360208601526136ba82826134dc565b915050604083015184820360408601526136d482826134dc565b915050606083015184820360608601526136ee82826134dc565b91505060808301518482036080860152613708828261360e565b91505060a083015184820360a086015261372282826134dc565b9150508091505092915050565b600060a083016000830151848203600086015261374c82826134dc565b9150506020830151848203602086015261376682826134dc565b9150506040830151848203604086015261378082826134dc565b9150506060830151848203606086015261379a82826134dc565b915050608083015184820360808601526137b482826134dc565b9150508091505092915050565b60006101008201905081810360008301526137dc8187613515565b905081810360208301526137f08186613683565b90508181036040830152613804818561372f565b90506138136060830184613248565b95945050505050565b6000806040838503121561383357613832612618565b5b600061384185828601612643565b9250506020613852858286016132ec565b9150509250929050565b6000819050919050565b600061388161387c61387784612685565b61385c565b612685565b9050919050565b600061389382613866565b9050919050565b60006138a582613888565b9050919050565b6138b58161389a565b82525050565b60006020820190506138d060008301846138ac565b92915050565b600080600080600061012086880312156138f3576138f2612618565b5b600086013567ffffffffffffffff8111156139115761391061261d565b5b61391d8882890161282a565b955050602086013567ffffffffffffffff81111561393e5761393d61261d565b5b61394a88828901612943565b945050604086013567ffffffffffffffff81111561396b5761396a61261d565b5b61397788828901612b6c565b935050606086013567ffffffffffffffff8111156139985761399761261d565b5b6139a488828901612d95565b92505060806139b588828901612fc6565b9150509295509295909350565b60008060008060008060c087890312156139df576139de612618565b5b600087013567ffffffffffffffff8111156139fd576139fc61261d565b5b613a0989828a0161282a565b9650506020613a1a89828a01612fb1565b9550506040613a2b89828a01612fb1565b9450506060613a3c89828a01612fb1565b9350506080613a4d89828a01612fb1565b92505060a0613a5e89828a01612fb1565b9150509295509295509295565b613a7481612622565b82525050565b6000602082019050613a8f6000830184613a6b565b92915050565b600082825260208201905092915050565b6000613ab182613496565b613abb8185613a95565b9350613acb8185602086016134b2565b613ad4816126e6565b840191505092915050565b60006020820190508181036000830152613af98184613aa6565b905092915050565b613b0a816132cb565b82525050565b6000602082019050613b256000830184613b01565b92915050565b7f496e70757420617272617973206d7573742068617665207468652073616d652060008201527f6c656e6774680000000000000000000000000000000000000000000000000000602082015250565b6000613b87602683613a95565b9150613b9282613b2b565b604082019050919050565b60006020820190508181036000830152613bb681613b7a565b9050919050565b7f4e487b7100000000000000000000000000000000000000000000000000000000600052603260045260246000fd5b6000610120820190508181036000830152613c078188613aa6565b90508181036020830152613c1b8187613515565b90508181036040830152613c2f8186613683565b90508181036060830152613c43818561372f565b9050613c526080830184613248565b9695505050505050565b600081519050919050565b600082825260208201905092915050565b6000819050602082019050919050565b613c91816126a5565b82525050565b6000613ca38383613c88565b60208301905092915050565b6000602082019050919050565b6000613cc782613c5c565b613cd18185613c67565b9350613cdc83613c78565b8060005b83811015613d0d578151613cf48882613c97565b9750613cff83613caf565b925050600181019050613ce0565b5085935050505092915050565b600081519050919050565b600082825260208201905092915050565b6000819050602082019050919050565b600081519050919050565b600082825260208201905092915050565b6000613d6d82613d46565b613d778185613d51565b9350613d878185602086016134b2565b613d90816126e6565b840191505092915050565b6000613da78383613d62565b905092915050565b6000602082019050919050565b6000613dc782613d1a565b613dd18185613d25565b935083602082028501613de385613d36565b8060005b85811015613e1f5784840389528151613e008582613d9b565b9450613e0b83613daf565b925060208a01995050600181019050613de7565b50829750879550505050505092915050565b600081519050919050565b600082825260208201905092915050565b6000819050602082019050919050565b600067ffffffffffffffff82169050919050565b613e7a81613e5d565b82525050565b6000613e8c8383613e71565b60208301905092915050565b6000602082019050919050565b6000613eb082613e31565b613eba8185613e3c565b9350613ec583613e4d565b8060005b83811015613ef6578151613edd8882613e80565b9750613ee883613e98565b925050600181019050613ec9565b5085935050505092915050565b60006080820190508181036000830152613f1d8187613cbc565b90508181036020830152613f3181866133bd565b90508181036040830152613f458185613dbc565b90508181036060830152613f598184613ea5565b905095945050505050565b600081519050613f7381612f9a565b92915050565b600060208284031215613f8f57613f8e612618565b5b6000613f9d84828501613f64565b91505092915050565b7f4261746368207472616e73616374696f6e206661696c65640000000000000000600082015250565b6000613fdc601883613a95565b9150613fe782613fa6565b602082019050919050565b6000602082019050818103600083015261400b81613fcf565b9050919050565b600081905092915050565b600061402882613496565b6140328185614012565b93506140428185602086016134b2565b80840191505092915050565b600061405a828461401d565b915081905092915050565b7f5573657220646f6573206e6f742065786973742e000000000000000000000000600082015250565b600061409b601483613a95565b91506140a682614065565b602082019050919050565b600060208201905081810360008301526140ca8161408e565b9050919050565b7f4e487b7100000000000000000000000000000000000000000000000000000000600052602260045260246000fd5b6000600282049050600182168061411857607f821691505b60208210810361412b5761412a6140d1565b5b50919050565b7f4f6e6c7920565246436f6f7264696e61746f722063616e2066756c66696c6c00600082015250565b6000614167601f83613a95565b915061417282614131565b602082019050919050565b600060208201905081810360008301526141968161415a565b9050919050565b7f557365726e616d6520616c7265616479206578697374732e0000000000000000600082015250565b60006141d3601883613a95565b91506141de8261419d565b602082019050919050565b60006020820190508181036000830152614202816141c6565b9050919050565b60008190508160005260206000209050919050565b60006020601f8301049050919050565b600082821b905092915050565b60006008830261426b7fffffffffffffffffffffffffffffffffffffffffffffffffffffffffffffffff8261422e565b614275868361422e565b95508019841693508086168417925050509392505050565b60006142a86142a361429e846132cb565b61385c565b6132cb565b9050919050565b6000819050919050565b6142c28361428d565b6142d66142ce826142af565b84845461423b565b825550505050565b600090565b6142eb6142de565b6142f68184846142b9565b505050565b5b8181101561431a5761430f6000826142e3565b6001810190506142fc565b5050565b601f82111561435f5761433081614209565b6143398461421e565b81016020851015614348578190505b61435c6143548561421e565b8301826142fb565b50505b505050565b600082821c905092915050565b600061438260001984600802614364565b1980831691505092915050565b600061439b8383614371565b9150826002028217905092915050565b6143b482613496565b67ffffffffffffffff8111156143cd576143cc6126f7565b5b6143d78254614100565b6143e282828561431e565b600060209050601f8311600181146144155760008415614403578287015190505b61440d858261438f565b865550614475565b601f19841661442386614209565b60005b8281101561444b57848901518255600182019150602085019450602081019050614426565b868310156144685784890151614464601f891682614371565b8355505b6001600288020188555050505b505050505050565b60008151905061448c816132d5565b92915050565b6000602082840312156144a8576144a7612618565b5b60006144b68482850161447d565b91505092915050565b7f4e6f7420656e6f756768204c494e4b0000000000000000000000000000000000600082015250565b60006144f5600f83613a95565b9150614500826144bf565b602082019050919050565b60006020820190508181036000830152614524816144e8565b9050919050565b60006040820190506145406000830185613a6b565b61454d6020830184613b01565b9392505050565b600082825260208201905092915050565b600061457082613d46565b61457a8185614554565b935061458a8185602086016134b2565b614593816126e6565b840191505092915050565b60006060820190506145b360008301866126b7565b6145c06020830185613b01565b81810360408301526145d28184614565565b9050949350505050565b7f4e487b7100000000000000000000000000000000000000000000000000000000600052601160045260246000fd5b6000614616826132cb565b9150614621836132cb565b9250828201905080821115614639576146386145dc565b5b92915050565b60006080820190506146546000830187613a6b565b6146616020830186613b01565b61466e60408301856126b7565b61467b6060830184613b01565b95945050505050565b6000819050919050565b61469f61469a82612622565b614684565b82525050565b6000819050919050565b6146c06146bb826132cb565b6146a5565b82525050565b60006146d2828561468e565b6020820191506146e282846146af565b602082019150819050939250505056fea26469706673582212204b784b551390f4a4bf4914ee4bbdede9b6fbc845e221a68119116879c8b4786d64736f6c63430008180033",
  "linkReferences": {},
  "deployedLinkReferences": {}
}